{
  "contractName": "Deployer",
  "abi": [
    {
      "inputs": [
        {
          "internalType": "address",
          "name": "nft_addr",
          "type": "address"
        },
        {
          "internalType": "address",
          "name": "lottery_op",
          "type": "address"
        }
      ],
      "stateMutability": "nonpayable",
      "type": "constructor"
    },
    {
      "inputs": [],
      "name": "lottery_operator",
      "outputs": [
        {
          "internalType": "address",
          "name": "",
          "type": "address"
        }
      ],
      "stateMutability": "view",
      "type": "function",
      "constant": true
    },
    {
      "inputs": [],
      "name": "nft_address",
      "outputs": [
        {
          "internalType": "address",
          "name": "",
          "type": "address"
        }
      ],
      "stateMutability": "view",
      "type": "function",
      "constant": true
    },
    {
      "inputs": [],
      "name": "getLotteryAddress",
      "outputs": [
        {
          "internalType": "address",
          "name": "",
          "type": "address"
        }
      ],
      "stateMutability": "view",
      "type": "function",
      "constant": true
    },
    {
      "inputs": [],
      "name": "createLottery",
      "outputs": [
        {
          "internalType": "address",
          "name": "",
          "type": "address"
        }
      ],
      "stateMutability": "nonpayable",
      "type": "function"
    }
  ],
  "bytecode": "0x6080604052600a60005560026001556002805534801561001e57600080fd5b50604051615890380380615890833981810160405281019061004091906100de565b81600460006101000a81548173ffffffffffffffffffffffffffffffffffffffff021916908373ffffffffffffffffffffffffffffffffffffffff16021790555080600360006101000a81548173ffffffffffffffffffffffffffffffffffffffff021916908373ffffffffffffffffffffffffffffffffffffffff1602179055505050610163565b6000815190506100d88161014c565b92915050565b600080604083850312156100f157600080fd5b60006100ff858286016100c9565b9250506020610110858286016100c9565b9150509250929050565b60006101258261012c565b9050919050565b600073ffffffffffffffffffffffffffffffffffffffff82169050919050565b6101558161011a565b811461016057600080fd5b50565b61571e806101726000396000f3fe608060405234801561001057600080fd5b506004361061004c5760003560e01c8063bb8e768814610051578063c78de7091461006f578063ea660a241461008d578063fc7d9178146100ab575b600080fd5b6100596100c9565b6040516100669190610259565b60405180910390f35b6100776100ef565b6040516100849190610259565b60405180910390f35b610095610115565b6040516100a29190610259565b60405180910390f35b6100b3610204565b6040516100c09190610259565b60405180910390f35b600360009054906101000a900473ffffffffffffffffffffffffffffffffffffffff1681565b600460009054906101000a900473ffffffffffffffffffffffffffffffffffffffff1681565b60008054600154600254600460009054906101000a900473ffffffffffffffffffffffffffffffffffffffff16600360009054906101000a900473ffffffffffffffffffffffffffffffffffffffff166040516101719061022e565b61017f959493929190610274565b604051809103906000f08015801561019b573d6000803e3d6000fd5b50600660006101000a81548173ffffffffffffffffffffffffffffffffffffffff021916908373ffffffffffffffffffffffffffffffffffffffff160217905550600660009054906101000a900473ffffffffffffffffffffffffffffffffffffffff16905090565b6000600660009054906101000a900473ffffffffffffffffffffffffffffffffffffffff16905090565b6153e58061030483390190565b610244816102c7565b82525050565b610253816102f9565b82525050565b600060208201905061026e600083018461023b565b92915050565b600060a082019050610289600083018861024a565b610296602083018761024a565b6102a3604083018661024a565b6102b0606083018561023b565b6102bd608083018461023b565b9695505050505050565b60006102d2826102d9565b9050919050565b600073ffffffffffffffffffffffffffffffffffffffff82169050919050565b600081905091905056fe60806040523480156200001157600080fd5b50604051620053e5380380620053e583398181016040528101906200003791906200022a565b600085116200004e57600a60018190555062000056565b846001819055505b600084116200006d57600a60058190555062000075565b836005819055505b600083116200008c57607b60068190555062000094565b826006819055505b604051806060016040528060008152602001600060ff168152602001600081525060026000820151816000015560208201518160010160006101000a81548160ff021916908360ff1602179055506040820151816002015590505080600760006101000a81548173ffffffffffffffffffffffffffffffffffffffff021916908373ffffffffffffffffffffffffffffffffffffffff160217905550620001406200018c60201b60201c565b81600e60006101000a81548173ffffffffffffffffffffffffffffffffffffffff021916908373ffffffffffffffffffffffffffffffffffffffff16021790555050505050506200039b565b60005b6005811015620001f157600060088260058110620001d6577f4e487b7100000000000000000000000000000000000000000000000000000000600052603260045260246000fd5b01819055508080620001e890620002ea565b9150506200018f565b506000600d81905550565b6000815190506200020d8162000367565b92915050565b600081519050620002248162000381565b92915050565b600080600080600060a086880312156200024357600080fd5b6000620002538882890162000213565b9550506020620002668882890162000213565b9450506040620002798882890162000213565b93505060606200028c88828901620001fc565b92505060806200029f88828901620001fc565b9150509295509295909350565b6000620002b982620002c0565b9050919050565b600073ffffffffffffffffffffffffffffffffffffffff82169050919050565b6000819050919050565b6000620002f782620002e0565b91507fffffffffffffffffffffffffffffffffffffffffffffffffffffffffffffffff8214156200032d576200032c62000338565b5b600182019050919050565b7f4e487b7100000000000000000000000000000000000000000000000000000000600052601160045260246000fd5b6200037281620002ac565b81146200037e57600080fd5b50565b6200038c81620002e0565b81146200039857600080fd5b50565b61503a80620003ab6000396000f3fe6080604052600436106101145760003560e01c806360654e47116100a0578063a34df21e11610064578063a34df21e1461039c578063b3c2fc78146103d9578063bd85948c146103f0578063dc7682fc1461041b578063e278fe6f1461044657610114565b806360654e47146102b3578063676c902f146102de5780636b68c03c146103095780637dc379fa14610334578063a0712d681461037357610114565b806332fad343116100e757806332fad343146101d757806339bafeac1461020257806345ce691a1461022d57806359a920cd1461025d57806359e4a1c71461028857610114565b806306d5ee54146101195780630b5adfff14610144578063164595e31461016f5780632064563f146101ac575b600080fd5b34801561012557600080fd5b5061012e61045d565b60405161013b9190614469565b60405180910390f35b34801561015057600080fd5b5061015961101c565b60405161016691906147d6565b60405180910390f35b34801561017b57600080fd5b5061019660048036038101906101919190613e0c565b611029565b6040516101a391906147d6565b60405180910390f35b3480156101b857600080fd5b506101c161110b565b6040516101ce919061435e565b60405180910390f35b3480156101e357600080fd5b506101ec611135565b6040516101f991906147d6565b60405180910390f35b34801561020e57600080fd5b50610217611142565b60405161022491906147d6565b60405180910390f35b61024760048036038101906102429190613e5e565b61114f565b6040516102549190614469565b60405180910390f35b34801561026957600080fd5b50610272611670565b60405161027f9190614828565b60405180910390f35b34801561029457600080fd5b5061029d61168a565b6040516102aa91906147d6565b60405180910390f35b3480156102bf57600080fd5b506102c8611697565b6040516102d591906147d6565b60405180910390f35b3480156102ea57600080fd5b506102f361169f565b6040516103009190614469565b60405180910390f35b34801561031557600080fd5b5061031e6119f8565b60405161032b9190614469565b60405180910390f35b34801561034057600080fd5b5061035b60048036038101906103569190613e35565b611a18565b60405161036a939291906143b0565b60405180910390f35b34801561037f57600080fd5b5061039a60048036038101906103959190613e35565b611ba6565b005b3480156103a857600080fd5b506103c360048036038101906103be9190613e35565b611ea5565b6040516103d091906147bb565b60405180910390f35b3480156103e557600080fd5b506103ee611fc5565b005b3480156103fc57600080fd5b50610405611ffb565b6040516104129190614469565b60405180910390f35b34801561042757600080fd5b506104306121c8565b60405161043d919061444e565b60405180910390f35b34801561045257600080fd5b5061045b612359565b005b60003373ffffffffffffffffffffffffffffffffffffffff16600760009054906101000a900473ffffffffffffffffffffffffffffffffffffffff1673ffffffffffffffffffffffffffffffffffffffff16146104ef576040517f08c379a00000000000000000000000000000000000000000000000000000000081526004016104e6906144ed565b60405180910390fd5b60028060010160009054906101000a900460ff1660ff1614610546576040517f08c379a000000000000000000000000000000000000000000000000000000000815260040161053d9061462e565b60405180910390fd5b60005b6011805490508110156108365760008060005b60058110156106735760005b600581101561065f57600881600581106105ab577f4e487b7100000000000000000000000000000000000000000000000000000000600052603260045260246000fd5b0154601186815481106105e7577f4e487b7100000000000000000000000000000000000000000000000000000000600052603260045260246000fd5b90600052602060002090600702016001018360058110610630577f4e487b7100000000000000000000000000000000000000000000000000000000600052603260045260246000fd5b0154141561064c5760018461064591906148c4565b935061065f565b808061065790614aaf565b915050610568565b50808061066b90614aaf565b91505061055c565b50600d54601184815481106106b1577f4e487b7100000000000000000000000000000000000000000000000000000000600052603260045260246000fd5b90600052602060002090600702016006015414156106ce57600190505b60008211806106e1575060011515811515145b156108215760006106f28383612f0d565b9050600060405180606001604052806011878154811061073b577f4e487b7100000000000000000000000000000000000000000000000000000000600052603260045260246000fd5b906000526020600020906007020160000160009054906101000a900473ffffffffffffffffffffffffffffffffffffffff1673ffffffffffffffffffffffffffffffffffffffff16815260200183815260200160008152509050601281908060018154018082558091505060019003906000526020600020906003020160009091909190915060008201518160000160006101000a81548173ffffffffffffffffffffffffffffffffffffffff021916908373ffffffffffffffffffffffffffffffffffffffff1602179055506020820151816001015560408201518160020155505050505b5050808061082e90614aaf565b915050610549565b5061083f613a06565b60005b60088110156108a2576000828260088110610886577f4e487b7100000000000000000000000000000000000000000000000000000000600052603260045260246000fd5b602002018181525050808061089a90614aaf565b915050610842565b5060005b601280549050811015610972576000601282815481106108ef577f4e487b7100000000000000000000000000000000000000000000000000000000600052603260045260246000fd5b90600052602060002090600302016001015490508260018261091191906149a5565b60088110610948577f4e487b7100000000000000000000000000000000000000000000000000000000600052603260045260246000fd5b60200201805180919061095a90614aaf565b8152505050808061096a90614aaf565b9150506108a6565b5060005b60088110156109fb57600060018261098e91906148c4565b905060008383600881106109cb577f4e487b7100000000000000000000000000000000000000000000000000000000600052603260045260246000fd5b6020020151905060008111156109e6576109e58183613017565b5b505080806109f390614aaf565b915050610976565b5060005b601280549050811015610fbc57600060128281548110610a48577f4e487b7100000000000000000000000000000000000000000000000000000000600052603260045260246000fd5b906000526020600020906003020160010154905060005b600f80549050811015610b475781600f8281548110610aa7577f4e487b7100000000000000000000000000000000000000000000000000000000600052603260045260246000fd5b9060005260206000209060030201600101541415610b34576010600f8281548110610afb577f4e487b7100000000000000000000000000000000000000000000000000000000600052603260045260246000fd5b90600052602060002090600302016000015490806001815401808255809150506001900390600052602060002001600090919091909150555b8080610b3f90614aaf565b915050610a5f565b5060008243610b5691906148c4565b90506000610b638261333c565b9050600060108054905082610b789190614af8565b9050600060108281548110610bb6577f4e487b7100000000000000000000000000000000000000000000000000000000600052603260045260246000fd5b906000526020600020015490508060128781548110610bfe577f4e487b7100000000000000000000000000000000000000000000000000000000600052603260045260246000fd5b906000526020600020906003020160020181905550600e60009054906101000a900473ffffffffffffffffffffffffffffffffffffffff1673ffffffffffffffffffffffffffffffffffffffff166342842e0e600760009054906101000a900473ffffffffffffffffffffffffffffffffffffffff1660128981548110610cae577f4e487b7100000000000000000000000000000000000000000000000000000000600052603260045260246000fd5b906000526020600020906003020160000160009054906101000a900473ffffffffffffffffffffffffffffffffffffffff16846040518463ffffffff1660e01b8152600401610cff93929190614379565b600060405180830381600087803b158015610d1957600080fd5b505af1158015610d2d573d6000803e3d6000fd5b5050505060005b600f80549050811015610ef15781600f8281548110610d7c577f4e487b7100000000000000000000000000000000000000000000000000000000600052603260045260246000fd5b9060005260206000209060030201600001541415610ede57600f6001600f80549050610da891906149a5565b81548110610ddf577f4e487b7100000000000000000000000000000000000000000000000000000000600052603260045260246000fd5b9060005260206000209060030201600f8281548110610e27577f4e487b7100000000000000000000000000000000000000000000000000000000600052603260045260246000fd5b906000526020600020906003020160008201548160000155600182015481600101556002820181600201908054610e5d90614a7d565b610e68929190613a29565b50905050600f805480610ea4577f4e487b7100000000000000000000000000000000000000000000000000000000600052603160045260246000fd5b60019003818190600052602060002090600302016000808201600090556001820160009055600282016000610ed99190613ab6565b505090555b8080610ee990614aaf565b915050610d34565b507ff14045014153c13a3fea5d1fdb4dd2fa03d3876f5e4757c7f3160f498982a81260128781548110610f4d577f4e487b7100000000000000000000000000000000000000000000000000000000600052603260045260246000fd5b906000526020600020906003020160000160009054906101000a900473ffffffffffffffffffffffffffffffffffffffff1682604051610f8e9291906145f2565b60405180910390a160106000610fa49190613af6565b50505050508080610fb490614aaf565b9150506109ff565b507f833130ea6c81d4b44cda5cb7c548cba190a734346a172a08b96003e97b3638e16001604051610fed9190614469565b60405180910390a16003600260010160006101000a81548160ff021916908360ff160217905550600191505090565b6000601180549050905090565b6000806000905060005b601180549050811015611101578373ffffffffffffffffffffffffffffffffffffffff1660118281548110611091577f4e487b7100000000000000000000000000000000000000000000000000000000600052603260045260246000fd5b906000526020600020906007020160000160009054906101000a900473ffffffffffffffffffffffffffffffffffffffff1673ffffffffffffffffffffffffffffffffffffffff1614156110ee5781806110ea90614aaf565b9250505b80806110f990614aaf565b915050611033565b5080915050919050565b6000600760009054906101000a900473ffffffffffffffffffffffffffffffffffffffff16905090565b6000601280549050905090565b6000600260000154905090565b600060018710158015611163575060458711155b801561117d57506001861015801561117c575060458611155b5b8015611197575060018510158015611196575060458511155b5b80156111b15750600184101580156111b0575060458411155b5b80156111cb5750600183101580156111ca575060458311155b5b80156111e55750600182101580156111e45750601a8211155b5b611224576040517f08c379a000000000000000000000000000000000000000000000000000000000815260040161121b9061464e565b60405180910390fd5b8587141580156112345750848714155b80156112405750838714155b801561124c5750828714155b80156112585750848614155b80156112645750838614155b80156112705750828614155b801561127c5750838514155b80156112885750828514155b80156112945750828414155b6112d3576040517f08c379a00000000000000000000000000000000000000000000000000000000081526004016112ca9061475b565b60405180910390fd5b6001600260010160009054906101000a900460ff1660ff161461132b576040517f08c379a0000000000000000000000000000000000000000000000000000000008152600401611322906144ad565b60405180910390fd5b600154341015611370576040517f08c379a00000000000000000000000000000000000000000000000000000000081526004016113679061473b565b60405180910390fd5b611378613b17565b33816000019073ffffffffffffffffffffffffffffffffffffffff16908173ffffffffffffffffffffffffffffffffffffffff16815250508781602001516000600581106113ef577f4e487b7100000000000000000000000000000000000000000000000000000000600052603260045260246000fd5b602002018181525050868160200151600160058110611437577f4e487b7100000000000000000000000000000000000000000000000000000000600052603260045260246000fd5b60200201818152505085816020015160026005811061147f577f4e487b7100000000000000000000000000000000000000000000000000000000600052603260045260246000fd5b6020020181815250508481602001516003600581106114c7577f4e487b7100000000000000000000000000000000000000000000000000000000600052603260045260246000fd5b60200201818152505083816020015160046005811061150f577f4e487b7100000000000000000000000000000000000000000000000000000000600052603260045260246000fd5b602002018181525050828160400181815250507fcfd2fb7aa48f24f16ea37c0083ab7d7208dfb1154494cb88660cdbc0d11db6ff3389898989898960405161155d97969594939291906146b8565b60405180910390a1601181908060018154018082558091505060019003906000526020600020906007020160009091909190915060008201518160000160006101000a81548173ffffffffffffffffffffffffffffffffffffffff021916908373ffffffffffffffffffffffffffffffffffffffff1602179055506020820151816001019060056115ef929190613b54565b506040820151816006015550506001543411156116615760006001543461161691906149a5565b90503373ffffffffffffffffffffffffffffffffffffffff166108fc829081150290604051600060405180830381858888f1935050505015801561165e573d6000803e3d6000fd5b50505b60019150509695505050505050565b6000600260010160009054906101000a900460ff16905090565b6000600f80549050905090565b600047905090565b60003373ffffffffffffffffffffffffffffffffffffffff16600760009054906101000a900473ffffffffffffffffffffffffffffffffffffffff1673ffffffffffffffffffffffffffffffffffffffff1614611731576040517f08c379a0000000000000000000000000000000000000000000000000000000008152600401611728906144ed565b60405180910390fd5b6001600260010160009054906101000a900460ff1660ff16148015611774575060065460055461176191906148c4565b60028001544361177191906149a5565b10155b6117b3576040517f08c379a00000000000000000000000000000000000000000000000000000000081526004016117aa906145d2565b60405180910390fd5b60008060005b60068110156118615780436117ce91906148c4565b925060006117db8461333c565b905060058214156117ff576117f18160016133a1565b925082600d8190555061184d565b61180a8160006133a1565b92508260088360058110611847577f4e487b7100000000000000000000000000000000000000000000000000000000600052603260045260246000fd5b01819055505b50808061185990614aaf565b9150506117b9565b507f121bb129376efc920002fc0064b06d77546684806b40cfda9663f5e2ed7b4e2760086000600581106118be577f4e487b7100000000000000000000000000000000000000000000000000000000600052603260045260246000fd5b015460086001600581106118fb577f4e487b7100000000000000000000000000000000000000000000000000000000600052603260045260246000fd5b01546008600260058110611938577f4e487b7100000000000000000000000000000000000000000000000000000000600052603260045260246000fd5b01546008600360058110611975577f4e487b7100000000000000000000000000000000000000000000000000000000600052603260045260246000fd5b015460086004600581106119b2577f4e487b7100000000000000000000000000000000000000000000000000000000600052603260045260246000fd5b0154600d546040516119c99695949392919061450d565b60405180910390a160028060010160006101000a81548160ff021916908360ff16021790555060019250505090565b6000806002600001541415611a105760009050611a15565b600190505b90565b6000611a22613b94565b6000611a2c613b94565b6000851080611a3f575060118054905085115b15611a5557600081600093509350935050611b9f565b60118581548110611a8f577f4e487b7100000000000000000000000000000000000000000000000000000000600052603260045260246000fd5b906000526020600020906007020160000160009054906101000a900473ffffffffffffffffffffffffffffffffffffffff1660118681548110611afb577f4e487b7100000000000000000000000000000000000000000000000000000000600052603260045260246000fd5b906000526020600020906007020160010160118781548110611b46577f4e487b7100000000000000000000000000000000000000000000000000000000600052603260045260246000fd5b90600052602060002090600702016006015481600580602002604051908101604052809291908260058015611b90576020028201915b815481526020019060010190808311611b7c575b50505050509150935093509350505b9193909250565b3373ffffffffffffffffffffffffffffffffffffffff16600760009054906101000a900473ffffffffffffffffffffffffffffffffffffffff1673ffffffffffffffffffffffffffffffffffffffff1614611c36576040517f08c379a0000000000000000000000000000000000000000000000000000000008152600401611c2d906144ed565b60405180910390fd5b60008111611c79576040517f08c379a0000000000000000000000000000000000000000000000000000000008152600401611c70906144cd565b60405180910390fd5b60005b6008811015611ea15760005b82811015611e8d57611c98613bb6565b611ca26000613402565b611cac6000613418565b816000018181525050600183611cc291906148c4565b8160200181815250506000611cdf611cda6000613418565b613426565b611cec8360200151613426565b604051602001611cfd929190614324565b6040516020818303038152906040529050808260400181905250600f82908060018154018082558091505060019003906000526020600020906003020160009091909190915060008201518160000155602082015181600101556040820151816002019080519060200190611d73929190613bd7565b5050507fd9ce4229b2eea6ac3330e233aaa8f28667617e6473ff7b01c64e7934d1f3ebbe826000015183602001518460400151604051611db593929190614581565b60405180910390a1600e60009054906101000a900473ffffffffffffffffffffffffffffffffffffffff1673ffffffffffffffffffffffffffffffffffffffff1663d3fc9864600760009054906101000a900473ffffffffffffffffffffffffffffffffffffffff16846000015185604001516040518463ffffffff1660e01b8152600401611e4693929190614410565b600060405180830381600087803b158015611e6057600080fd5b505af1158015611e74573d6000803e3d6000fd5b5050505050508080611e8590614aaf565b915050611c88565b508080611e9990614aaf565b915050611c7c565b5050565b611ead613c5d565b6000821080611ec0575060128054905082115b15611f00576040518060600160405280600073ffffffffffffffffffffffffffffffffffffffff1681526020016000815260200160008152509050611fc0565b60128281548110611f3a577f4e487b7100000000000000000000000000000000000000000000000000000000600052603260045260246000fd5b90600052602060002090600302016040518060600160405290816000820160009054906101000a900473ffffffffffffffffffffffffffffffffffffffff1673ffffffffffffffffffffffffffffffffffffffff1673ffffffffffffffffffffffffffffffffffffffff1681526020016001820154815260200160028201548152505090505b919050565b60006002600001819055506000600260010160006101000a81548160ff021916908360ff16021790555060006002800181905550565b60003373ffffffffffffffffffffffffffffffffffffffff16600760009054906101000a900473ffffffffffffffffffffffffffffffffffffffff1673ffffffffffffffffffffffffffffffffffffffff161461208d576040517f08c379a0000000000000000000000000000000000000000000000000000000008152600401612084906144ed565b60405180910390fd5b600060026000015414806120d357506005546002800154436120af91906149a5565b101580156120d257506003600260010160009054906101000a900460ff1660ff16145b5b612112576040517f08c379a00000000000000000000000000000000000000000000000000000000081526004016121099061477b565b60405180910390fd5b601260006121209190613c94565b600160026000015461213291906148c4565b6002600001819055506001600260010160006101000a81548160ff021916908360ff1602179055504360028001819055507fa8d2c21d589b7d639121c8460ba488844d6c62d64035b1c2248cba87c1118ddc600260000154600260010160009054906101000a900460ff1660028001546040516121b19392919061466e565b60405180910390a16121c16135d3565b6001905090565b6121d0613cb8565b6121d8613cb8565b6121e0613b94565b6121e861363e565b90506040518060c001604052808260006005811061222f577f4e487b7100000000000000000000000000000000000000000000000000000000600052603260045260246000fd5b6020020151815260200182600160058110612273577f4e487b7100000000000000000000000000000000000000000000000000000000600052603260045260246000fd5b60200201518152602001826002600581106122b7577f4e487b7100000000000000000000000000000000000000000000000000000000600052603260045260246000fd5b60200201518152602001826003600581106122fb577f4e487b7100000000000000000000000000000000000000000000000000000000600052603260045260246000fd5b602002015181526020018260046005811061233f577f4e487b7100000000000000000000000000000000000000000000000000000000600052603260045260246000fd5b60200201518152602001600d548152509150819250505090565b3373ffffffffffffffffffffffffffffffffffffffff16600760009054906101000a900473ffffffffffffffffffffffffffffffffffffffff1673ffffffffffffffffffffffffffffffffffffffff16146123e9576040517f08c379a00000000000000000000000000000000000000000000000000000000081526004016123e0906144ed565b60405180910390fd5b60007f19a99ed74cffaee0111e4498be3165a1b5b49f9195bf4ab475e1d132dd7f1e63600260000154600260010160009054906101000a900460ff166002800154604051612439939291906147f1565b60405180910390a16001600260010160009054906101000a900460ff1660ff16141561299c577f28382a7cabca04d64465d80343fef5f9aa47f162cc9bad43c5c8ddd2db89ea234760405161248e91906147d6565b60405180910390a17fef4f526af5a28bf7196270c7e8fd679574029e4f58ff2bd2f75cf9b7893c5066600760009054906101000a900473ffffffffffffffffffffffffffffffffffffffff16600760009054906101000a900473ffffffffffffffffffffffffffffffffffffffff1673ffffffffffffffffffffffffffffffffffffffff16316040516125229291906143e7565b60405180910390a160005b60118054905081101561284d577fdde93ab87fc63630cb2edd79b57c019ec349bc541407bc5c89b9bc700c0dc82d60118281548110612595577f4e487b7100000000000000000000000000000000000000000000000000000000600052603260045260246000fd5b906000526020600020906007020160000160009054906101000a900473ffffffffffffffffffffffffffffffffffffffff1660118381548110612601577f4e487b7100000000000000000000000000000000000000000000000000000000600052603260045260246000fd5b906000526020600020906007020160000160009054906101000a900473ffffffffffffffffffffffffffffffffffffffff1673ffffffffffffffffffffffffffffffffffffffff16316040516126589291906143e7565b60405180910390a16011818154811061269a577f4e487b7100000000000000000000000000000000000000000000000000000000600052603260045260246000fd5b906000526020600020906007020160000160009054906101000a900473ffffffffffffffffffffffffffffffffffffffff1673ffffffffffffffffffffffffffffffffffffffff166108fc6001549081150290604051600060405180830381858888f19350505050158015612713573d6000803e3d6000fd5b507f3350bae9e4194d05ab0c575d951f34efac5437f59d7b031502451a2bb12352786011828154811061276f577f4e487b7100000000000000000000000000000000000000000000000000000000600052603260045260246000fd5b906000526020600020906007020160000160009054906101000a900473ffffffffffffffffffffffffffffffffffffffff16601183815481106127db577f4e487b7100000000000000000000000000000000000000000000000000000000600052603260045260246000fd5b906000526020600020906007020160000160009054906101000a900473ffffffffffffffffffffffffffffffffffffffff1673ffffffffffffffffffffffffffffffffffffffff16316040516128329291906143e7565b60405180910390a1808061284590614aaf565b91505061252d565b507f6883c54c7c75e23fcb8795839fc456fae154d99dfd2516999afaef86dffc30094760405161287d91906147d6565b60405180910390a17f5bbcc44e3087d119ba2a6e6fb5600c90f149a787dce36e41415680a26fadf1ab600760009054906101000a900473ffffffffffffffffffffffffffffffffffffffff16600760009054906101000a900473ffffffffffffffffffffffffffffffffffffffff1673ffffffffffffffffffffffffffffffffffffffff16316040516129119291906143e7565b60405180910390a161292161397f565b6003600260010160006101000a81548160ff021916908360ff1602179055507f652cbaf7d5247f2b8b1602dcf4624da7b603fca5b536016ba1b7ec8a866381ec600260000154600260010160009054906101000a900460ff16600280015460405161298e939291906147f1565b60405180910390a150612f0b565b60028060010160009054906101000a900460ff1660ff161415612c59576129c161045d565b506011805490506001546129d5919061494b565b90507f28382a7cabca04d64465d80343fef5f9aa47f162cc9bad43c5c8ddd2db89ea2347604051612a0691906147d6565b60405180910390a17fef4f526af5a28bf7196270c7e8fd679574029e4f58ff2bd2f75cf9b7893c5066600760009054906101000a900473ffffffffffffffffffffffffffffffffffffffff16600760009054906101000a900473ffffffffffffffffffffffffffffffffffffffff1673ffffffffffffffffffffffffffffffffffffffff1631604051612a9a9291906143e7565b60405180910390a1600760009054906101000a900473ffffffffffffffffffffffffffffffffffffffff1673ffffffffffffffffffffffffffffffffffffffff166108fc829081150290604051600060405180830381858888f19350505050158015612b0a573d6000803e3d6000fd5b507f6883c54c7c75e23fcb8795839fc456fae154d99dfd2516999afaef86dffc300947604051612b3a91906147d6565b60405180910390a17f5bbcc44e3087d119ba2a6e6fb5600c90f149a787dce36e41415680a26fadf1ab600760009054906101000a900473ffffffffffffffffffffffffffffffffffffffff16600760009054906101000a900473ffffffffffffffffffffffffffffffffffffffff1673ffffffffffffffffffffffffffffffffffffffff1631604051612bce9291906143e7565b60405180910390a1612bde61397f565b6003600260010160006101000a81548160ff021916908360ff1602179055507f652cbaf7d5247f2b8b1602dcf4624da7b603fca5b536016ba1b7ec8a866381ec600260000154600260010160009054906101000a900460ff166002800154604051612c4b939291906147f1565b60405180910390a150612f0b565b6003600260010160009054906101000a900460ff1660ff161415612f09577f28382a7cabca04d64465d80343fef5f9aa47f162cc9bad43c5c8ddd2db89ea2347604051612ca691906147d6565b60405180910390a17fef4f526af5a28bf7196270c7e8fd679574029e4f58ff2bd2f75cf9b7893c5066600760009054906101000a900473ffffffffffffffffffffffffffffffffffffffff16600760009054906101000a900473ffffffffffffffffffffffffffffffffffffffff1673ffffffffffffffffffffffffffffffffffffffff1631604051612d3a9291906143e7565b60405180910390a1601180549050600154612d55919061494b565b9050600760009054906101000a900473ffffffffffffffffffffffffffffffffffffffff1673ffffffffffffffffffffffffffffffffffffffff166108fc829081150290604051600060405180830381858888f19350505050158015612dbf573d6000803e3d6000fd5b507f6883c54c7c75e23fcb8795839fc456fae154d99dfd2516999afaef86dffc300947604051612def91906147d6565b60405180910390a17f5bbcc44e3087d119ba2a6e6fb5600c90f149a787dce36e41415680a26fadf1ab600760009054906101000a900473ffffffffffffffffffffffffffffffffffffffff16600760009054906101000a900473ffffffffffffffffffffffffffffffffffffffff1673ffffffffffffffffffffffffffffffffffffffff1631604051612e839291906143e7565b60405180910390a1612e9361397f565b6003600260010160006101000a81548160ff021916908360ff1602179055507f652cbaf7d5247f2b8b1602dcf4624da7b603fca5b536016ba1b7ec8a866381ec600260000154600260010160009054906101000a900460ff166002800154604051612f00939291906147f1565b60405180910390a15b505b565b60008060009050600584148015612f215750825b15612f2b57600190505b600584148015612f39575082155b15612f4357600290505b600484148015612f505750825b15612f5a57600390505b600484148015612f68575082155b80612f7c5750600384148015612f7b5750825b5b15612f8657600490505b600384148015612f94575082155b80612fa85750600284148015612fa75750825b5b15612fb257600590505b600284148015612fc0575082155b80612fd45750600184148015612fd35750825b5b15612fde57600690505b600184148015612fec575082155b15612ff657600790505b6000841480156130035750825b1561300d57600890505b8091505092915050565b3373ffffffffffffffffffffffffffffffffffffffff16600760009054906101000a900473ffffffffffffffffffffffffffffffffffffffff1673ffffffffffffffffffffffffffffffffffffffff16146130a7576040517f08c379a000000000000000000000000000000000000000000000000000000000815260040161309e906144ed565b60405180910390fd5b600082116130ea576040517f08c379a00000000000000000000000000000000000000000000000000000000081526004016130e1906144cd565b60405180910390fd5b600181101580156130fc575060088111155b61313b576040517f08c379a00000000000000000000000000000000000000000000000000000000081526004016131329061479b565b60405180910390fd5b60005b828110156133375761314e613bb6565b6131586000613402565b6131626000613418565b8160000181815250508281602001818152505060006131896131846000613418565b613426565b6131968360200151613426565b6040516020016131a7929190614324565b6040516020818303038152906040529050808260400181905250600f8290806001815401808255809150506001900390600052602060002090600302016000909190919091506000820151816000015560208201518160010155604082015181600201908051906020019061321d929190613bd7565b5050507fd9ce4229b2eea6ac3330e233aaa8f28667617e6473ff7b01c64e7934d1f3ebbe82600001518360200151846040015160405161325f93929190614581565b60405180910390a1600e60009054906101000a900473ffffffffffffffffffffffffffffffffffffffff1673ffffffffffffffffffffffffffffffffffffffff1663d3fc9864600760009054906101000a900473ffffffffffffffffffffffffffffffffffffffff16846000015185604001516040518463ffffffff1660e01b81526004016132f093929190614410565b600060405180830381600087803b15801561330a57600080fd5b505af115801561331e573d6000803e3d6000fd5b505050505050808061332f90614aaf565b91505061313e565b505050565b600080600654600554600280015461335491906148c4565b61335e91906148c4565b90506000814084604051602001613376929190614484565b60405160208183030381529060405280519060200120905060008160001c9050809350505050919050565b6000806000905082156133ce576001601a856133bd9190614af8565b6133c791906148c4565b90506133ea565b60016045856133dd9190614af8565b6133e791906148c4565b90505b60008114156133f857600190505b8091505092915050565b6001816000016000828254019250508190555050565b600081600001549050919050565b6060600082141561346e576040518060400160405280600181526020017f300000000000000000000000000000000000000000000000000000000000000081525090506135ce565b600082905060005b600082146134a057808061348990614aaf565b915050600a82613499919061491a565b9150613476565b60008167ffffffffffffffff8111156134e2577f4e487b7100000000000000000000000000000000000000000000000000000000600052604160045260246000fd5b6040519080825280601f01601f1916602001820160405280156135145781602001600182028036833780820191505090505b5090505b600085146135c75760018261352d91906149a5565b9150600a8561353c9190614af8565b603061354891906148c4565b60f81b818381518110613584577f4e487b7100000000000000000000000000000000000000000000000000000000600052603260045260246000fd5b60200101907effffffffffffffffffffffffffffffffffffffffffffffffffffffffffffff1916908160001a905350600a856135c0919061491a565b9450613518565b8093505050505b919050565b60005b60058110156136335760006008826005811061361b577f4e487b7100000000000000000000000000000000000000000000000000000000600052603260045260246000fd5b0181905550808061362b90614aaf565b9150506135d6565b506000600d81905550565b613646613b94565b60006040518060a00160405280600860006005811061368e577f4e487b7100000000000000000000000000000000000000000000000000000000600052603260045260246000fd5b0154815260200160086001600581106136d0577f4e487b7100000000000000000000000000000000000000000000000000000000600052603260045260246000fd5b015481526020016008600260058110613712577f4e487b7100000000000000000000000000000000000000000000000000000000600052603260045260246000fd5b015481526020016008600360058110613754577f4e487b7100000000000000000000000000000000000000000000000000000000600052603260045260246000fd5b015481526020016008600460058110613796577f4e487b7100000000000000000000000000000000000000000000000000000000600052603260045260246000fd5b01548152509050600080600090505b60058110156139765760006001826137bd91906148c4565b90505b600581101561396257838160058110613802577f4e487b7100000000000000000000000000000000000000000000000000000000600052603260045260246000fd5b6020020151848360058110613840577f4e487b7100000000000000000000000000000000000000000000000000000000600052603260045260246000fd5b6020020151111561394f57838260058110613884577f4e487b7100000000000000000000000000000000000000000000000000000000600052603260045260246000fd5b602002015192508381600581106138c4577f4e487b7100000000000000000000000000000000000000000000000000000000600052603260045260246000fd5b6020020151848360058110613902577f4e487b7100000000000000000000000000000000000000000000000000000000600052603260045260246000fd5b60200201818152505082848260058110613945577f4e487b7100000000000000000000000000000000000000000000000000000000600052603260045260246000fd5b6020020181815250505b808061395a90614aaf565b9150506137c0565b50808061396e90614aaf565b9150506137a5565b50819250505090565b60005b60058110156139df576000600882600581106139c7577f4e487b7100000000000000000000000000000000000000000000000000000000600052603260045260246000fd5b018190555080806139d790614aaf565b915050613982565b506000600d81905550601060006139f69190613af6565b60116000613a049190613cda565b565b604051806101000160405280600890602082028036833780820191505090505090565b828054613a3590614a7d565b90600052602060002090601f016020900481019282613a575760008555613aa5565b82601f10613a685780548555613aa5565b82800160010185558215613aa557600052602060002091601f016020900482015b82811115613aa4578254825591600101919060010190613a89565b5b509050613ab29190613cfe565b5090565b508054613ac290614a7d565b6000825580601f10613ad45750613af3565b601f016020900490600052602060002090810190613af29190613cfe565b5b50565b5080546000825590600052602060002090810190613b149190613cfe565b50565b6040518060600160405280600073ffffffffffffffffffffffffffffffffffffffff168152602001613b47613b94565b8152602001600081525090565b8260058101928215613b83579160200282015b82811115613b82578251825591602001919060010190613b67565b5b509050613b909190613cfe565b5090565b6040518060a00160405280600590602082028036833780820191505090505090565b60405180606001604052806000815260200160008152602001606081525090565b828054613be390614a7d565b90600052602060002090601f016020900481019282613c055760008555613c4c565b82601f10613c1e57805160ff1916838001178555613c4c565b82800160010185558215613c4c579182015b82811115613c4b578251825591602001919060010190613c30565b5b509050613c599190613cfe565b5090565b6040518060600160405280600073ffffffffffffffffffffffffffffffffffffffff16815260200160008152602001600081525090565b5080546000825560030290600052602060002090810190613cb59190613d1b565b50565b6040518060c00160405280600690602082028036833780820191505090505090565b5080546000825560070290600052602060002090810190613cfb9190613d69565b50565b5b80821115613d17576000816000905550600101613cff565b5090565b5b80821115613d6557600080820160006101000a81549073ffffffffffffffffffffffffffffffffffffffff02191690556001820160009055600282016000905550600301613d1c565b5090565b5b80821115613dbb57600080820160006101000a81549073ffffffffffffffffffffffffffffffffffffffff0219169055600182016000613daa9190613dbf565b600682016000905550600701613d6a565b5090565b506000815560010160008155600101600081556001016000815560010160009055565b600081359050613df181614fd6565b92915050565b600081359050613e0681614fed565b92915050565b600060208284031215613e1e57600080fd5b6000613e2c84828501613de2565b91505092915050565b600060208284031215613e4757600080fd5b6000613e5584828501613df7565b91505092915050565b60008060008060008060c08789031215613e7757600080fd5b6000613e8589828a01613df7565b9650506020613e9689828a01613df7565b9550506040613ea789828a01613df7565b9450506060613eb889828a01613df7565b9350506080613ec989828a01613df7565b92505060a0613eda89828a01613df7565b9150509295509295509295565b6000613ef383836142e8565b60208301905092915050565b613f08816149d9565b82525050565b613f17816149d9565b82525050565b613f2681614857565b613f308184614892565b9250613f3b82614843565b8060005b83811015613f6c578151613f538782613ee7565b9650613f5e83614878565b925050600181019050613f3f565b505050505050565b613f7d81614862565b613f87818461489d565b9250613f928261484d565b8060005b83811015613fc3578151613faa8782613ee7565b9650613fb583614885565b925050600181019050613f96565b505050505050565b613fd4816149eb565b82525050565b613fe3816149f7565b82525050565b6000613ff48261486d565b613ffe81856148a8565b935061400e818560208601614a4a565b61401781614bb6565b840191505092915050565b600061402d8261486d565b61403781856148b9565b9350614047818560208601614a4a565b80840191505092915050565b6000614060603e836148a8565b915061406b82614bc7565b604082019050919050565b60006140836011836148b9565b915061408e82614c16565b601182019050919050565b60006140a6601a836148a8565b91506140b182614c3f565b602082019050919050565b60006140c96015836148a8565b91506140d482614c68565b602082019050919050565b60006140ec600e836148a8565b91506140f782614c91565b602082019050919050565b600061410f600a836148a8565b915061411a82614cba565b602082019050919050565b60006141326039836148a8565b915061413d82614ce3565b604082019050919050565b6000614155600e836148a8565b915061416082614d32565b602082019050919050565b60006141786036836148a8565b915061418382614d5b565b604082019050919050565b600061419b607d836148a8565b91506141a682614daa565b608082019050919050565b60006141be6009836148a8565b91506141c982614e45565b602082019050919050565b60006141e16009836148b9565b91506141ec82614e6e565b600982019050919050565b6000614204600d836148a8565b915061420f82614e97565b602082019050919050565b6000614227601a836148a8565b915061423282614ec0565b602082019050919050565b600061424a6031836148a8565b915061425582614ee9565b604082019050919050565b600061426d602f836148a8565b915061427882614f38565b604082019050919050565b60006142906024836148a8565b915061429b82614f87565b604082019050919050565b6060820160008201516142bc6000850182613eff565b5060208201516142cf60208501826142e8565b5060408201516142e260408501826142e8565b50505050565b6142f181614a21565b82525050565b61430081614a21565b82525050565b61430f81614a38565b82525050565b61431e81614a2b565b82525050565b600061432f82614076565b915061433b8285614022565b9150614346826141d4565b91506143528284614022565b91508190509392505050565b60006020820190506143736000830184613f0e565b92915050565b600060608201905061438e6000830186613f0e565b61439b6020830185613f0e565b6143a860408301846142f7565b949350505050565b600060e0820190506143c56000830186613f0e565b6143d26020830185613f1d565b6143df60c08301846142f7565b949350505050565b60006040820190506143fc6000830185613f0e565b61440960208301846142f7565b9392505050565b60006060820190506144256000830186613f0e565b61443260208301856142f7565b81810360408301526144448184613fe9565b9050949350505050565b600060c0820190506144636000830184613f74565b92915050565b600060208201905061447e6000830184613fcb565b92915050565b60006040820190506144996000830185613fda565b6144a660208301846142f7565b9392505050565b600060208201905081810360008301526144c681614053565b9050919050565b600060208201905081810360008301526144e681614099565b9050919050565b60006020820190508181036000830152614506816140bc565b9050919050565b600060e0820190508181036000830152614526816140df565b905061453560208301896142f7565b61454260408301886142f7565b61454f60608301876142f7565b61455c60808301866142f7565b61456960a08301856142f7565b61457660c08301846142f7565b979650505050505050565b6000608082019050818103600083015261459a81614102565b90506145a960208301866142f7565b6145b660408301856142f7565b81810360608301526145c88184613fe9565b9050949350505050565b600060208201905081810360008301526145eb81614125565b9050919050565b6000606082019050818103600083015261460b81614148565b905061461a6020830185613f0e565b61462760408301846142f7565b9392505050565b600060208201905081810360008301526146478161416b565b9050919050565b600060208201905081810360008301526146678161418e565b9050919050565b60006080820190508181036000830152614687816141b1565b905061469660208301866142f7565b6146a36040830185614306565b6146b060608301846142f7565b949350505050565b60006101008201905081810360008301526146d2816141f7565b90506146e1602083018a613f0e565b6146ee60408301896142f7565b6146fb60608301886142f7565b61470860808301876142f7565b61471560a08301866142f7565b61472260c08301856142f7565b61472f60e08301846142f7565b98975050505050505050565b600060208201905081810360008301526147548161421a565b9050919050565b600060208201905081810360008301526147748161423d565b9050919050565b6000602082019050818103600083015261479481614260565b9050919050565b600060208201905081810360008301526147b481614283565b9050919050565b60006060820190506147d060008301846142a6565b92915050565b60006020820190506147eb60008301846142f7565b92915050565b600060608201905061480660008301866142f7565b6148136020830185614306565b61482060408301846142f7565b949350505050565b600060208201905061483d6000830184614315565b92915050565b6000819050919050565b6000819050919050565b600060059050919050565b600060069050919050565b600081519050919050565b6000602082019050919050565b6000602082019050919050565b600081905092915050565b600081905092915050565b600082825260208201905092915050565b600081905092915050565b60006148cf82614a21565b91506148da83614a21565b9250827fffffffffffffffffffffffffffffffffffffffffffffffffffffffffffffffff0382111561490f5761490e614b29565b5b828201905092915050565b600061492582614a21565b915061493083614a21565b9250826149405761493f614b58565b5b828204905092915050565b600061495682614a21565b915061496183614a21565b9250817fffffffffffffffffffffffffffffffffffffffffffffffffffffffffffffffff048311821515161561499a57614999614b29565b5b828202905092915050565b60006149b082614a21565b91506149bb83614a21565b9250828210156149ce576149cd614b29565b5b828203905092915050565b60006149e482614a01565b9050919050565b60008115159050919050565b6000819050919050565b600073ffffffffffffffffffffffffffffffffffffffff82169050919050565b6000819050919050565b600060ff82169050919050565b6000614a4382614a2b565b9050919050565b60005b83811015614a68578082015181840152602081019050614a4d565b83811115614a77576000848401525b50505050565b60006002820490506001821680614a9557607f821691505b60208210811415614aa957614aa8614b87565b5b50919050565b6000614aba82614a21565b91507fffffffffffffffffffffffffffffffffffffffffffffffffffffffffffffffff821415614aed57614aec614b29565b5b600182019050919050565b6000614b0382614a21565b9150614b0e83614a21565b925082614b1e57614b1d614b58565b5b828206905092915050565b7f4e487b7100000000000000000000000000000000000000000000000000000000600052601160045260246000fd5b7f4e487b7100000000000000000000000000000000000000000000000000000000600052601260045260246000fd5b7f4e487b7100000000000000000000000000000000000000000000000000000000600052602260045260246000fd5b6000601f19601f8301169050919050565b7f4572726f723a206c6f747465727920726f756e64206973206e6f74206163746960008201527f76652c20696d706f737369626c6520746f20627579207469636b657473210000602082015250565b7f436f6e74656e74206f6620546f6b656e20000000000000000000000000000000600082015250565b7f4572726f723a206e206d75737420626520706f73697469766521000000000000600082015250565b7f4572726f723a206e6f7420617574686f72697a65640000000000000000000000600082015250565b7f57696e6e696e67207469636b6574000000000000000000000000000000000000600082015250565b7f4d696e746564204e465400000000000000000000000000000000000000000000600082015250565b7f4572726f723a20696e76616c6964206c6f74746572792073746174652c20696d60008201527f706f737369626c6520746f2064726177206e756d626572732100000000000000602082015250565b7f41737369676e6564207072697a65000000000000000000000000000000000000600082015250565b7f4572726f723a2077726f6e6720726f756e642073746174652c20696d706f737360008201527f69626c6520746f2061737369676e207072697a65732100000000000000000000602082015250565b7f4572726f723a20696e76616c6964206c6f7474657279206e756d626572732e2060008201527f5468652066697273742066697665206e756d62657273206d757374206265206260208201527f65747765656e203120616e64203639207768696c652074686520706f7765726260408201527f616c6c206d757374206265206265747765656e203120616e6420323621000000606082015250565b7f4e657720526f756e640000000000000000000000000000000000000000000000600082015250565b7f206f662072616e6b200000000000000000000000000000000000000000000000600082015250565b7f5469636b657420626f7567687400000000000000000000000000000000000000600082015250565b7f4572726f723a20696e73756666696369656e742066756e647321000000000000600082015250565b7f4572726f723a206e756d62657273206d75737420626520646966666572656e7460008201527f2066726f6d2065616368206f7468657221000000000000000000000000000000602082015250565b7f4572726f723a20696d706f737369626c6520746f2073746172742061206e657760008201527f206c6f747465727920726f756e64210000000000000000000000000000000000602082015250565b7f4572726f723a2072616e6b206d757374206265206265747765656e203120616e60008201527f6420382100000000000000000000000000000000000000000000000000000000602082015250565b614fdf816149d9565b8114614fea57600080fd5b50565b614ff681614a21565b811461500157600080fd5b5056fea264697066735822122023a89781e62f1bb3a7f1d55f05951d2c3f1172cde041c1693c63a25a27de572864736f6c63430008030033a264697066735822122006d768129e813d8572aa8761ac775b958f937fd650cf101b3bd6d013157d8cf964736f6c63430008030033",
  "immutableReferences": {},
  "source": "// SPDX-License-Identifier: MIT\n// OpenZeppelin Contracts (last updated v4.6.0) (token/ERC721/ERC721.sol)\n\npragma solidity ^0.8.0;\n\nimport \"./LotteryGame.sol\";\nimport \"./Lottery.sol\";\n\ncontract Deployer {\n    uint256 price = 10; //ticket price in wei\n    uint256 M = 2; // duration of a round (n blocks)\n    uint256 K = 2; //paramater for random number generator\n    address public lottery_operator;\n    address public nft_address;\n    LotteryGame item;\n    Lottery lottery;\n\n    constructor(address nft_addr, address lottery_op) {\n        nft_address = nft_addr;\n        lottery_operator = lottery_op;\n    }\n\n    function getLotteryAddress() public view returns (address) {\n        return address(lottery);\n    }\n\n    function createLottery() public returns (address) {\n        lottery = new Lottery(price, M, K, nft_address, lottery_operator);\n        return address(lottery);\n    }\n}\n",
  "sourcePath": "/home/fcarli/Scrivania/lottery/contracts/Deployer.sol",
  "compiler": {
    "name": "solc",
    "version": "0.8.3+commit.8d00100c.Emscripten.clang"
  },
  "schemaVersion": "3.4.7",
  "updatedAt": "2022-07-06T08:00:34.004Z",
  "networkType": "ethereum",
  "devdoc": {
    "kind": "dev",
    "methods": {},
    "version": 1
  },
  "userdoc": {
    "kind": "user",
    "methods": {},
    "version": 1
  }
}