{
  "contractName": "Lottery",
  "abi": [
    {
      "inputs": [
        {
          "internalType": "uint256",
          "name": "price_",
          "type": "uint256"
        },
        {
          "internalType": "uint256",
          "name": "M_",
          "type": "uint256"
        },
        {
          "internalType": "uint256",
          "name": "K_",
          "type": "uint256"
        },
        {
          "internalType": "address",
          "name": "lottery_address",
          "type": "address"
        }
      ],
      "stateMutability": "nonpayable",
      "type": "constructor"
    },
    {
      "anonymous": false,
      "inputs": [
        {
          "indexed": false,
          "internalType": "bool",
          "name": "assigned",
          "type": "bool"
        }
      ],
      "name": "AssignedPrizes",
      "type": "event"
    },
    {
      "anonymous": false,
      "inputs": [
        {
          "indexed": false,
          "internalType": "uint256",
          "name": "tot",
          "type": "uint256"
        }
      ],
      "name": "BalanceContractAfterClosing",
      "type": "event"
    },
    {
      "anonymous": false,
      "inputs": [
        {
          "indexed": false,
          "internalType": "uint256",
          "name": "tot",
          "type": "uint256"
        }
      ],
      "name": "BalanceContractBeforeClosing",
      "type": "event"
    },
    {
      "anonymous": false,
      "inputs": [
        {
          "indexed": false,
          "internalType": "address",
          "name": "op",
          "type": "address"
        },
        {
          "indexed": false,
          "internalType": "uint256",
          "name": "tot",
          "type": "uint256"
        }
      ],
      "name": "BalanceOpAfterClosing",
      "type": "event"
    },
    {
      "anonymous": false,
      "inputs": [
        {
          "indexed": false,
          "internalType": "address",
          "name": "op",
          "type": "address"
        },
        {
          "indexed": false,
          "internalType": "uint256",
          "name": "tot",
          "type": "uint256"
        }
      ],
      "name": "BalanceOpBeforeClosing",
      "type": "event"
    },
    {
      "anonymous": false,
      "inputs": [
        {
          "indexed": false,
          "internalType": "address",
          "name": "player",
          "type": "address"
        },
        {
          "indexed": false,
          "internalType": "uint256",
          "name": "tot",
          "type": "uint256"
        }
      ],
      "name": "BalancePlayerAfterRefund",
      "type": "event"
    },
    {
      "anonymous": false,
      "inputs": [
        {
          "indexed": false,
          "internalType": "address",
          "name": "player",
          "type": "address"
        },
        {
          "indexed": false,
          "internalType": "uint256",
          "name": "tot",
          "type": "uint256"
        }
      ],
      "name": "BalancePlayerBeforeRefund",
      "type": "event"
    },
    {
      "anonymous": false,
      "inputs": [
        {
          "indexed": false,
          "internalType": "string",
          "name": "str",
          "type": "string"
        },
        {
          "indexed": false,
          "internalType": "uint256",
          "name": "id",
          "type": "uint256"
        },
        {
          "indexed": false,
          "internalType": "uint256",
          "name": "rank",
          "type": "uint256"
        },
        {
          "indexed": false,
          "internalType": "string",
          "name": "content",
          "type": "string"
        }
      ],
      "name": "Collectible",
      "type": "event"
    },
    {
      "anonymous": false,
      "inputs": [
        {
          "indexed": false,
          "internalType": "string",
          "name": "str",
          "type": "string"
        }
      ],
      "name": "LotteryCreation",
      "type": "event"
    },
    {
      "anonymous": false,
      "inputs": [
        {
          "indexed": false,
          "internalType": "string",
          "name": "str",
          "type": "string"
        },
        {
          "indexed": false,
          "internalType": "address",
          "name": "dst",
          "type": "address"
        },
        {
          "indexed": false,
          "internalType": "uint256",
          "name": "id_",
          "type": "uint256"
        }
      ],
      "name": "Prize",
      "type": "event"
    },
    {
      "anonymous": false,
      "inputs": [
        {
          "indexed": false,
          "internalType": "string",
          "name": "str",
          "type": "string"
        },
        {
          "indexed": false,
          "internalType": "uint256",
          "name": "round_number",
          "type": "uint256"
        },
        {
          "indexed": false,
          "internalType": "uint256",
          "name": "round_state",
          "type": "uint256"
        },
        {
          "indexed": false,
          "internalType": "uint256",
          "name": "round_start",
          "type": "uint256"
        }
      ],
      "name": "Round",
      "type": "event"
    },
    {
      "anonymous": false,
      "inputs": [
        {
          "indexed": false,
          "internalType": "uint256",
          "name": "round_num",
          "type": "uint256"
        },
        {
          "indexed": false,
          "internalType": "uint256",
          "name": "round_st",
          "type": "uint256"
        },
        {
          "indexed": false,
          "internalType": "uint256",
          "name": "round_sb",
          "type": "uint256"
        }
      ],
      "name": "RoundAfterClosing",
      "type": "event"
    },
    {
      "anonymous": false,
      "inputs": [
        {
          "indexed": false,
          "internalType": "uint256",
          "name": "round_num",
          "type": "uint256"
        },
        {
          "indexed": false,
          "internalType": "uint256",
          "name": "round_st",
          "type": "uint256"
        },
        {
          "indexed": false,
          "internalType": "uint256",
          "name": "round_sb",
          "type": "uint256"
        }
      ],
      "name": "RoundBeforeClosing",
      "type": "event"
    },
    {
      "anonymous": false,
      "inputs": [
        {
          "indexed": false,
          "internalType": "string",
          "name": "str",
          "type": "string"
        },
        {
          "indexed": false,
          "internalType": "address",
          "name": "player",
          "type": "address"
        },
        {
          "indexed": false,
          "internalType": "uint256",
          "name": "number1",
          "type": "uint256"
        },
        {
          "indexed": false,
          "internalType": "uint256",
          "name": "number2",
          "type": "uint256"
        },
        {
          "indexed": false,
          "internalType": "uint256",
          "name": "number3",
          "type": "uint256"
        },
        {
          "indexed": false,
          "internalType": "uint256",
          "name": "number4",
          "type": "uint256"
        },
        {
          "indexed": false,
          "internalType": "uint256",
          "name": "number5",
          "type": "uint256"
        },
        {
          "indexed": false,
          "internalType": "uint256",
          "name": "powerball",
          "type": "uint256"
        }
      ],
      "name": "Ticket",
      "type": "event"
    },
    {
      "anonymous": false,
      "inputs": [
        {
          "indexed": false,
          "internalType": "string",
          "name": "str",
          "type": "string"
        },
        {
          "indexed": false,
          "internalType": "uint256",
          "name": "n1",
          "type": "uint256"
        },
        {
          "indexed": false,
          "internalType": "uint256",
          "name": "n2",
          "type": "uint256"
        },
        {
          "indexed": false,
          "internalType": "uint256",
          "name": "n3",
          "type": "uint256"
        },
        {
          "indexed": false,
          "internalType": "uint256",
          "name": "n4",
          "type": "uint256"
        },
        {
          "indexed": false,
          "internalType": "uint256",
          "name": "n5",
          "type": "uint256"
        },
        {
          "indexed": false,
          "internalType": "uint256",
          "name": "n6",
          "type": "uint256"
        }
      ],
      "name": "WinningTicket",
      "type": "event"
    },
    {
      "inputs": [],
      "name": "getLotteryBalance",
      "outputs": [
        {
          "internalType": "uint256",
          "name": "",
          "type": "uint256"
        }
      ],
      "stateMutability": "view",
      "type": "function",
      "constant": true
    },
    {
      "inputs": [],
      "name": "getLotteryState",
      "outputs": [
        {
          "internalType": "bool",
          "name": "",
          "type": "bool"
        }
      ],
      "stateMutability": "view",
      "type": "function",
      "constant": true
    },
    {
      "inputs": [],
      "name": "getLotteryRound",
      "outputs": [
        {
          "internalType": "uint256",
          "name": "",
          "type": "uint256"
        }
      ],
      "stateMutability": "view",
      "type": "function",
      "constant": true
    },
    {
      "inputs": [],
      "name": "getLotteryRoundState",
      "outputs": [
        {
          "internalType": "uint8",
          "name": "",
          "type": "uint8"
        }
      ],
      "stateMutability": "view",
      "type": "function",
      "constant": true
    },
    {
      "inputs": [],
      "name": "resetLotteryRound",
      "outputs": [],
      "stateMutability": "nonpayable",
      "type": "function"
    },
    {
      "inputs": [],
      "name": "getLotteryOperator",
      "outputs": [
        {
          "internalType": "address",
          "name": "",
          "type": "address"
        }
      ],
      "stateMutability": "view",
      "type": "function",
      "constant": true
    },
    {
      "inputs": [],
      "name": "getNumNFT",
      "outputs": [
        {
          "internalType": "uint256",
          "name": "",
          "type": "uint256"
        }
      ],
      "stateMutability": "view",
      "type": "function",
      "constant": true
    },
    {
      "inputs": [
        {
          "internalType": "uint256",
          "name": "id",
          "type": "uint256"
        }
      ],
      "name": "getNFT",
      "outputs": [
        {
          "internalType": "string",
          "name": "",
          "type": "string"
        }
      ],
      "stateMutability": "view",
      "type": "function",
      "constant": true
    },
    {
      "inputs": [],
      "name": "getNumTickets",
      "outputs": [
        {
          "internalType": "uint256",
          "name": "",
          "type": "uint256"
        }
      ],
      "stateMutability": "view",
      "type": "function",
      "constant": true
    },
    {
      "inputs": [
        {
          "internalType": "address",
          "name": "addr",
          "type": "address"
        }
      ],
      "name": "getNumBoughtTickets",
      "outputs": [
        {
          "internalType": "uint256",
          "name": "",
          "type": "uint256"
        }
      ],
      "stateMutability": "view",
      "type": "function",
      "constant": true
    },
    {
      "inputs": [
        {
          "internalType": "uint256",
          "name": "id",
          "type": "uint256"
        }
      ],
      "name": "getTicket",
      "outputs": [
        {
          "internalType": "address",
          "name": "",
          "type": "address"
        },
        {
          "internalType": "uint256[5]",
          "name": "",
          "type": "uint256[5]"
        },
        {
          "internalType": "uint256",
          "name": "",
          "type": "uint256"
        }
      ],
      "stateMutability": "view",
      "type": "function",
      "constant": true
    },
    {
      "inputs": [],
      "name": "getDrawnNumbers",
      "outputs": [
        {
          "internalType": "uint256[6]",
          "name": "",
          "type": "uint256[6]"
        }
      ],
      "stateMutability": "view",
      "type": "function",
      "constant": true
    },
    {
      "inputs": [],
      "name": "getNumAssignedPrizes",
      "outputs": [
        {
          "internalType": "uint256",
          "name": "",
          "type": "uint256"
        }
      ],
      "stateMutability": "view",
      "type": "function",
      "constant": true
    },
    {
      "inputs": [
        {
          "internalType": "uint256",
          "name": "id",
          "type": "uint256"
        }
      ],
      "name": "getAssignedPrize",
      "outputs": [
        {
          "components": [
            {
              "internalType": "address",
              "name": "winner",
              "type": "address"
            },
            {
              "internalType": "uint256",
              "name": "rank",
              "type": "uint256"
            },
            {
              "internalType": "uint256",
              "name": "prize",
              "type": "uint256"
            }
          ],
          "internalType": "struct Lottery.Winner",
          "name": "",
          "type": "tuple"
        }
      ],
      "stateMutability": "view",
      "type": "function",
      "constant": true
    },
    {
      "inputs": [],
      "name": "createLottery",
      "outputs": [],
      "stateMutability": "nonpayable",
      "type": "function"
    },
    {
      "inputs": [],
      "name": "startNewRound",
      "outputs": [
        {
          "internalType": "bool",
          "name": "",
          "type": "bool"
        }
      ],
      "stateMutability": "nonpayable",
      "type": "function"
    },
    {
      "inputs": [
        {
          "internalType": "uint256",
          "name": "n1",
          "type": "uint256"
        },
        {
          "internalType": "uint256",
          "name": "n2",
          "type": "uint256"
        },
        {
          "internalType": "uint256",
          "name": "n3",
          "type": "uint256"
        },
        {
          "internalType": "uint256",
          "name": "n4",
          "type": "uint256"
        },
        {
          "internalType": "uint256",
          "name": "n5",
          "type": "uint256"
        },
        {
          "internalType": "uint256",
          "name": "n6",
          "type": "uint256"
        }
      ],
      "name": "buy",
      "outputs": [
        {
          "internalType": "bool",
          "name": "",
          "type": "bool"
        }
      ],
      "stateMutability": "payable",
      "type": "function",
      "payable": true
    },
    {
      "inputs": [],
      "name": "drawNumbers",
      "outputs": [
        {
          "internalType": "bool",
          "name": "",
          "type": "bool"
        }
      ],
      "stateMutability": "nonpayable",
      "type": "function"
    },
    {
      "inputs": [],
      "name": "givePrizes",
      "outputs": [
        {
          "internalType": "bool",
          "name": "",
          "type": "bool"
        }
      ],
      "stateMutability": "nonpayable",
      "type": "function"
    },
    {
      "inputs": [
        {
          "internalType": "uint256",
          "name": "n",
          "type": "uint256"
        }
      ],
      "name": "mint",
      "outputs": [],
      "stateMutability": "nonpayable",
      "type": "function"
    },
    {
      "inputs": [],
      "name": "closeRound",
      "outputs": [],
      "stateMutability": "nonpayable",
      "type": "function"
    }
  ],
  "bytecode": "0x60806040523480156200001157600080fd5b506040516200523e3803806200523e833981810160405281019062000037919062000229565b600084116200004e57600a60018190555062000056565b836001819055505b600083116200006d57600a60058190555062000075565b826005819055505b600082116200008c57607b60068190555062000094565b816006819055505b604051806060016040528060008152602001600060ff168152602001600081525060026000820151816000015560208201518160010160006101000a81548160ff021916908360ff1602179055506040820151816002015590505033600760006101000a81548173ffffffffffffffffffffffffffffffffffffffff021916908373ffffffffffffffffffffffffffffffffffffffff160217905550620001406200018b60201b60201c565b80600e60006101000a81548173ffffffffffffffffffffffffffffffffffffffff021916908373ffffffffffffffffffffffffffffffffffffffff1602179055505050505062000384565b60005b6005811015620001f057600060088260058110620001d5577f4e487b7100000000000000000000000000000000000000000000000000000000600052603260045260246000fd5b01819055508080620001e790620002d3565b9150506200018e565b506000600d81905550565b6000815190506200020c8162000350565b92915050565b60008151905062000223816200036a565b92915050565b600080600080608085870312156200024057600080fd5b6000620002508782880162000212565b9450506020620002638782880162000212565b9350506040620002768782880162000212565b92505060606200028987828801620001fb565b91505092959194509250565b6000620002a282620002a9565b9050919050565b600073ffffffffffffffffffffffffffffffffffffffff82169050919050565b6000819050919050565b6000620002e082620002c9565b91507fffffffffffffffffffffffffffffffffffffffffffffffffffffffffffffffff82141562000316576200031562000321565b5b600182019050919050565b7f4e487b7100000000000000000000000000000000000000000000000000000000600052601160045260246000fd5b6200035b8162000295565b81146200036757600080fd5b50565b6200037581620002c9565b81146200038157600080fd5b50565b614eaa80620003946000396000f3fe60806040526004361061012a5760003560e01c806360654e47116100ab578063a34df21e1161006f578063a34df21e146103ef578063b3c2fc781461042c578063bd85948c14610443578063dc7682fc1461046e578063e278fe6f14610499578063ea660a24146104b05761012a565b806360654e4714610306578063676c902f146103315780636b68c03c1461035c5780637dc379fa14610387578063a0712d68146103c65761012a565b806339bafeac116100f257806339bafeac1461021857806345ce691a14610243578063576f7ea71461027357806359a920cd146102b057806359e4a1c7146102db5761012a565b806306d5ee541461012f5780630b5adfff1461015a578063164595e3146101855780632064563f146101c257806332fad343146101ed575b600080fd5b34801561013b57600080fd5b506101446104c7565b604051610151919061426a565b60405180910390f35b34801561016657600080fd5b5061016f611086565b60405161017c91906145f0565b60405180910390f35b34801561019157600080fd5b506101ac60048036038101906101a79190613bf9565b611093565b6040516101b991906145f0565b60405180910390f35b3480156101ce57600080fd5b506101d7611175565b6040516101e4919061415f565b60405180910390f35b3480156101f957600080fd5b5061020261119f565b60405161020f91906145f0565b60405180910390f35b34801561022457600080fd5b5061022d6111ac565b60405161023a91906145f0565b60405180910390f35b61025d60048036038101906102589190613c4b565b6111b9565b60405161026a919061426a565b60405180910390f35b34801561027f57600080fd5b5061029a60048036038101906102959190613c22565b6116da565b6040516102a79190614285565b60405180910390f35b3480156102bc57600080fd5b506102c561186e565b6040516102d29190614679565b60405180910390f35b3480156102e757600080fd5b506102f0611888565b6040516102fd91906145f0565b60405180910390f35b34801561031257600080fd5b5061031b611895565b60405161032891906145f0565b60405180910390f35b34801561033d57600080fd5b5061034661189d565b604051610353919061426a565b60405180910390f35b34801561036857600080fd5b50610371611be9565b60405161037e919061426a565b60405180910390f35b34801561039357600080fd5b506103ae60048036038101906103a99190613c22565b611c09565b6040516103bd939291906141b1565b60405180910390f35b3480156103d257600080fd5b506103ed60048036038101906103e89190613c22565b611d97565b005b3480156103fb57600080fd5b5061041660048036038101906104119190613c22565b612096565b60405161042391906145d5565b60405180910390f35b34801561043857600080fd5b506104416121b6565b005b34801561044f57600080fd5b506104586121ec565b604051610465919061426a565b60405180910390f35b34801561047a57600080fd5b506104836123ab565b604051610490919061424f565b60405180910390f35b3480156104a557600080fd5b506104ae6124a6565b005b3480156104bc57600080fd5b506104c5612f70565b005b60003373ffffffffffffffffffffffffffffffffffffffff16600760009054906101000a900473ffffffffffffffffffffffffffffffffffffffff1673ffffffffffffffffffffffffffffffffffffffff1614610559576040517f08c379a000000000000000000000000000000000000000000000000000000000815260040161055090614307565b60405180910390fd5b60028060010160009054906101000a900460ff1660ff16146105b0576040517f08c379a00000000000000000000000000000000000000000000000000000000081526004016105a790614448565b60405180910390fd5b60005b6011805490508110156108a05760008060005b60058110156106dd5760005b60058110156106c95760088160058110610615577f4e487b7100000000000000000000000000000000000000000000000000000000600052603260045260246000fd5b015460118681548110610651577f4e487b7100000000000000000000000000000000000000000000000000000000600052603260045260246000fd5b9060005260206000209060070201600101836005811061069a577f4e487b7100000000000000000000000000000000000000000000000000000000600052603260045260246000fd5b015414156106b6576001846106af9190614715565b93506106c9565b80806106c1906148f6565b9150506105d2565b5080806106d5906148f6565b9150506105c6565b50600d546011848154811061071b577f4e487b7100000000000000000000000000000000000000000000000000000000600052603260045260246000fd5b906000526020600020906007020160060154141561073857600190505b600082118061074b575060011515811515145b1561088b57600061075c8383613037565b905060006040518060600160405280601187815481106107a5577f4e487b7100000000000000000000000000000000000000000000000000000000600052603260045260246000fd5b906000526020600020906007020160000160009054906101000a900473ffffffffffffffffffffffffffffffffffffffff1673ffffffffffffffffffffffffffffffffffffffff16815260200183815260200160008152509050601281908060018154018082558091505060019003906000526020600020906003020160009091909190915060008201518160000160006101000a81548173ffffffffffffffffffffffffffffffffffffffff021916908373ffffffffffffffffffffffffffffffffffffffff1602179055506020820151816001015560408201518160020155505050505b50508080610898906148f6565b9150506105b3565b506108a96137f3565b60005b600881101561090c5760008282600881106108f0577f4e487b7100000000000000000000000000000000000000000000000000000000600052603260045260246000fd5b6020020181815250508080610904906148f6565b9150506108ac565b5060005b6012805490508110156109dc57600060128281548110610959577f4e487b7100000000000000000000000000000000000000000000000000000000600052603260045260246000fd5b90600052602060002090600302016001015490508260018261097b91906147f6565b600881106109b2577f4e487b7100000000000000000000000000000000000000000000000000000000600052603260045260246000fd5b6020020180518091906109c4906148f6565b815250505080806109d4906148f6565b915050610910565b5060005b6008811015610a655760006001826109f89190614715565b90506000838360088110610a35577f4e487b7100000000000000000000000000000000000000000000000000000000600052603260045260246000fd5b602002015190506000811115610a5057610a4f8183613141565b5b50508080610a5d906148f6565b9150506109e0565b5060005b60128054905081101561102657600060128281548110610ab2577f4e487b7100000000000000000000000000000000000000000000000000000000600052603260045260246000fd5b906000526020600020906003020160010154905060005b600f80549050811015610bb15781600f8281548110610b11577f4e487b7100000000000000000000000000000000000000000000000000000000600052603260045260246000fd5b9060005260206000209060030201600101541415610b9e576010600f8281548110610b65577f4e487b7100000000000000000000000000000000000000000000000000000000600052603260045260246000fd5b90600052602060002090600302016000015490806001815401808255809150506001900390600052602060002001600090919091909150555b8080610ba9906148f6565b915050610ac9565b5060008243610bc09190614715565b90506000610bcd82613466565b9050600060108054905082610be2919061493f565b9050600060108281548110610c20577f4e487b7100000000000000000000000000000000000000000000000000000000600052603260045260246000fd5b906000526020600020015490508060128781548110610c68577f4e487b7100000000000000000000000000000000000000000000000000000000600052603260045260246000fd5b906000526020600020906003020160020181905550600e60009054906101000a900473ffffffffffffffffffffffffffffffffffffffff1673ffffffffffffffffffffffffffffffffffffffff166342842e0e600760009054906101000a900473ffffffffffffffffffffffffffffffffffffffff1660128981548110610d18577f4e487b7100000000000000000000000000000000000000000000000000000000600052603260045260246000fd5b906000526020600020906003020160000160009054906101000a900473ffffffffffffffffffffffffffffffffffffffff16846040518463ffffffff1660e01b8152600401610d699392919061417a565b600060405180830381600087803b158015610d8357600080fd5b505af1158015610d97573d6000803e3d6000fd5b5050505060005b600f80549050811015610f5b5781600f8281548110610de6577f4e487b7100000000000000000000000000000000000000000000000000000000600052603260045260246000fd5b9060005260206000209060030201600001541415610f4857600f6001600f80549050610e1291906147f6565b81548110610e49577f4e487b7100000000000000000000000000000000000000000000000000000000600052603260045260246000fd5b9060005260206000209060030201600f8281548110610e91577f4e487b7100000000000000000000000000000000000000000000000000000000600052603260045260246000fd5b906000526020600020906003020160008201548160000155600182015481600101556002820181600201908054610ec7906148c4565b610ed2929190613816565b50905050600f805480610f0e577f4e487b7100000000000000000000000000000000000000000000000000000000600052603160045260246000fd5b60019003818190600052602060002090600302016000808201600090556001820160009055600282016000610f4391906138a3565b505090555b8080610f53906148f6565b915050610d9e565b507ff14045014153c13a3fea5d1fdb4dd2fa03d3876f5e4757c7f3160f498982a81260128781548110610fb7577f4e487b7100000000000000000000000000000000000000000000000000000000600052603260045260246000fd5b906000526020600020906003020160000160009054906101000a900473ffffffffffffffffffffffffffffffffffffffff1682604051610ff892919061440c565b60405180910390a16010600061100e91906138e3565b5050505050808061101e906148f6565b915050610a69565b507f833130ea6c81d4b44cda5cb7c548cba190a734346a172a08b96003e97b3638e16001604051611057919061426a565b60405180910390a16003600260010160006101000a81548160ff021916908360ff160217905550600191505090565b6000601180549050905090565b6000806000905060005b60118054905081101561116b578373ffffffffffffffffffffffffffffffffffffffff16601182815481106110fb577f4e487b7100000000000000000000000000000000000000000000000000000000600052603260045260246000fd5b906000526020600020906007020160000160009054906101000a900473ffffffffffffffffffffffffffffffffffffffff1673ffffffffffffffffffffffffffffffffffffffff161415611158578180611154906148f6565b9250505b8080611163906148f6565b91505061109d565b5080915050919050565b6000600760009054906101000a900473ffffffffffffffffffffffffffffffffffffffff16905090565b6000601280549050905090565b6000600260000154905090565b6000600187101580156111cd575060458711155b80156111e75750600186101580156111e6575060458611155b5b8015611201575060018510158015611200575060458511155b5b801561121b57506001841015801561121a575060458411155b5b8015611235575060018310158015611234575060458311155b5b801561124f57506001821015801561124e5750601a8211155b5b61128e576040517f08c379a000000000000000000000000000000000000000000000000000000000815260040161128590614468565b60405180910390fd5b85871415801561129e5750848714155b80156112aa5750838714155b80156112b65750828714155b80156112c25750848614155b80156112ce5750838614155b80156112da5750828614155b80156112e65750838514155b80156112f25750828514155b80156112fe5750828414155b61133d576040517f08c379a000000000000000000000000000000000000000000000000000000000815260040161133490614575565b60405180910390fd5b6001600260010160009054906101000a900460ff1660ff1614611395576040517f08c379a000000000000000000000000000000000000000000000000000000000815260040161138c906142a7565b60405180910390fd5b6001543410156113da576040517f08c379a00000000000000000000000000000000000000000000000000000000081526004016113d190614555565b60405180910390fd5b6113e2613904565b33816000019073ffffffffffffffffffffffffffffffffffffffff16908173ffffffffffffffffffffffffffffffffffffffff1681525050878160200151600060058110611459577f4e487b7100000000000000000000000000000000000000000000000000000000600052603260045260246000fd5b6020020181815250508681602001516001600581106114a1577f4e487b7100000000000000000000000000000000000000000000000000000000600052603260045260246000fd5b6020020181815250508581602001516002600581106114e9577f4e487b7100000000000000000000000000000000000000000000000000000000600052603260045260246000fd5b602002018181525050848160200151600360058110611531577f4e487b7100000000000000000000000000000000000000000000000000000000600052603260045260246000fd5b602002018181525050838160200151600460058110611579577f4e487b7100000000000000000000000000000000000000000000000000000000600052603260045260246000fd5b602002018181525050828160400181815250507fcfd2fb7aa48f24f16ea37c0083ab7d7208dfb1154494cb88660cdbc0d11db6ff338989898989896040516115c797969594939291906144d2565b60405180910390a1601181908060018154018082558091505060019003906000526020600020906007020160009091909190915060008201518160000160006101000a81548173ffffffffffffffffffffffffffffffffffffffff021916908373ffffffffffffffffffffffffffffffffffffffff160217905550602082015181600101906005611659929190613941565b506040820151816006015550506001543411156116cb5760006001543461168091906147f6565b90503373ffffffffffffffffffffffffffffffffffffffff166108fc829081150290604051600060405180830381858888f193505050501580156116c8573d6000803e3d6000fd5b50505b60019150509695505050505050565b6060600060405180602001604052806000815250905060008310806117045750600f805490508310155b156117125780915050611869565b60005b600f8054905081101561186357600f818154811061175c577f4e487b7100000000000000000000000000000000000000000000000000000000600052603260045260246000fd5b90600052602060002090600302016000015484141561185057600f81815481106117af577f4e487b7100000000000000000000000000000000000000000000000000000000600052603260045260246000fd5b906000526020600020906003020160020180546117cb906148c4565b80601f01602080910402602001604051908101604052809291908181526020018280546117f7906148c4565b80156118445780601f1061181957610100808354040283529160200191611844565b820191906000526020600020905b81548152906001019060200180831161182757829003601f168201915b50505050509150611863565b808061185b906148f6565b915050611715565b50809150505b919050565b6000600260010160009054906101000a900460ff16905090565b6000600f80549050905090565b600047905090565b60003373ffffffffffffffffffffffffffffffffffffffff16600760009054906101000a900473ffffffffffffffffffffffffffffffffffffffff1673ffffffffffffffffffffffffffffffffffffffff161461192f576040517f08c379a000000000000000000000000000000000000000000000000000000000815260040161192690614307565b60405180910390fd5b6001600260010160009054906101000a900460ff1660ff16148015611965575060055460028001544361196291906147f6565b10155b6119a4576040517f08c379a000000000000000000000000000000000000000000000000000000000815260040161199b906143ec565b60405180910390fd5b60008060005b6006811015611a525780436119bf9190614715565b925060006119cc84613466565b905060058214156119f0576119e28160016134c1565b925082600d81905550611a3e565b6119fb8160006134c1565b92508260088360058110611a38577f4e487b7100000000000000000000000000000000000000000000000000000000600052603260045260246000fd5b01819055505b508080611a4a906148f6565b9150506119aa565b507f121bb129376efc920002fc0064b06d77546684806b40cfda9663f5e2ed7b4e276008600060058110611aaf577f4e487b7100000000000000000000000000000000000000000000000000000000600052603260045260246000fd5b01546008600160058110611aec577f4e487b7100000000000000000000000000000000000000000000000000000000600052603260045260246000fd5b01546008600260058110611b29577f4e487b7100000000000000000000000000000000000000000000000000000000600052603260045260246000fd5b01546008600360058110611b66577f4e487b7100000000000000000000000000000000000000000000000000000000600052603260045260246000fd5b01546008600460058110611ba3577f4e487b7100000000000000000000000000000000000000000000000000000000600052603260045260246000fd5b0154600d54604051611bba96959493929190614327565b60405180910390a160028060010160006101000a81548160ff021916908360ff16021790555060019250505090565b6000806002600001541415611c015760009050611c06565b600190505b90565b6000611c13613981565b6000611c1d613981565b6000851080611c30575060118054905085115b15611c4657600081600093509350935050611d90565b60118581548110611c80577f4e487b7100000000000000000000000000000000000000000000000000000000600052603260045260246000fd5b906000526020600020906007020160000160009054906101000a900473ffffffffffffffffffffffffffffffffffffffff1660118681548110611cec577f4e487b7100000000000000000000000000000000000000000000000000000000600052603260045260246000fd5b906000526020600020906007020160010160118781548110611d37577f4e487b7100000000000000000000000000000000000000000000000000000000600052603260045260246000fd5b90600052602060002090600702016006015481600580602002604051908101604052809291908260058015611d81576020028201915b815481526020019060010190808311611d6d575b50505050509150935093509350505b9193909250565b3373ffffffffffffffffffffffffffffffffffffffff16600760009054906101000a900473ffffffffffffffffffffffffffffffffffffffff1673ffffffffffffffffffffffffffffffffffffffff1614611e27576040517f08c379a0000000000000000000000000000000000000000000000000000000008152600401611e1e90614307565b60405180910390fd5b60008111611e6a576040517f08c379a0000000000000000000000000000000000000000000000000000000008152600401611e61906142c7565b60405180910390fd5b60005b60088110156120925760005b8281101561207e57611e896139a3565b611e936000613522565b611e9d6000613538565b816000018181525050600183611eb39190614715565b8160200181815250506000611ed0611ecb6000613538565b613546565b611edd8360200151613546565b604051602001611eee929190614125565b6040516020818303038152906040529050808260400181905250600f82908060018154018082558091505060019003906000526020600020906003020160009091909190915060008201518160000155602082015181600101556040820151816002019080519060200190611f649291906139c4565b5050507fd9ce4229b2eea6ac3330e233aaa8f28667617e6473ff7b01c64e7934d1f3ebbe826000015183602001518460400151604051611fa69392919061439b565b60405180910390a1600e60009054906101000a900473ffffffffffffffffffffffffffffffffffffffff1673ffffffffffffffffffffffffffffffffffffffff1663d3fc9864600760009054906101000a900473ffffffffffffffffffffffffffffffffffffffff16846000015185604001516040518463ffffffff1660e01b815260040161203793929190614211565b600060405180830381600087803b15801561205157600080fd5b505af1158015612065573d6000803e3d6000fd5b5050505050508080612076906148f6565b915050611e79565b50808061208a906148f6565b915050611e6d565b5050565b61209e613a4a565b60008210806120b1575060128054905082115b156120f1576040518060600160405280600073ffffffffffffffffffffffffffffffffffffffff16815260200160008152602001600081525090506121b1565b6012828154811061212b577f4e487b7100000000000000000000000000000000000000000000000000000000600052603260045260246000fd5b90600052602060002090600302016040518060600160405290816000820160009054906101000a900473ffffffffffffffffffffffffffffffffffffffff1673ffffffffffffffffffffffffffffffffffffffff1673ffffffffffffffffffffffffffffffffffffffff1681526020016001820154815260200160028201548152505090505b919050565b60006002600001819055506000600260010160006101000a81548160ff021916908360ff16021790555060006002800181905550565b60003373ffffffffffffffffffffffffffffffffffffffff16600760009054906101000a900473ffffffffffffffffffffffffffffffffffffffff1673ffffffffffffffffffffffffffffffffffffffff161461227e576040517f08c379a000000000000000000000000000000000000000000000000000000000815260040161227590614307565b60405180910390fd5b600060026000015414806122c457506005546002800154436122a091906147f6565b101580156122c357506003600260010160009054906101000a900460ff1660ff16145b5b612303576040517f08c379a00000000000000000000000000000000000000000000000000000000081526004016122fa90614595565b60405180910390fd5b60016002600001546123159190614715565b6002600001819055506001600260010160006101000a81548160ff021916908360ff1602179055504360028001819055507fa8d2c21d589b7d639121c8460ba488844d6c62d64035b1c2248cba87c1118ddc600260000154600260010160009054906101000a900460ff16600280015460405161239493929190614488565b60405180910390a16123a46136f3565b6001905090565b6123b3613a81565b6123bb613a81565b60005b60058110156124585760088160058110612401577f4e487b7100000000000000000000000000000000000000000000000000000000600052603260045260246000fd5b015482826006811061243c577f4e487b7100000000000000000000000000000000000000000000000000000000600052603260045260246000fd5b6020020181815250508080612450906148f6565b9150506123be565b50600d5481600560068110612496577f4e487b7100000000000000000000000000000000000000000000000000000000600052603260045260246000fd5b6020020181815250508091505090565b3373ffffffffffffffffffffffffffffffffffffffff16600760009054906101000a900473ffffffffffffffffffffffffffffffffffffffff1673ffffffffffffffffffffffffffffffffffffffff1614612536576040517f08c379a000000000000000000000000000000000000000000000000000000000815260040161252d90614307565b60405180910390fd5b60007f19a99ed74cffaee0111e4498be3165a1b5b49f9195bf4ab475e1d132dd7f1e63600260000154600260010160009054906101000a900460ff16600280015460405161258693929190614642565b60405180910390a16001600260010160009054906101000a900460ff1660ff161415612a1e577f28382a7cabca04d64465d80343fef5f9aa47f162cc9bad43c5c8ddd2db89ea23476040516125db91906145f0565b60405180910390a17fef4f526af5a28bf7196270c7e8fd679574029e4f58ff2bd2f75cf9b7893c5066600760009054906101000a900473ffffffffffffffffffffffffffffffffffffffff16600760009054906101000a900473ffffffffffffffffffffffffffffffffffffffff1673ffffffffffffffffffffffffffffffffffffffff163160405161266f9291906141e8565b60405180910390a160005b60118054905081101561299a577fdde93ab87fc63630cb2edd79b57c019ec349bc541407bc5c89b9bc700c0dc82d601182815481106126e2577f4e487b7100000000000000000000000000000000000000000000000000000000600052603260045260246000fd5b906000526020600020906007020160000160009054906101000a900473ffffffffffffffffffffffffffffffffffffffff166011838154811061274e577f4e487b7100000000000000000000000000000000000000000000000000000000600052603260045260246000fd5b906000526020600020906007020160000160009054906101000a900473ffffffffffffffffffffffffffffffffffffffff1673ffffffffffffffffffffffffffffffffffffffff16316040516127a59291906141e8565b60405180910390a1601181815481106127e7577f4e487b7100000000000000000000000000000000000000000000000000000000600052603260045260246000fd5b906000526020600020906007020160000160009054906101000a900473ffffffffffffffffffffffffffffffffffffffff1673ffffffffffffffffffffffffffffffffffffffff166108fc6001549081150290604051600060405180830381858888f19350505050158015612860573d6000803e3d6000fd5b507f3350bae9e4194d05ab0c575d951f34efac5437f59d7b031502451a2bb1235278601182815481106128bc577f4e487b7100000000000000000000000000000000000000000000000000000000600052603260045260246000fd5b906000526020600020906007020160000160009054906101000a900473ffffffffffffffffffffffffffffffffffffffff1660118381548110612928577f4e487b7100000000000000000000000000000000000000000000000000000000600052603260045260246000fd5b906000526020600020906007020160000160009054906101000a900473ffffffffffffffffffffffffffffffffffffffff1673ffffffffffffffffffffffffffffffffffffffff163160405161297f9291906141e8565b60405180910390a18080612992906148f6565b91505061267a565b506129a361375e565b6003600260010160006101000a81548160ff021916908360ff1602179055507f652cbaf7d5247f2b8b1602dcf4624da7b603fca5b536016ba1b7ec8a866381ec600260000154600260010160009054906101000a900460ff166002800154604051612a1093929190614642565b60405180910390a150612f6e565b60028060010160009054906101000a900460ff1660ff161415612cdb57612a436104c7565b50601180549050600154612a57919061479c565b90507f28382a7cabca04d64465d80343fef5f9aa47f162cc9bad43c5c8ddd2db89ea2347604051612a8891906145f0565b60405180910390a17fef4f526af5a28bf7196270c7e8fd679574029e4f58ff2bd2f75cf9b7893c5066600760009054906101000a900473ffffffffffffffffffffffffffffffffffffffff16600760009054906101000a900473ffffffffffffffffffffffffffffffffffffffff1673ffffffffffffffffffffffffffffffffffffffff1631604051612b1c9291906141e8565b60405180910390a1600760009054906101000a900473ffffffffffffffffffffffffffffffffffffffff1673ffffffffffffffffffffffffffffffffffffffff166108fc829081150290604051600060405180830381858888f19350505050158015612b8c573d6000803e3d6000fd5b507f6883c54c7c75e23fcb8795839fc456fae154d99dfd2516999afaef86dffc300947604051612bbc91906145f0565b60405180910390a17f5bbcc44e3087d119ba2a6e6fb5600c90f149a787dce36e41415680a26fadf1ab600760009054906101000a900473ffffffffffffffffffffffffffffffffffffffff16600760009054906101000a900473ffffffffffffffffffffffffffffffffffffffff1673ffffffffffffffffffffffffffffffffffffffff1631604051612c509291906141e8565b60405180910390a1612c6061375e565b6003600260010160006101000a81548160ff021916908360ff1602179055507f652cbaf7d5247f2b8b1602dcf4624da7b603fca5b536016ba1b7ec8a866381ec600260000154600260010160009054906101000a900460ff166002800154604051612ccd93929190614642565b60405180910390a150612f6e565b7f28382a7cabca04d64465d80343fef5f9aa47f162cc9bad43c5c8ddd2db89ea2347604051612d0a91906145f0565b60405180910390a17fef4f526af5a28bf7196270c7e8fd679574029e4f58ff2bd2f75cf9b7893c5066600760009054906101000a900473ffffffffffffffffffffffffffffffffffffffff16600760009054906101000a900473ffffffffffffffffffffffffffffffffffffffff1673ffffffffffffffffffffffffffffffffffffffff1631604051612d9e9291906141e8565b60405180910390a1601180549050600154612db9919061479c565b9050600760009054906101000a900473ffffffffffffffffffffffffffffffffffffffff1673ffffffffffffffffffffffffffffffffffffffff166108fc829081150290604051600060405180830381858888f19350505050158015612e23573d6000803e3d6000fd5b50612e2c61375e565b6003600260010160006101000a81548160ff021916908360ff1602179055507f652cbaf7d5247f2b8b1602dcf4624da7b603fca5b536016ba1b7ec8a866381ec600260000154600260010160009054906101000a900460ff166002800154604051612e9993929190614642565b60405180910390a17f6883c54c7c75e23fcb8795839fc456fae154d99dfd2516999afaef86dffc300947604051612ed091906145f0565b60405180910390a17f5bbcc44e3087d119ba2a6e6fb5600c90f149a787dce36e41415680a26fadf1ab600760009054906101000a900473ffffffffffffffffffffffffffffffffffffffff16600760009054906101000a900473ffffffffffffffffffffffffffffffffffffffff1673ffffffffffffffffffffffffffffffffffffffff1631604051612f649291906141e8565b60405180910390a1505b565b3373ffffffffffffffffffffffffffffffffffffffff16600760009054906101000a900473ffffffffffffffffffffffffffffffffffffffff1673ffffffffffffffffffffffffffffffffffffffff1614613000576040517f08c379a0000000000000000000000000000000000000000000000000000000008152600401612ff790614307565b60405180910390fd5b7f1867606477db6e447f8b22e1328c575623ce73e66bdc59e6b969d029f4e2b4f960405161302d906142e7565b60405180910390a1565b6000806000905060058414801561304b5750825b1561305557600190505b600584148015613063575082155b1561306d57600290505b60048414801561307a5750825b1561308457600390505b600484148015613092575082155b806130a657506003841480156130a55750825b5b156130b057600490505b6003841480156130be575082155b806130d257506002841480156130d15750825b5b156130dc57600590505b6002841480156130ea575082155b806130fe57506001841480156130fd5750825b5b1561310857600690505b600184148015613116575082155b1561312057600790505b60008414801561312d5750825b1561313757600890505b8091505092915050565b3373ffffffffffffffffffffffffffffffffffffffff16600760009054906101000a900473ffffffffffffffffffffffffffffffffffffffff1673ffffffffffffffffffffffffffffffffffffffff16146131d1576040517f08c379a00000000000000000000000000000000000000000000000000000000081526004016131c890614307565b60405180910390fd5b60008211613214576040517f08c379a000000000000000000000000000000000000000000000000000000000815260040161320b906142c7565b60405180910390fd5b60018110158015613226575060088111155b613265576040517f08c379a000000000000000000000000000000000000000000000000000000000815260040161325c906145b5565b60405180910390fd5b60005b82811015613461576132786139a3565b6132826000613522565b61328c6000613538565b8160000181815250508281602001818152505060006132b36132ae6000613538565b613546565b6132c08360200151613546565b6040516020016132d1929190614125565b6040516020818303038152906040529050808260400181905250600f829080600181540180825580915050600190039060005260206000209060030201600090919091909150600082015181600001556020820151816001015560408201518160020190805190602001906133479291906139c4565b5050507fd9ce4229b2eea6ac3330e233aaa8f28667617e6473ff7b01c64e7934d1f3ebbe8260000151836020015184604001516040516133899392919061439b565b60405180910390a1600e60009054906101000a900473ffffffffffffffffffffffffffffffffffffffff1673ffffffffffffffffffffffffffffffffffffffff1663d3fc9864600760009054906101000a900473ffffffffffffffffffffffffffffffffffffffff16846000015185604001516040518463ffffffff1660e01b815260040161341a93929190614211565b600060405180830381600087803b15801561343457600080fd5b505af1158015613448573d6000803e3d6000fd5b5050505050508080613459906148f6565b915050613268565b505050565b600080600554600280015461347b9190614715565b9050600081846006546040516020016134969392919061460b565b60405160208183030381529060405280519060200120905060008160001c9050809350505050919050565b6000806000905082156134ee576001601a856134dd919061493f565b6134e79190614715565b905061350a565b60016045856134fd919061493f565b6135079190614715565b90505b600081141561351857600190505b8091505092915050565b6001816000016000828254019250508190555050565b600081600001549050919050565b6060600082141561358e576040518060400160405280600181526020017f300000000000000000000000000000000000000000000000000000000000000081525090506136ee565b600082905060005b600082146135c05780806135a9906148f6565b915050600a826135b9919061476b565b9150613596565b60008167ffffffffffffffff811115613602577f4e487b7100000000000000000000000000000000000000000000000000000000600052604160045260246000fd5b6040519080825280601f01601f1916602001820160405280156136345781602001600182028036833780820191505090505b5090505b600085146136e75760018261364d91906147f6565b9150600a8561365c919061493f565b60306136689190614715565b60f81b8183815181106136a4577f4e487b7100000000000000000000000000000000000000000000000000000000600052603260045260246000fd5b60200101907effffffffffffffffffffffffffffffffffffffffffffffffffffffffffffff1916908160001a905350600a856136e0919061476b565b9450613638565b8093505050505b919050565b60005b60058110156137535760006008826005811061373b577f4e487b7100000000000000000000000000000000000000000000000000000000600052603260045260246000fd5b0181905550808061374b906148f6565b9150506136f6565b506000600d81905550565b60005b60058110156137be576000600882600581106137a6577f4e487b7100000000000000000000000000000000000000000000000000000000600052603260045260246000fd5b018190555080806137b6906148f6565b915050613761565b506000600d81905550601060006137d591906138e3565b601160006137e39190613aa3565b601260006137f19190613ac7565b565b604051806101000160405280600890602082028036833780820191505090505090565b828054613822906148c4565b90600052602060002090601f0160209004810192826138445760008555613892565b82601f106138555780548555613892565b8280016001018555821561389257600052602060002091601f016020900482015b82811115613891578254825591600101919060010190613876565b5b50905061389f9190613aeb565b5090565b5080546138af906148c4565b6000825580601f106138c157506138e0565b601f0160209004906000526020600020908101906138df9190613aeb565b5b50565b50805460008255906000526020600020908101906139019190613aeb565b50565b6040518060600160405280600073ffffffffffffffffffffffffffffffffffffffff168152602001613934613981565b8152602001600081525090565b8260058101928215613970579160200282015b8281111561396f578251825591602001919060010190613954565b5b50905061397d9190613aeb565b5090565b6040518060a00160405280600590602082028036833780820191505090505090565b60405180606001604052806000815260200160008152602001606081525090565b8280546139d0906148c4565b90600052602060002090601f0160209004810192826139f25760008555613a39565b82601f10613a0b57805160ff1916838001178555613a39565b82800160010185558215613a39579182015b82811115613a38578251825591602001919060010190613a1d565b5b509050613a469190613aeb565b5090565b6040518060600160405280600073ffffffffffffffffffffffffffffffffffffffff16815260200160008152602001600081525090565b6040518060c00160405280600690602082028036833780820191505090505090565b5080546000825560070290600052602060002090810190613ac49190613b08565b50565b5080546000825560030290600052602060002090810190613ae89190613b5e565b50565b5b80821115613b04576000816000905550600101613aec565b5090565b5b80821115613b5a57600080820160006101000a81549073ffffffffffffffffffffffffffffffffffffffff0219169055600182016000613b499190613bac565b600682016000905550600701613b09565b5090565b5b80821115613ba857600080820160006101000a81549073ffffffffffffffffffffffffffffffffffffffff02191690556001820160009055600282016000905550600301613b5f565b5090565b506000815560010160008155600101600081556001016000815560010160009055565b600081359050613bde81614e46565b92915050565b600081359050613bf381614e5d565b92915050565b600060208284031215613c0b57600080fd5b6000613c1984828501613bcf565b91505092915050565b600060208284031215613c3457600080fd5b6000613c4284828501613be4565b91505092915050565b60008060008060008060c08789031215613c6457600080fd5b6000613c7289828a01613be4565b9650506020613c8389828a01613be4565b9550506040613c9489828a01613be4565b9450506060613ca589828a01613be4565b9350506080613cb689828a01613be4565b92505060a0613cc789828a01613be4565b9150509295509295509295565b6000613ce083836140e9565b60208301905092915050565b613cf58161482a565b82525050565b613d048161482a565b82525050565b613d13816146a8565b613d1d81846146e3565b9250613d2882614694565b8060005b83811015613d59578151613d408782613cd4565b9650613d4b836146c9565b925050600181019050613d2c565b505050505050565b613d6a816146b3565b613d7481846146ee565b9250613d7f8261469e565b8060005b83811015613db0578151613d978782613cd4565b9650613da2836146d6565b925050600181019050613d83565b505050505050565b613dc18161483c565b82525050565b6000613dd2826146be565b613ddc81856146f9565b9350613dec818560208601614891565b613df5816149fd565b840191505092915050565b6000613e0b826146be565b613e15818561470a565b9350613e25818560208601614891565b80840191505092915050565b6000613e3e603e836146f9565b9150613e4982614a0e565b604082019050919050565b6000613e6160118361470a565b9150613e6c82614a5d565b601182019050919050565b6000613e84601a836146f9565b9150613e8f82614a86565b602082019050919050565b6000613ea7600f836146f9565b9150613eb282614aaf565b602082019050919050565b6000613eca6015836146f9565b9150613ed582614ad8565b602082019050919050565b6000613eed600e836146f9565b9150613ef882614b01565b602082019050919050565b6000613f10600a836146f9565b9150613f1b82614b2a565b602082019050919050565b6000613f336039836146f9565b9150613f3e82614b53565b604082019050919050565b6000613f56600e836146f9565b9150613f6182614ba2565b602082019050919050565b6000613f796036836146f9565b9150613f8482614bcb565b604082019050919050565b6000613f9c607d836146f9565b9150613fa782614c1a565b608082019050919050565b6000613fbf6009836146f9565b9150613fca82614cb5565b602082019050919050565b6000613fe260098361470a565b9150613fed82614cde565b600982019050919050565b6000614005600d836146f9565b915061401082614d07565b602082019050919050565b6000614028601a836146f9565b915061403382614d30565b602082019050919050565b600061404b6031836146f9565b915061405682614d59565b604082019050919050565b600061406e602f836146f9565b915061407982614da8565b604082019050919050565b60006140916024836146f9565b915061409c82614df7565b604082019050919050565b6060820160008201516140bd6000850182613cec565b5060208201516140d060208501826140e9565b5060408201516140e360408501826140e9565b50505050565b6140f281614868565b82525050565b61410181614868565b82525050565b6141108161487f565b82525050565b61411f81614872565b82525050565b600061413082613e54565b915061413c8285613e00565b915061414782613fd5565b91506141538284613e00565b91508190509392505050565b60006020820190506141746000830184613cfb565b92915050565b600060608201905061418f6000830186613cfb565b61419c6020830185613cfb565b6141a960408301846140f8565b949350505050565b600060e0820190506141c66000830186613cfb565b6141d36020830185613d0a565b6141e060c08301846140f8565b949350505050565b60006040820190506141fd6000830185613cfb565b61420a60208301846140f8565b9392505050565b60006060820190506142266000830186613cfb565b61423360208301856140f8565b81810360408301526142458184613dc7565b9050949350505050565b600060c0820190506142646000830184613d61565b92915050565b600060208201905061427f6000830184613db8565b92915050565b6000602082019050818103600083015261429f8184613dc7565b905092915050565b600060208201905081810360008301526142c081613e31565b9050919050565b600060208201905081810360008301526142e081613e77565b9050919050565b6000602082019050818103600083015261430081613e9a565b9050919050565b6000602082019050818103600083015261432081613ebd565b9050919050565b600060e082019050818103600083015261434081613ee0565b905061434f60208301896140f8565b61435c60408301886140f8565b61436960608301876140f8565b61437660808301866140f8565b61438360a08301856140f8565b61439060c08301846140f8565b979650505050505050565b600060808201905081810360008301526143b481613f03565b90506143c360208301866140f8565b6143d060408301856140f8565b81810360608301526143e28184613dc7565b9050949350505050565b6000602082019050818103600083015261440581613f26565b9050919050565b6000606082019050818103600083015261442581613f49565b90506144346020830185613cfb565b61444160408301846140f8565b9392505050565b6000602082019050818103600083015261446181613f6c565b9050919050565b6000602082019050818103600083015261448181613f8f565b9050919050565b600060808201905081810360008301526144a181613fb2565b90506144b060208301866140f8565b6144bd6040830185614107565b6144ca60608301846140f8565b949350505050565b60006101008201905081810360008301526144ec81613ff8565b90506144fb602083018a613cfb565b61450860408301896140f8565b61451560608301886140f8565b61452260808301876140f8565b61452f60a08301866140f8565b61453c60c08301856140f8565b61454960e08301846140f8565b98975050505050505050565b6000602082019050818103600083015261456e8161401b565b9050919050565b6000602082019050818103600083015261458e8161403e565b9050919050565b600060208201905081810360008301526145ae81614061565b9050919050565b600060208201905081810360008301526145ce81614084565b9050919050565b60006060820190506145ea60008301846140a7565b92915050565b600060208201905061460560008301846140f8565b92915050565b600060608201905061462060008301866140f8565b61462d60208301856140f8565b61463a60408301846140f8565b949350505050565b600060608201905061465760008301866140f8565b6146646020830185614107565b61467160408301846140f8565b949350505050565b600060208201905061468e6000830184614116565b92915050565b6000819050919050565b6000819050919050565b600060059050919050565b600060069050919050565b600081519050919050565b6000602082019050919050565b6000602082019050919050565b600081905092915050565b600081905092915050565b600082825260208201905092915050565b600081905092915050565b600061472082614868565b915061472b83614868565b9250827fffffffffffffffffffffffffffffffffffffffffffffffffffffffffffffffff038211156147605761475f614970565b5b828201905092915050565b600061477682614868565b915061478183614868565b9250826147915761479061499f565b5b828204905092915050565b60006147a782614868565b91506147b283614868565b9250817fffffffffffffffffffffffffffffffffffffffffffffffffffffffffffffffff04831182151516156147eb576147ea614970565b5b828202905092915050565b600061480182614868565b915061480c83614868565b92508282101561481f5761481e614970565b5b828203905092915050565b600061483582614848565b9050919050565b60008115159050919050565b600073ffffffffffffffffffffffffffffffffffffffff82169050919050565b6000819050919050565b600060ff82169050919050565b600061488a82614872565b9050919050565b60005b838110156148af578082015181840152602081019050614894565b838111156148be576000848401525b50505050565b600060028204905060018216806148dc57607f821691505b602082108114156148f0576148ef6149ce565b5b50919050565b600061490182614868565b91507fffffffffffffffffffffffffffffffffffffffffffffffffffffffffffffffff82141561493457614933614970565b5b600182019050919050565b600061494a82614868565b915061495583614868565b9250826149655761496461499f565b5b828206905092915050565b7f4e487b7100000000000000000000000000000000000000000000000000000000600052601160045260246000fd5b7f4e487b7100000000000000000000000000000000000000000000000000000000600052601260045260246000fd5b7f4e487b7100000000000000000000000000000000000000000000000000000000600052602260045260246000fd5b6000601f19601f8301169050919050565b7f4572726f723a206c6f747465727920726f756e64206973206e6f74206163746960008201527f76652c20696d706f737369626c6520746f20627579207469636b657473210000602082015250565b7f436f6e74656e74206f6620546f6b656e20000000000000000000000000000000600082015250565b7f4572726f723a206e206d75737420626520706f73697469766521000000000000600082015250565b7f6c6f747465727920637265617465640000000000000000000000000000000000600082015250565b7f4572726f723a206e6f7420617574686f72697a65640000000000000000000000600082015250565b7f57696e6e696e67207469636b6574000000000000000000000000000000000000600082015250565b7f4d696e746564204e465400000000000000000000000000000000000000000000600082015250565b7f4572726f723a20696e76616c6964206c6f74746572792073746174652c20696d60008201527f706f737369626c6520746f2064726177206e756d626572732100000000000000602082015250565b7f41737369676e6564207072697a65000000000000000000000000000000000000600082015250565b7f4572726f723a2077726f6e6720726f756e642073746174652c20696d706f737360008201527f69626c6520746f2061737369676e207072697a65732100000000000000000000602082015250565b7f4572726f723a20696e76616c6964206c6f7474657279206e756d626572732e2060008201527f5468652066697273742066697665206e756d62657273206d757374206265206260208201527f65747765656e203120616e64203639207768696c652074686520706f7765726260408201527f616c6c206d757374206265206265747765656e203120616e6420323621000000606082015250565b7f4e657720526f756e640000000000000000000000000000000000000000000000600082015250565b7f206f662072616e6b200000000000000000000000000000000000000000000000600082015250565b7f5469636b657420626f7567687400000000000000000000000000000000000000600082015250565b7f4572726f723a20696e73756666696369656e742066756e647321000000000000600082015250565b7f4572726f723a206e756d62657273206d75737420626520646966666572656e7460008201527f2066726f6d2065616368206f7468657221000000000000000000000000000000602082015250565b7f4572726f723a20696d706f737369626c6520746f2073746172742061206e657760008201527f206c6f747465727920726f756e64210000000000000000000000000000000000602082015250565b7f4572726f723a2072616e6b206d757374206265206265747765656e203120616e60008201527f6420382100000000000000000000000000000000000000000000000000000000602082015250565b614e4f8161482a565b8114614e5a57600080fd5b50565b614e6681614868565b8114614e7157600080fd5b5056fea26469706673582212201adf5cf80a6f025491cff70d0be89bb96667e24389818fb193ad9b6c3cd9057e64736f6c63430008030033",
  "immutableReferences": {},
  "source": "// SPDX-License-Identifier: MIT\r\n// OpenZeppelin Contracts (last updated v4.6.0) (token/ERC721/ERC721.sol)\r\n\r\npragma solidity ^0.8.0;\r\n\r\nimport \"./LotteryGame.sol\";\r\nimport \"@openzeppelin/contracts/utils/Counters.sol\";\r\nimport \"@openzeppelin/contracts/utils/Strings.sol\";\r\n\r\ncontract Lottery {\r\n    using Counters for Counters.Counter;\r\n    Counters.Counter private tids;\r\n\r\n    uint256 price; //ticket price in wei\r\n\r\n    //Struct that represent a round of the lottery\r\n    struct lotteryRound {\r\n        uint256 number;\r\n        uint8 state; // 1 = active, 2 = disactive, 3 = finished\r\n        uint256 start_block; //block number from which the lottery starts\r\n    }\r\n    lotteryRound round;\r\n\r\n    uint256 M; // duration of a round (n blocks)\r\n    uint256 K; //paramater for random number generator\r\n    address lottery_operator;\r\n    uint256[5] standard_numbers; //from 1 to 69\r\n    uint256 special_number; //Powerball, from 1 to 26\r\n\r\n    LotteryGame item; //Lottery collection which contains NFTs\r\n\r\n    //Struct that represent a NFT\r\n    struct lotteryCollectible {\r\n        uint256 tokenId;\r\n        uint256 rank;\r\n        string content;\r\n    }\r\n    lotteryCollectible[] collection;\r\n\r\n    uint256[] prizes; //temporary pool of prizes of a given rank\r\n\r\n    modifier lotteryOperator() {\r\n        require(lottery_operator == msg.sender, \"Error: not authorized\");\r\n        _;\r\n    }\r\n\r\n    //Struct to mantain players of a round\r\n    struct Player {\r\n        address player_address;\r\n        uint256[5] numbers;\r\n        uint256 powerball;\r\n    }\r\n    Player[] lottery_players;\r\n\r\n    //Struct to mantain winners of a round\r\n    struct Winner {\r\n        address winner;\r\n        uint256 rank;\r\n        uint256 prize;\r\n    }\r\n    Winner[] lottery_winners;\r\n\r\n    /* ------------------------------------------------------------ */\r\n\r\n    function getLotteryBalance() public view returns (uint256) {\r\n        return address(this).balance;\r\n    }\r\n\r\n    function getLotteryState() public view returns (bool) {\r\n        if (round.number == 0) {\r\n            return false;\r\n        } else {\r\n            return true;\r\n        }\r\n    }\r\n\r\n    function getLotteryRound() public view returns (uint256) {\r\n        return round.number;\r\n    }\r\n\r\n    function getLotteryRoundState() public view returns (uint8) {\r\n        return round.state;\r\n    }\r\n\r\n    function resetLotteryRound() public {\r\n        round.number = 0;\r\n        round.state = 0;\r\n        round.start_block = 0;\r\n    }\r\n\r\n    function getLotteryOperator() public view returns (address) {\r\n        return lottery_operator;\r\n    }\r\n\r\n    function getNumNFT() public view returns (uint256) {\r\n        return collection.length;\r\n    }\r\n\r\n    function getNFT(uint256 id) public view returns (string memory) {\r\n        string memory res = \"\";\r\n\r\n        if (id < 0 || id >= collection.length) {\r\n            return res;\r\n        }\r\n\r\n        for (uint256 i = 0; i < collection.length; i++) {\r\n            if (id == collection[i].tokenId) {\r\n                res = collection[i].content;\r\n                break;\r\n            }\r\n        }\r\n\r\n        return res;\r\n    }\r\n\r\n    function getNumTickets() public view returns (uint256) {\r\n        return lottery_players.length;\r\n    }\r\n\r\n    function getNumBoughtTickets(address addr) public view returns (uint256) {\r\n        uint256 res = 0;\r\n        for (uint256 i = 0; i < lottery_players.length; i++) {\r\n            if (lottery_players[i].player_address == addr) {\r\n                res++;\r\n            }\r\n        }\r\n\r\n        return res;\r\n    }\r\n\r\n    function getTicket(uint256 id)\r\n        public\r\n        view\r\n        returns (\r\n            address,\r\n            uint256[5] memory,\r\n            uint256\r\n        )\r\n    {\r\n        uint256[5] memory error_res;\r\n\r\n        if (id < 0 || id > lottery_players.length) {\r\n            return (address(0), error_res, uint256(0));\r\n        }\r\n\r\n        return (\r\n            lottery_players[id].player_address,\r\n            lottery_players[id].numbers,\r\n            lottery_players[id].powerball\r\n        );\r\n    }\r\n\r\n    function getDrawnNumbers() public view returns (uint256[6] memory) {\r\n        uint256[6] memory res;\r\n\r\n        for (uint256 i = 0; i < 5; i++) {\r\n            res[i] = standard_numbers[i];\r\n        }\r\n\r\n        res[5] = special_number;\r\n\r\n        return res;\r\n    }\r\n\r\n    function getNumAssignedPrizes() public view returns (uint256) {\r\n        return lottery_winners.length;\r\n    }\r\n\r\n    function getAssignedPrize(uint256 id) public view returns (Winner memory) {\r\n        if (id < 0 || id > lottery_winners.length) {\r\n            return Winner(address(0), uint256(0), uint256(0));\r\n        }\r\n\r\n        return lottery_winners[id];\r\n    }\r\n\r\n    event LotteryCreation(string str);\r\n\r\n    function createLottery() public lotteryOperator {\r\n        emit LotteryCreation(\"lottery created\");\r\n    }\r\n\r\n    //Function that reset the drawn numbers\r\n    function resetDraw() internal {\r\n        for (uint256 i = 0; i < 5; i++) {\r\n            standard_numbers[i] = 0;\r\n        }\r\n\r\n        special_number = 0;\r\n    }\r\n\r\n    //Function that check the range of the drawn numbers\r\n    function convertDraws(uint256 n, bool isSpecial)\r\n        internal\r\n        pure\r\n        returns (uint256)\r\n    {\r\n        uint256 num = 0;\r\n\r\n        if (isSpecial) {\r\n            num = (n % 26) + 1;\r\n        } else {\r\n            num = (n % 69) + 1;\r\n        }\r\n\r\n        if (num == 0) {\r\n            num = 1;\r\n        }\r\n\r\n        return num;\r\n    }\r\n\r\n    //Function that assign the rank basing on the standard numbers and the powerball\r\n    function assignRanks(uint256 numbers, bool is_powerball)\r\n        internal\r\n        pure\r\n        returns (uint256)\r\n    {\r\n        uint256 rank = 0;\r\n\r\n        if (numbers == 5 && is_powerball) rank = 1;\r\n\r\n        if (numbers == 5 && !is_powerball) rank = 2;\r\n\r\n        if (numbers == 4 && is_powerball) rank = 3;\r\n\r\n        if ((numbers == 4 && !is_powerball) || (numbers == 3 && is_powerball))\r\n            rank = 4;\r\n\r\n        if ((numbers == 3 && !is_powerball) || (numbers == 2 && is_powerball))\r\n            rank = 5;\r\n\r\n        if ((numbers == 2 && !is_powerball) || (numbers == 1 && is_powerball))\r\n            rank = 6;\r\n\r\n        if (numbers == 1 && !is_powerball) rank = 7;\r\n\r\n        if (numbers == 0 && is_powerball) rank = 8;\r\n\r\n        return rank;\r\n    }\r\n\r\n    //Function that takes a seed and generates a random number leveraging on a source of randomness from the blockchain\r\n    function generateRandomNumber(uint256 seed)\r\n        internal\r\n        view\r\n        returns (uint256)\r\n    {\r\n        uint256 end_lottery_block = round.start_block + M;\r\n\r\n        bytes32 rand = keccak256(abi.encode(end_lottery_block, seed, K));\r\n        uint256 random_number = uint256(rand);\r\n\r\n        return random_number;\r\n    }\r\n\r\n    //Function that clean up the data structures\r\n    function delete_() internal {\r\n        for (uint256 i = 0; i < 5; i++) {\r\n            standard_numbers[i] = 0;\r\n        }\r\n\r\n        special_number = 0;\r\n\r\n        delete prizes;\r\n        delete lottery_players;\r\n        delete lottery_winners;\r\n    }\r\n\r\n    event Collectible(string str, uint256 id, uint256 rank, string content);\r\n\r\n    //Function that mint n NFTs of rank r, if necessary\r\n    function mintOnDemand(uint256 n, uint256 r) internal lotteryOperator {\r\n        require(n > 0, \"Error: n must be positive!\");\r\n        require(r >= 1 && r <= 8, \"Error: rank must be between 1 and 8!\");\r\n\r\n        for (uint256 j = 0; j < n; j++) {\r\n            lotteryCollectible memory new_item;\r\n            tids.increment();\r\n            new_item.tokenId = tids.current();\r\n            new_item.rank = r;\r\n            string memory str = string(\r\n                abi.encodePacked(\r\n                    \"Content of Token \",\r\n                    Strings.toString(tids.current()),\r\n                    \" of rank \",\r\n                    Strings.toString(new_item.rank)\r\n                )\r\n            );\r\n            new_item.content = str;\r\n            collection.push(new_item);\r\n            emit Collectible(\r\n                \"Minted NFT\",\r\n                new_item.tokenId,\r\n                new_item.rank,\r\n                new_item.content\r\n            );\r\n            item.mint(lottery_operator, new_item.tokenId, new_item.content);\r\n        }\r\n    }\r\n\r\n    /* ----------------------------------------------------------------------- */\r\n\r\n    constructor(\r\n        uint256 price_,\r\n        uint256 M_,\r\n        uint256 K_,\r\n        address lottery_address\r\n    ) {\r\n        if (price_ <= 0) {\r\n            price = 10;\r\n        } else {\r\n            price = price_;\r\n        }\r\n\r\n        if (M_ <= 0) {\r\n            M = 10;\r\n        } else {\r\n            M = M_;\r\n        }\r\n\r\n        if (K_ <= 0) {\r\n            K = 123;\r\n        } else {\r\n            K = K_;\r\n        }\r\n\r\n        round = lotteryRound(0, 0, 0);\r\n        lottery_operator = msg.sender;\r\n\r\n        resetDraw();\r\n\r\n        item = LotteryGame(lottery_address);\r\n    }\r\n\r\n    event Round(\r\n        string str,\r\n        uint256 round_number,\r\n        uint256 round_state,\r\n        uint256 round_start\r\n    );\r\n\r\n    //Function that start a new lottery round\r\n    function startNewRound() public lotteryOperator returns (bool) {\r\n        require(\r\n            ((round.number == 0) ||\r\n                ((block.number - round.start_block) >= M && round.state == 3)),\r\n            \"Error: impossible to start a new lottery round!\"\r\n        );\r\n\r\n        round.number = round.number + 1;\r\n        round.state = 1;\r\n        round.start_block = block.number;\r\n        emit Round(\"New Round\", round.number, round.state, round.start_block);\r\n\r\n        resetDraw();\r\n\r\n        return true;\r\n    }\r\n\r\n    event Ticket(\r\n        string str,\r\n        address player,\r\n        uint256 number1,\r\n        uint256 number2,\r\n        uint256 number3,\r\n        uint256 number4,\r\n        uint256 number5,\r\n        uint256 powerball\r\n    );\r\n\r\n    //Function used by a player to select the numbers and buy a ticket\r\n    function buy(\r\n        uint256 n1,\r\n        uint256 n2,\r\n        uint256 n3,\r\n        uint256 n4,\r\n        uint256 n5,\r\n        uint256 n6\r\n    ) public payable returns (bool) {\r\n        require(\r\n            (n1 >= 1 && n1 <= 69) &&\r\n                (n2 >= 1 && n2 <= 69) &&\r\n                (n3 >= 1 && n3 <= 69) &&\r\n                (n4 >= 1 && n4 <= 69) &&\r\n                (n5 >= 1 && n5 <= 69) &&\r\n                (n6 >= 1 && n6 <= 26),\r\n            \"Error: invalid lottery numbers. The first five numbers must be between 1 and 69 while the powerball must be between 1 and 26!\"\r\n        );\r\n        require(\r\n            n1 != n2 &&\r\n                n1 != n3 &&\r\n                n1 != n4 &&\r\n                n1 != n5 &&\r\n                n2 != n3 &&\r\n                n2 != n4 &&\r\n                n2 != n5 &&\r\n                n3 != n4 &&\r\n                n3 != n5 &&\r\n                n4 != n5,\r\n            \"Error: numbers must be different from each other!\"\r\n        );\r\n        require(\r\n            round.state == 1,\r\n            \"Error: lottery round is not active, impossible to buy tickets!\"\r\n        );\r\n        require(msg.value >= price, \"Error: insufficient funds!\");\r\n\r\n        Player memory player;\r\n        player.player_address = msg.sender;\r\n        player.numbers[0] = n1;\r\n        player.numbers[1] = n2;\r\n        player.numbers[2] = n3;\r\n        player.numbers[3] = n4;\r\n        player.numbers[4] = n5;\r\n        player.powerball = n6;\r\n\r\n        emit Ticket(\"Ticket bought\", msg.sender, n1, n2, n3, n4, n5, n6);\r\n\r\n        lottery_players.push(player);\r\n\r\n        if (msg.value > price) {\r\n            uint256 change = msg.value - price;\r\n            payable(msg.sender).transfer(change);\r\n        }\r\n\r\n        return true;\r\n    }\r\n\r\n    event WinningTicket(\r\n        string str,\r\n        uint256 n1,\r\n        uint256 n2,\r\n        uint256 n3,\r\n        uint256 n4,\r\n        uint256 n5,\r\n        uint256 n6\r\n    );\r\n\r\n    //Function that draw the winning ticket using a RNG\r\n    function drawNumbers() public lotteryOperator returns (bool) {\r\n        require(\r\n            round.state == 1 && (block.number - round.start_block) >= M,\r\n            \"Error: invalid lottery state, impossible to draw numbers!\"\r\n        );\r\n\r\n        uint256 seed = 0;\r\n        uint256 num = 0;\r\n\r\n        for (uint256 i = 0; i < 6; i++) {\r\n            seed = block.number + i;\r\n            uint256 rand = generateRandomNumber(seed);\r\n            if (i == 5) {\r\n                num = convertDraws(rand, true);\r\n                special_number = num;\r\n            } else {\r\n                num = convertDraws(rand, false);\r\n                standard_numbers[i] = num;\r\n            }\r\n        }\r\n\r\n        emit WinningTicket(\r\n            \"Winning ticket\",\r\n            standard_numbers[0],\r\n            standard_numbers[1],\r\n            standard_numbers[2],\r\n            standard_numbers[3],\r\n            standard_numbers[4],\r\n            special_number\r\n        );\r\n\r\n        round.state = 2; //disactive round (draw has been performed)\r\n\r\n        return true;\r\n    }\r\n\r\n    event Prize(string str, address dst, uint256 id_);\r\n\r\n    event AssignedPrizes(bool assigned);\r\n\r\n    //Function that check if there are winners and assign appropriate prizes to them\r\n    function givePrizes() public lotteryOperator returns (bool) {\r\n        require(\r\n            round.state == 2,\r\n            \"Error: wrong round state, impossible to assign prizes!\"\r\n        );\r\n\r\n        //Loop that compare the numbers picked by the users with the numbers drawn by the lottery\r\n        for (uint256 i = 0; i < lottery_players.length; i++) {\r\n            uint256 winner_numbers = 0;\r\n            bool winner_powerball = false;\r\n\r\n            for (uint256 j = 0; j < 5; j++) {\r\n                for (uint256 m = 0; m < 5; m++) {\r\n                    if (lottery_players[i].numbers[j] == standard_numbers[m]) {\r\n                        winner_numbers = winner_numbers + 1;\r\n                        break;\r\n                    }\r\n                }\r\n            }\r\n\r\n            if (lottery_players[i].powerball == special_number) {\r\n                winner_powerball = true;\r\n            }\r\n\r\n            //Pick the winners of the lottery round and add them in a winners' list\r\n            if (winner_numbers > 0 || winner_powerball == true) {\r\n                uint256 prize_rank = assignRanks(\r\n                    winner_numbers,\r\n                    winner_powerball\r\n                );\r\n                Winner memory winner = Winner(\r\n                    lottery_players[i].player_address,\r\n                    prize_rank,\r\n                    0\r\n                );\r\n                lottery_winners.push(winner);\r\n            }\r\n        }\r\n\r\n        //Check if there is a number of winners of a certain class which is greater than the number of prizes of that class\r\n        uint256[8] memory num_winners_rank; //array which mantain the number of winners for each rank\r\n\r\n        for (uint256 j = 0; j < 8; j++) {\r\n            num_winners_rank[j] = 0;\r\n        }\r\n\r\n        for (uint256 i = 0; i < lottery_winners.length; i++) {\r\n            uint256 winner_rank = lottery_winners[i].rank;\r\n            num_winners_rank[winner_rank - 1]++;\r\n        }\r\n\r\n        //Mint an amount of prizes of a certain rank (only if the number of winners of a certain class is greater than the prizes of that class)\r\n        for (uint256 j = 0; j < 8; j++) {\r\n            uint256 rank_ = j + 1;\r\n            uint256 prizes_to_mint = num_winners_rank[j];\r\n\r\n            if (prizes_to_mint > 0) {\r\n                mintOnDemand(prizes_to_mint, rank_);\r\n            }\r\n        }\r\n\r\n        //Select appropriate prizes and assign to the winners according to their ranks\r\n        for (uint256 k = 0; k < lottery_winners.length; k++) {\r\n            uint256 winner_rank = lottery_winners[k].rank;\r\n\r\n            //Get all prizes of a given rank\r\n            for (uint256 n = 0; n < collection.length; n++) {\r\n                if (collection[n].rank == winner_rank) {\r\n                    prizes.push(collection[n].tokenId);\r\n                }\r\n            }\r\n\r\n            //Select a random prize of a certain rank\r\n            uint256 seed = block.number + k;\r\n            uint256 random = generateRandomNumber(seed);\r\n            uint256 prize_id = random % (prizes.length);\r\n            uint256 prize = prizes[prize_id];\r\n\r\n            lottery_winners[k].prize = prize;\r\n\r\n            item.safeTransferFrom(\r\n                lottery_operator,\r\n                lottery_winners[k].winner,\r\n                prize\r\n            ); //send the prize to the winner\r\n\r\n            //Remove the prize from the collection of all available prizes\r\n            for (uint256 t = 0; t < collection.length; t++) {\r\n                if (collection[t].tokenId == prize) {\r\n                    collection[t] = collection[collection.length - 1];\r\n                    collection.pop();\r\n                }\r\n            }\r\n\r\n            emit Prize(\"Assigned prize\", lottery_winners[k].winner, prize);\r\n\r\n            delete prizes; //clean the temporary pool of prizes of a given rank\r\n        }\r\n\r\n        emit AssignedPrizes(true);\r\n\r\n        round.state = 3; //round finished\r\n\r\n        return true;\r\n    }\r\n\r\n    //Function that mint n NFTs for each class\r\n    function mint(uint256 n) public lotteryOperator {\r\n        require(n > 0, \"Error: n must be positive!\");\r\n\r\n        for (uint256 i = 0; i < 8; i++) {\r\n            for (uint256 j = 0; j < n; j++) {\r\n                lotteryCollectible memory new_item;\r\n                tids.increment();\r\n                new_item.tokenId = tids.current();\r\n                new_item.rank = i + 1;\r\n                string memory str = string(\r\n                    abi.encodePacked(\r\n                        \"Content of Token \",\r\n                        Strings.toString(tids.current()),\r\n                        \" of rank \",\r\n                        Strings.toString(new_item.rank)\r\n                    )\r\n                );\r\n                new_item.content = str;\r\n\r\n                collection.push(new_item);\r\n\r\n                emit Collectible(\r\n                    \"Minted NFT\",\r\n                    new_item.tokenId,\r\n                    new_item.rank,\r\n                    new_item.content\r\n                );\r\n\r\n                item.mint(lottery_operator, new_item.tokenId, new_item.content);\r\n            }\r\n        }\r\n    }\r\n\r\n    event RoundBeforeClosing(\r\n        uint256 round_num,\r\n        uint256 round_st,\r\n        uint256 round_sb\r\n    );\r\n    event RoundAfterClosing(\r\n        uint256 round_num,\r\n        uint256 round_st,\r\n        uint256 round_sb\r\n    );\r\n\r\n    event BalanceContractBeforeClosing(uint256 tot);\r\n    event BalanceContractAfterClosing(uint256 tot);\r\n\r\n    event BalanceOpBeforeClosing(address op, uint256 tot);\r\n    event BalanceOpAfterClosing(address op, uint256 tot);\r\n\r\n    event BalancePlayerBeforeRefund(address player, uint256 tot);\r\n    event BalancePlayerAfterRefund(address player, uint256 tot);\r\n\r\n    //Function that close the lottery round and manage all the following operations\r\n    function closeRound() public lotteryOperator {\r\n        uint256 total_balance = 0;\r\n\r\n        emit RoundBeforeClosing(round.number, round.state, round.start_block);\r\n\r\n        if (round.state == 1) {\r\n            emit BalanceContractBeforeClosing(address(this).balance);\r\n\r\n            emit BalanceOpBeforeClosing(\r\n                lottery_operator,\r\n                lottery_operator.balance\r\n            );\r\n\r\n            for (uint256 i = 0; i < lottery_players.length; i++) {\r\n                emit BalancePlayerBeforeRefund(\r\n                    lottery_players[i].player_address,\r\n                    lottery_players[i].player_address.balance\r\n                );\r\n\r\n                payable(lottery_players[i].player_address).transfer(price);\r\n\r\n                emit BalancePlayerAfterRefund(\r\n                    lottery_players[i].player_address,\r\n                    lottery_players[i].player_address.balance\r\n                );\r\n            }\r\n\r\n            delete_();\r\n            round.state = 3;\r\n\r\n            emit RoundAfterClosing(\r\n                round.number,\r\n                round.state,\r\n                round.start_block\r\n            );\r\n\r\n            return;\r\n        }\r\n\r\n        if (round.state == 2) {\r\n            givePrizes();\r\n            total_balance = price * lottery_players.length;\r\n\r\n            emit BalanceContractBeforeClosing(address(this).balance);\r\n\r\n            emit BalanceOpBeforeClosing(\r\n                lottery_operator,\r\n                lottery_operator.balance\r\n            );\r\n\r\n            payable(lottery_operator).transfer(total_balance);\r\n\r\n            emit BalanceContractAfterClosing(address(this).balance);\r\n\r\n            emit BalanceOpAfterClosing(\r\n                lottery_operator,\r\n                lottery_operator.balance\r\n            );\r\n\r\n            delete_();\r\n            round.state = 3;\r\n\r\n            emit RoundAfterClosing(\r\n                round.number,\r\n                round.state,\r\n                round.start_block\r\n            );\r\n\r\n            return;\r\n        }\r\n\r\n        emit BalanceContractBeforeClosing(address(this).balance);\r\n\r\n        emit BalanceOpBeforeClosing(lottery_operator, lottery_operator.balance);\r\n\r\n        total_balance = price * lottery_players.length;\r\n        payable(lottery_operator).transfer(total_balance);\r\n        delete_();\r\n\r\n        round.state = 3; //lottery finished\r\n\r\n        emit RoundAfterClosing(round.number, round.state, round.start_block);\r\n\r\n        emit BalanceContractAfterClosing(address(this).balance);\r\n\r\n        emit BalanceOpAfterClosing(lottery_operator, lottery_operator.balance);\r\n    }\r\n}\r\n",
  "sourcePath": "/home/fcarli/Scrivania/lottery/contracts/Lottery.sol",
  "compiler": {
    "name": "solc",
    "version": "0.8.3+commit.8d00100c.Emscripten.clang"
  },
  "schemaVersion": "3.4.7",
  "updatedAt": "2022-06-29T18:29:52.588Z",
  "networkType": "ethereum",
  "devdoc": {
    "kind": "dev",
    "methods": {},
    "version": 1
  },
  "userdoc": {
    "kind": "user",
    "methods": {},
    "version": 1
  }
}