{
  "contractName": "Lottery",
  "abi": [
    {
      "inputs": [
        {
          "internalType": "uint256",
          "name": "price_",
          "type": "uint256"
        },
        {
          "internalType": "uint256",
          "name": "M_",
          "type": "uint256"
        },
        {
          "internalType": "uint256",
          "name": "K_",
          "type": "uint256"
        },
        {
          "internalType": "address",
          "name": "lottery_address",
          "type": "address"
        }
      ],
      "stateMutability": "nonpayable",
      "type": "constructor"
    },
    {
      "anonymous": false,
      "inputs": [
        {
          "indexed": false,
          "internalType": "bool",
          "name": "assigned",
          "type": "bool"
        }
      ],
      "name": "AssignedPrizes",
      "type": "event"
    },
    {
      "anonymous": false,
      "inputs": [
        {
          "indexed": false,
          "internalType": "uint256",
          "name": "tot",
          "type": "uint256"
        }
      ],
      "name": "BalanceContractAfterClosing",
      "type": "event"
    },
    {
      "anonymous": false,
      "inputs": [
        {
          "indexed": false,
          "internalType": "uint256",
          "name": "tot",
          "type": "uint256"
        }
      ],
      "name": "BalanceContractBeforeClosing",
      "type": "event"
    },
    {
      "anonymous": false,
      "inputs": [
        {
          "indexed": false,
          "internalType": "address",
          "name": "op",
          "type": "address"
        },
        {
          "indexed": false,
          "internalType": "uint256",
          "name": "tot",
          "type": "uint256"
        }
      ],
      "name": "BalanceOpAfterClosing",
      "type": "event"
    },
    {
      "anonymous": false,
      "inputs": [
        {
          "indexed": false,
          "internalType": "address",
          "name": "op",
          "type": "address"
        },
        {
          "indexed": false,
          "internalType": "uint256",
          "name": "tot",
          "type": "uint256"
        }
      ],
      "name": "BalanceOpBeforeClosing",
      "type": "event"
    },
    {
      "anonymous": false,
      "inputs": [
        {
          "indexed": false,
          "internalType": "address",
          "name": "player",
          "type": "address"
        },
        {
          "indexed": false,
          "internalType": "uint256",
          "name": "tot",
          "type": "uint256"
        }
      ],
      "name": "BalancePlayerAfterRefund",
      "type": "event"
    },
    {
      "anonymous": false,
      "inputs": [
        {
          "indexed": false,
          "internalType": "address",
          "name": "player",
          "type": "address"
        },
        {
          "indexed": false,
          "internalType": "uint256",
          "name": "tot",
          "type": "uint256"
        }
      ],
      "name": "BalancePlayerBeforeRefund",
      "type": "event"
    },
    {
      "anonymous": false,
      "inputs": [
        {
          "indexed": false,
          "internalType": "string",
          "name": "str",
          "type": "string"
        },
        {
          "indexed": false,
          "internalType": "uint256",
          "name": "id",
          "type": "uint256"
        },
        {
          "indexed": false,
          "internalType": "uint256",
          "name": "rank",
          "type": "uint256"
        },
        {
          "indexed": false,
          "internalType": "string",
          "name": "content",
          "type": "string"
        }
      ],
      "name": "Collectible",
      "type": "event"
    },
    {
      "anonymous": false,
      "inputs": [
        {
          "indexed": false,
          "internalType": "string",
          "name": "str",
          "type": "string"
        },
        {
          "indexed": false,
          "internalType": "address",
          "name": "dst",
          "type": "address"
        },
        {
          "indexed": false,
          "internalType": "uint256",
          "name": "id_",
          "type": "uint256"
        }
      ],
      "name": "Prize",
      "type": "event"
    },
    {
      "anonymous": false,
      "inputs": [
        {
          "indexed": false,
          "internalType": "string",
          "name": "str",
          "type": "string"
        },
        {
          "indexed": false,
          "internalType": "uint256",
          "name": "round_number",
          "type": "uint256"
        },
        {
          "indexed": false,
          "internalType": "uint256",
          "name": "round_state",
          "type": "uint256"
        },
        {
          "indexed": false,
          "internalType": "uint256",
          "name": "round_start",
          "type": "uint256"
        }
      ],
      "name": "Round",
      "type": "event"
    },
    {
      "anonymous": false,
      "inputs": [
        {
          "indexed": false,
          "internalType": "uint256",
          "name": "round_num",
          "type": "uint256"
        },
        {
          "indexed": false,
          "internalType": "uint256",
          "name": "round_st",
          "type": "uint256"
        },
        {
          "indexed": false,
          "internalType": "uint256",
          "name": "round_sb",
          "type": "uint256"
        }
      ],
      "name": "RoundAfterClosing",
      "type": "event"
    },
    {
      "anonymous": false,
      "inputs": [
        {
          "indexed": false,
          "internalType": "uint256",
          "name": "round_num",
          "type": "uint256"
        },
        {
          "indexed": false,
          "internalType": "uint256",
          "name": "round_st",
          "type": "uint256"
        },
        {
          "indexed": false,
          "internalType": "uint256",
          "name": "round_sb",
          "type": "uint256"
        }
      ],
      "name": "RoundBeforeClosing",
      "type": "event"
    },
    {
      "anonymous": false,
      "inputs": [
        {
          "indexed": false,
          "internalType": "string",
          "name": "str",
          "type": "string"
        },
        {
          "indexed": false,
          "internalType": "address",
          "name": "player",
          "type": "address"
        },
        {
          "indexed": false,
          "internalType": "uint256",
          "name": "number1",
          "type": "uint256"
        },
        {
          "indexed": false,
          "internalType": "uint256",
          "name": "number2",
          "type": "uint256"
        },
        {
          "indexed": false,
          "internalType": "uint256",
          "name": "number3",
          "type": "uint256"
        },
        {
          "indexed": false,
          "internalType": "uint256",
          "name": "number4",
          "type": "uint256"
        },
        {
          "indexed": false,
          "internalType": "uint256",
          "name": "number5",
          "type": "uint256"
        },
        {
          "indexed": false,
          "internalType": "uint256",
          "name": "powerball",
          "type": "uint256"
        }
      ],
      "name": "Ticket",
      "type": "event"
    },
    {
      "anonymous": false,
      "inputs": [
        {
          "indexed": false,
          "internalType": "string",
          "name": "str",
          "type": "string"
        },
        {
          "indexed": false,
          "internalType": "uint256",
          "name": "n1",
          "type": "uint256"
        },
        {
          "indexed": false,
          "internalType": "uint256",
          "name": "n2",
          "type": "uint256"
        },
        {
          "indexed": false,
          "internalType": "uint256",
          "name": "n3",
          "type": "uint256"
        },
        {
          "indexed": false,
          "internalType": "uint256",
          "name": "n4",
          "type": "uint256"
        },
        {
          "indexed": false,
          "internalType": "uint256",
          "name": "n5",
          "type": "uint256"
        },
        {
          "indexed": false,
          "internalType": "uint256",
          "name": "n6",
          "type": "uint256"
        }
      ],
      "name": "WinningTicket",
      "type": "event"
    },
    {
      "inputs": [],
      "name": "getLotteryBalance",
      "outputs": [
        {
          "internalType": "uint256",
          "name": "",
          "type": "uint256"
        }
      ],
      "stateMutability": "view",
      "type": "function",
      "constant": true
    },
    {
      "inputs": [],
      "name": "getLotteryState",
      "outputs": [
        {
          "internalType": "bool",
          "name": "",
          "type": "bool"
        }
      ],
      "stateMutability": "view",
      "type": "function",
      "constant": true
    },
    {
      "inputs": [],
      "name": "getLotteryRound",
      "outputs": [
        {
          "internalType": "uint256",
          "name": "",
          "type": "uint256"
        }
      ],
      "stateMutability": "view",
      "type": "function",
      "constant": true
    },
    {
      "inputs": [],
      "name": "getLotteryRoundState",
      "outputs": [
        {
          "internalType": "uint8",
          "name": "",
          "type": "uint8"
        }
      ],
      "stateMutability": "view",
      "type": "function",
      "constant": true
    },
    {
      "inputs": [],
      "name": "getLotteryOperator",
      "outputs": [
        {
          "internalType": "address",
          "name": "",
          "type": "address"
        }
      ],
      "stateMutability": "view",
      "type": "function",
      "constant": true
    },
    {
      "inputs": [],
      "name": "getNumNFT",
      "outputs": [
        {
          "internalType": "uint256",
          "name": "",
          "type": "uint256"
        }
      ],
      "stateMutability": "view",
      "type": "function",
      "constant": true
    },
    {
      "inputs": [],
      "name": "getNumTickets",
      "outputs": [
        {
          "internalType": "uint256",
          "name": "",
          "type": "uint256"
        }
      ],
      "stateMutability": "view",
      "type": "function",
      "constant": true
    },
    {
      "inputs": [
        {
          "internalType": "address",
          "name": "addr",
          "type": "address"
        }
      ],
      "name": "getNumBoughtTickets",
      "outputs": [
        {
          "internalType": "uint256",
          "name": "",
          "type": "uint256"
        }
      ],
      "stateMutability": "view",
      "type": "function",
      "constant": true
    },
    {
      "inputs": [
        {
          "internalType": "uint256",
          "name": "id",
          "type": "uint256"
        }
      ],
      "name": "getTicket",
      "outputs": [
        {
          "internalType": "address",
          "name": "",
          "type": "address"
        },
        {
          "internalType": "uint256[5]",
          "name": "",
          "type": "uint256[5]"
        },
        {
          "internalType": "uint256",
          "name": "",
          "type": "uint256"
        }
      ],
      "stateMutability": "view",
      "type": "function",
      "constant": true
    },
    {
      "inputs": [],
      "name": "getDrawnNumbers",
      "outputs": [
        {
          "internalType": "uint256[6]",
          "name": "",
          "type": "uint256[6]"
        }
      ],
      "stateMutability": "view",
      "type": "function",
      "constant": true
    },
    {
      "inputs": [],
      "name": "getNumAssignedPrizes",
      "outputs": [
        {
          "internalType": "uint256",
          "name": "",
          "type": "uint256"
        }
      ],
      "stateMutability": "view",
      "type": "function",
      "constant": true
    },
    {
      "inputs": [
        {
          "internalType": "uint256",
          "name": "id",
          "type": "uint256"
        }
      ],
      "name": "getAssignedPrize",
      "outputs": [
        {
          "components": [
            {
              "internalType": "address",
              "name": "winner",
              "type": "address"
            },
            {
              "internalType": "uint256",
              "name": "rank",
              "type": "uint256"
            },
            {
              "internalType": "uint256",
              "name": "prize",
              "type": "uint256"
            }
          ],
          "internalType": "struct Lottery.Winner",
          "name": "",
          "type": "tuple"
        }
      ],
      "stateMutability": "view",
      "type": "function",
      "constant": true
    },
    {
      "inputs": [],
      "name": "resetLotteryRound",
      "outputs": [],
      "stateMutability": "nonpayable",
      "type": "function"
    },
    {
      "inputs": [],
      "name": "startNewRound",
      "outputs": [
        {
          "internalType": "bool",
          "name": "",
          "type": "bool"
        }
      ],
      "stateMutability": "nonpayable",
      "type": "function"
    },
    {
      "inputs": [
        {
          "internalType": "uint256",
          "name": "n1",
          "type": "uint256"
        },
        {
          "internalType": "uint256",
          "name": "n2",
          "type": "uint256"
        },
        {
          "internalType": "uint256",
          "name": "n3",
          "type": "uint256"
        },
        {
          "internalType": "uint256",
          "name": "n4",
          "type": "uint256"
        },
        {
          "internalType": "uint256",
          "name": "n5",
          "type": "uint256"
        },
        {
          "internalType": "uint256",
          "name": "n6",
          "type": "uint256"
        }
      ],
      "name": "buy",
      "outputs": [
        {
          "internalType": "bool",
          "name": "",
          "type": "bool"
        }
      ],
      "stateMutability": "payable",
      "type": "function",
      "payable": true
    },
    {
      "inputs": [],
      "name": "drawNumbers",
      "outputs": [
        {
          "internalType": "bool",
          "name": "",
          "type": "bool"
        }
      ],
      "stateMutability": "nonpayable",
      "type": "function"
    },
    {
      "inputs": [],
      "name": "givePrizes",
      "outputs": [
        {
          "internalType": "bool",
          "name": "",
          "type": "bool"
        }
      ],
      "stateMutability": "nonpayable",
      "type": "function"
    },
    {
      "inputs": [
        {
          "internalType": "uint256",
          "name": "n",
          "type": "uint256"
        }
      ],
      "name": "mint",
      "outputs": [],
      "stateMutability": "nonpayable",
      "type": "function"
    },
    {
      "inputs": [],
      "name": "closeRound",
      "outputs": [],
      "stateMutability": "nonpayable",
      "type": "function"
    }
  ],
  "bytecode": "0x60806040523480156200001157600080fd5b506040516200530338038062005303833981810160405281019062000037919062000229565b600084116200004e57600a60018190555062000056565b836001819055505b600083116200006d57600a60058190555062000075565b826005819055505b600082116200008c57607b60068190555062000094565b816006819055505b604051806060016040528060008152602001600060ff168152602001600081525060026000820151816000015560208201518160010160006101000a81548160ff021916908360ff1602179055506040820151816002015590505033600760006101000a81548173ffffffffffffffffffffffffffffffffffffffff021916908373ffffffffffffffffffffffffffffffffffffffff160217905550620001406200018b60201b60201c565b80600e60006101000a81548173ffffffffffffffffffffffffffffffffffffffff021916908373ffffffffffffffffffffffffffffffffffffffff1602179055505050505062000384565b60005b6005811015620001f057600060088260058110620001d5577f4e487b7100000000000000000000000000000000000000000000000000000000600052603260045260246000fd5b01819055508080620001e790620002d3565b9150506200018e565b506000600d81905550565b6000815190506200020c8162000350565b92915050565b60008151905062000223816200036a565b92915050565b600080600080608085870312156200024057600080fd5b6000620002508782880162000212565b9450506020620002638782880162000212565b9350506040620002768782880162000212565b92505060606200028987828801620001fb565b91505092959194509250565b6000620002a282620002a9565b9050919050565b600073ffffffffffffffffffffffffffffffffffffffff82169050919050565b6000819050919050565b6000620002e082620002c9565b91507fffffffffffffffffffffffffffffffffffffffffffffffffffffffffffffffff82141562000316576200031562000321565b5b600182019050919050565b7f4e487b7100000000000000000000000000000000000000000000000000000000600052601160045260246000fd5b6200035b8162000295565b81146200036757600080fd5b50565b6200037581620002c9565b81146200038157600080fd5b50565b614f6f80620003946000396000f3fe6080604052600436106101145760003560e01c806360654e47116100a0578063a34df21e11610064578063a34df21e1461039c578063b3c2fc78146103d9578063bd85948c146103f0578063dc7682fc1461041b578063e278fe6f1461044657610114565b806360654e47146102b3578063676c902f146102de5780636b68c03c146103095780637dc379fa14610334578063a0712d681461037357610114565b806332fad343116100e757806332fad343146101d757806339bafeac1461020257806345ce691a1461022d57806359a920cd1461025d57806359e4a1c71461028857610114565b806306d5ee54146101195780630b5adfff14610144578063164595e31461016f5780632064563f146101ac575b600080fd5b34801561012557600080fd5b5061012e61045d565b60405161013b919061439e565b60405180910390f35b34801561015057600080fd5b5061015961101c565b604051610166919061470b565b60405180910390f35b34801561017b57600080fd5b5061019660048036038101906101919190613d41565b611029565b6040516101a3919061470b565b60405180910390f35b3480156101b857600080fd5b506101c161110b565b6040516101ce9190614293565b60405180910390f35b3480156101e357600080fd5b506101ec611135565b6040516101f9919061470b565b60405180910390f35b34801561020e57600080fd5b50610217611142565b604051610224919061470b565b60405180910390f35b61024760048036038101906102429190613d93565b61114f565b604051610254919061439e565b60405180910390f35b34801561026957600080fd5b50610272611670565b60405161027f919061475d565b60405180910390f35b34801561029457600080fd5b5061029d61168a565b6040516102aa919061470b565b60405180910390f35b3480156102bf57600080fd5b506102c8611697565b6040516102d5919061470b565b60405180910390f35b3480156102ea57600080fd5b506102f361169f565b604051610300919061439e565b60405180910390f35b34801561031557600080fd5b5061031e6119f8565b60405161032b919061439e565b60405180910390f35b34801561034057600080fd5b5061035b60048036038101906103569190613d6a565b611a18565b60405161036a939291906142e5565b60405180910390f35b34801561037f57600080fd5b5061039a60048036038101906103959190613d6a565b611ba6565b005b3480156103a857600080fd5b506103c360048036038101906103be9190613d6a565b611ea5565b6040516103d091906146f0565b60405180910390f35b3480156103e557600080fd5b506103ee611fc5565b005b3480156103fc57600080fd5b50610405611ffb565b604051610412919061439e565b60405180910390f35b34801561042757600080fd5b506104306121c8565b60405161043d9190614383565b60405180910390f35b34801561045257600080fd5b5061045b612359565b005b60003373ffffffffffffffffffffffffffffffffffffffff16600760009054906101000a900473ffffffffffffffffffffffffffffffffffffffff1673ffffffffffffffffffffffffffffffffffffffff16146104ef576040517f08c379a00000000000000000000000000000000000000000000000000000000081526004016104e690614422565b60405180910390fd5b60028060010160009054906101000a900460ff1660ff1614610546576040517f08c379a000000000000000000000000000000000000000000000000000000000815260040161053d90614563565b60405180910390fd5b60005b6011805490508110156108365760008060005b60058110156106735760005b600581101561065f57600881600581106105ab577f4e487b7100000000000000000000000000000000000000000000000000000000600052603260045260246000fd5b0154601186815481106105e7577f4e487b7100000000000000000000000000000000000000000000000000000000600052603260045260246000fd5b90600052602060002090600702016001018360058110610630577f4e487b7100000000000000000000000000000000000000000000000000000000600052603260045260246000fd5b0154141561064c5760018461064591906147f9565b935061065f565b8080610657906149e4565b915050610568565b50808061066b906149e4565b91505061055c565b50600d54601184815481106106b1577f4e487b7100000000000000000000000000000000000000000000000000000000600052603260045260246000fd5b90600052602060002090600702016006015414156106ce57600190505b60008211806106e1575060011515811515145b156108215760006106f28383612e42565b9050600060405180606001604052806011878154811061073b577f4e487b7100000000000000000000000000000000000000000000000000000000600052603260045260246000fd5b906000526020600020906007020160000160009054906101000a900473ffffffffffffffffffffffffffffffffffffffff1673ffffffffffffffffffffffffffffffffffffffff16815260200183815260200160008152509050601281908060018154018082558091505060019003906000526020600020906003020160009091909190915060008201518160000160006101000a81548173ffffffffffffffffffffffffffffffffffffffff021916908373ffffffffffffffffffffffffffffffffffffffff1602179055506020820151816001015560408201518160020155505050505b5050808061082e906149e4565b915050610549565b5061083f61393b565b60005b60088110156108a2576000828260088110610886577f4e487b7100000000000000000000000000000000000000000000000000000000600052603260045260246000fd5b602002018181525050808061089a906149e4565b915050610842565b5060005b601280549050811015610972576000601282815481106108ef577f4e487b7100000000000000000000000000000000000000000000000000000000600052603260045260246000fd5b90600052602060002090600302016001015490508260018261091191906148da565b60088110610948577f4e487b7100000000000000000000000000000000000000000000000000000000600052603260045260246000fd5b60200201805180919061095a906149e4565b8152505050808061096a906149e4565b9150506108a6565b5060005b60088110156109fb57600060018261098e91906147f9565b905060008383600881106109cb577f4e487b7100000000000000000000000000000000000000000000000000000000600052603260045260246000fd5b6020020151905060008111156109e6576109e58183612f4c565b5b505080806109f3906149e4565b915050610976565b5060005b601280549050811015610fbc57600060128281548110610a48577f4e487b7100000000000000000000000000000000000000000000000000000000600052603260045260246000fd5b906000526020600020906003020160010154905060005b600f80549050811015610b475781600f8281548110610aa7577f4e487b7100000000000000000000000000000000000000000000000000000000600052603260045260246000fd5b9060005260206000209060030201600101541415610b34576010600f8281548110610afb577f4e487b7100000000000000000000000000000000000000000000000000000000600052603260045260246000fd5b90600052602060002090600302016000015490806001815401808255809150506001900390600052602060002001600090919091909150555b8080610b3f906149e4565b915050610a5f565b5060008243610b5691906147f9565b90506000610b6382613271565b9050600060108054905082610b789190614a2d565b9050600060108281548110610bb6577f4e487b7100000000000000000000000000000000000000000000000000000000600052603260045260246000fd5b906000526020600020015490508060128781548110610bfe577f4e487b7100000000000000000000000000000000000000000000000000000000600052603260045260246000fd5b906000526020600020906003020160020181905550600e60009054906101000a900473ffffffffffffffffffffffffffffffffffffffff1673ffffffffffffffffffffffffffffffffffffffff166342842e0e600760009054906101000a900473ffffffffffffffffffffffffffffffffffffffff1660128981548110610cae577f4e487b7100000000000000000000000000000000000000000000000000000000600052603260045260246000fd5b906000526020600020906003020160000160009054906101000a900473ffffffffffffffffffffffffffffffffffffffff16846040518463ffffffff1660e01b8152600401610cff939291906142ae565b600060405180830381600087803b158015610d1957600080fd5b505af1158015610d2d573d6000803e3d6000fd5b5050505060005b600f80549050811015610ef15781600f8281548110610d7c577f4e487b7100000000000000000000000000000000000000000000000000000000600052603260045260246000fd5b9060005260206000209060030201600001541415610ede57600f6001600f80549050610da891906148da565b81548110610ddf577f4e487b7100000000000000000000000000000000000000000000000000000000600052603260045260246000fd5b9060005260206000209060030201600f8281548110610e27577f4e487b7100000000000000000000000000000000000000000000000000000000600052603260045260246000fd5b906000526020600020906003020160008201548160000155600182015481600101556002820181600201908054610e5d906149b2565b610e6892919061395e565b50905050600f805480610ea4577f4e487b7100000000000000000000000000000000000000000000000000000000600052603160045260246000fd5b60019003818190600052602060002090600302016000808201600090556001820160009055600282016000610ed991906139eb565b505090555b8080610ee9906149e4565b915050610d34565b507ff14045014153c13a3fea5d1fdb4dd2fa03d3876f5e4757c7f3160f498982a81260128781548110610f4d577f4e487b7100000000000000000000000000000000000000000000000000000000600052603260045260246000fd5b906000526020600020906003020160000160009054906101000a900473ffffffffffffffffffffffffffffffffffffffff1682604051610f8e929190614527565b60405180910390a160106000610fa49190613a2b565b50505050508080610fb4906149e4565b9150506109ff565b507f833130ea6c81d4b44cda5cb7c548cba190a734346a172a08b96003e97b3638e16001604051610fed919061439e565b60405180910390a16003600260010160006101000a81548160ff021916908360ff160217905550600191505090565b6000601180549050905090565b6000806000905060005b601180549050811015611101578373ffffffffffffffffffffffffffffffffffffffff1660118281548110611091577f4e487b7100000000000000000000000000000000000000000000000000000000600052603260045260246000fd5b906000526020600020906007020160000160009054906101000a900473ffffffffffffffffffffffffffffffffffffffff1673ffffffffffffffffffffffffffffffffffffffff1614156110ee5781806110ea906149e4565b9250505b80806110f9906149e4565b915050611033565b5080915050919050565b6000600760009054906101000a900473ffffffffffffffffffffffffffffffffffffffff16905090565b6000601280549050905090565b6000600260000154905090565b600060018710158015611163575060458711155b801561117d57506001861015801561117c575060458611155b5b8015611197575060018510158015611196575060458511155b5b80156111b15750600184101580156111b0575060458411155b5b80156111cb5750600183101580156111ca575060458311155b5b80156111e55750600182101580156111e45750601a8211155b5b611224576040517f08c379a000000000000000000000000000000000000000000000000000000000815260040161121b90614583565b60405180910390fd5b8587141580156112345750848714155b80156112405750838714155b801561124c5750828714155b80156112585750848614155b80156112645750838614155b80156112705750828614155b801561127c5750838514155b80156112885750828514155b80156112945750828414155b6112d3576040517f08c379a00000000000000000000000000000000000000000000000000000000081526004016112ca90614690565b60405180910390fd5b6001600260010160009054906101000a900460ff1660ff161461132b576040517f08c379a0000000000000000000000000000000000000000000000000000000008152600401611322906143e2565b60405180910390fd5b600154341015611370576040517f08c379a000000000000000000000000000000000000000000000000000000000815260040161136790614670565b60405180910390fd5b611378613a4c565b33816000019073ffffffffffffffffffffffffffffffffffffffff16908173ffffffffffffffffffffffffffffffffffffffff16815250508781602001516000600581106113ef577f4e487b7100000000000000000000000000000000000000000000000000000000600052603260045260246000fd5b602002018181525050868160200151600160058110611437577f4e487b7100000000000000000000000000000000000000000000000000000000600052603260045260246000fd5b60200201818152505085816020015160026005811061147f577f4e487b7100000000000000000000000000000000000000000000000000000000600052603260045260246000fd5b6020020181815250508481602001516003600581106114c7577f4e487b7100000000000000000000000000000000000000000000000000000000600052603260045260246000fd5b60200201818152505083816020015160046005811061150f577f4e487b7100000000000000000000000000000000000000000000000000000000600052603260045260246000fd5b602002018181525050828160400181815250507fcfd2fb7aa48f24f16ea37c0083ab7d7208dfb1154494cb88660cdbc0d11db6ff3389898989898960405161155d97969594939291906145ed565b60405180910390a1601181908060018154018082558091505060019003906000526020600020906007020160009091909190915060008201518160000160006101000a81548173ffffffffffffffffffffffffffffffffffffffff021916908373ffffffffffffffffffffffffffffffffffffffff1602179055506020820151816001019060056115ef929190613a89565b506040820151816006015550506001543411156116615760006001543461161691906148da565b90503373ffffffffffffffffffffffffffffffffffffffff166108fc829081150290604051600060405180830381858888f1935050505015801561165e573d6000803e3d6000fd5b50505b60019150509695505050505050565b6000600260010160009054906101000a900460ff16905090565b6000600f80549050905090565b600047905090565b60003373ffffffffffffffffffffffffffffffffffffffff16600760009054906101000a900473ffffffffffffffffffffffffffffffffffffffff1673ffffffffffffffffffffffffffffffffffffffff1614611731576040517f08c379a000000000000000000000000000000000000000000000000000000000815260040161172890614422565b60405180910390fd5b6001600260010160009054906101000a900460ff1660ff16148015611774575060065460055461176191906147f9565b60028001544361177191906148da565b10155b6117b3576040517f08c379a00000000000000000000000000000000000000000000000000000000081526004016117aa90614507565b60405180910390fd5b60008060005b60068110156118615780436117ce91906147f9565b925060006117db84613271565b905060058214156117ff576117f18160016132d6565b925082600d8190555061184d565b61180a8160006132d6565b92508260088360058110611847577f4e487b7100000000000000000000000000000000000000000000000000000000600052603260045260246000fd5b01819055505b508080611859906149e4565b9150506117b9565b507f121bb129376efc920002fc0064b06d77546684806b40cfda9663f5e2ed7b4e2760086000600581106118be577f4e487b7100000000000000000000000000000000000000000000000000000000600052603260045260246000fd5b015460086001600581106118fb577f4e487b7100000000000000000000000000000000000000000000000000000000600052603260045260246000fd5b01546008600260058110611938577f4e487b7100000000000000000000000000000000000000000000000000000000600052603260045260246000fd5b01546008600360058110611975577f4e487b7100000000000000000000000000000000000000000000000000000000600052603260045260246000fd5b015460086004600581106119b2577f4e487b7100000000000000000000000000000000000000000000000000000000600052603260045260246000fd5b0154600d546040516119c996959493929190614442565b60405180910390a160028060010160006101000a81548160ff021916908360ff16021790555060019250505090565b6000806002600001541415611a105760009050611a15565b600190505b90565b6000611a22613ac9565b6000611a2c613ac9565b6000851080611a3f575060118054905085115b15611a5557600081600093509350935050611b9f565b60118581548110611a8f577f4e487b7100000000000000000000000000000000000000000000000000000000600052603260045260246000fd5b906000526020600020906007020160000160009054906101000a900473ffffffffffffffffffffffffffffffffffffffff1660118681548110611afb577f4e487b7100000000000000000000000000000000000000000000000000000000600052603260045260246000fd5b906000526020600020906007020160010160118781548110611b46577f4e487b7100000000000000000000000000000000000000000000000000000000600052603260045260246000fd5b90600052602060002090600702016006015481600580602002604051908101604052809291908260058015611b90576020028201915b815481526020019060010190808311611b7c575b50505050509150935093509350505b9193909250565b3373ffffffffffffffffffffffffffffffffffffffff16600760009054906101000a900473ffffffffffffffffffffffffffffffffffffffff1673ffffffffffffffffffffffffffffffffffffffff1614611c36576040517f08c379a0000000000000000000000000000000000000000000000000000000008152600401611c2d90614422565b60405180910390fd5b60008111611c79576040517f08c379a0000000000000000000000000000000000000000000000000000000008152600401611c7090614402565b60405180910390fd5b60005b6008811015611ea15760005b82811015611e8d57611c98613aeb565b611ca26000613337565b611cac600061334d565b816000018181525050600183611cc291906147f9565b8160200181815250506000611cdf611cda600061334d565b61335b565b611cec836020015161335b565b604051602001611cfd929190614259565b6040516020818303038152906040529050808260400181905250600f82908060018154018082558091505060019003906000526020600020906003020160009091909190915060008201518160000155602082015181600101556040820151816002019080519060200190611d73929190613b0c565b5050507fd9ce4229b2eea6ac3330e233aaa8f28667617e6473ff7b01c64e7934d1f3ebbe826000015183602001518460400151604051611db5939291906144b6565b60405180910390a1600e60009054906101000a900473ffffffffffffffffffffffffffffffffffffffff1673ffffffffffffffffffffffffffffffffffffffff1663d3fc9864600760009054906101000a900473ffffffffffffffffffffffffffffffffffffffff16846000015185604001516040518463ffffffff1660e01b8152600401611e4693929190614345565b600060405180830381600087803b158015611e6057600080fd5b505af1158015611e74573d6000803e3d6000fd5b5050505050508080611e85906149e4565b915050611c88565b508080611e99906149e4565b915050611c7c565b5050565b611ead613b92565b6000821080611ec0575060128054905082115b15611f00576040518060600160405280600073ffffffffffffffffffffffffffffffffffffffff1681526020016000815260200160008152509050611fc0565b60128281548110611f3a577f4e487b7100000000000000000000000000000000000000000000000000000000600052603260045260246000fd5b90600052602060002090600302016040518060600160405290816000820160009054906101000a900473ffffffffffffffffffffffffffffffffffffffff1673ffffffffffffffffffffffffffffffffffffffff1673ffffffffffffffffffffffffffffffffffffffff1681526020016001820154815260200160028201548152505090505b919050565b60006002600001819055506000600260010160006101000a81548160ff021916908360ff16021790555060006002800181905550565b60003373ffffffffffffffffffffffffffffffffffffffff16600760009054906101000a900473ffffffffffffffffffffffffffffffffffffffff1673ffffffffffffffffffffffffffffffffffffffff161461208d576040517f08c379a000000000000000000000000000000000000000000000000000000000815260040161208490614422565b60405180910390fd5b600060026000015414806120d357506005546002800154436120af91906148da565b101580156120d257506003600260010160009054906101000a900460ff1660ff16145b5b612112576040517f08c379a0000000000000000000000000000000000000000000000000000000008152600401612109906146b0565b60405180910390fd5b601260006121209190613bc9565b600160026000015461213291906147f9565b6002600001819055506001600260010160006101000a81548160ff021916908360ff1602179055504360028001819055507fa8d2c21d589b7d639121c8460ba488844d6c62d64035b1c2248cba87c1118ddc600260000154600260010160009054906101000a900460ff1660028001546040516121b1939291906145a3565b60405180910390a16121c1613508565b6001905090565b6121d0613bed565b6121d8613bed565b6121e0613ac9565b6121e8613573565b90506040518060c001604052808260006005811061222f577f4e487b7100000000000000000000000000000000000000000000000000000000600052603260045260246000fd5b6020020151815260200182600160058110612273577f4e487b7100000000000000000000000000000000000000000000000000000000600052603260045260246000fd5b60200201518152602001826002600581106122b7577f4e487b7100000000000000000000000000000000000000000000000000000000600052603260045260246000fd5b60200201518152602001826003600581106122fb577f4e487b7100000000000000000000000000000000000000000000000000000000600052603260045260246000fd5b602002015181526020018260046005811061233f577f4e487b7100000000000000000000000000000000000000000000000000000000600052603260045260246000fd5b60200201518152602001600d548152509150819250505090565b3373ffffffffffffffffffffffffffffffffffffffff16600760009054906101000a900473ffffffffffffffffffffffffffffffffffffffff1673ffffffffffffffffffffffffffffffffffffffff16146123e9576040517f08c379a00000000000000000000000000000000000000000000000000000000081526004016123e090614422565b60405180910390fd5b60007f19a99ed74cffaee0111e4498be3165a1b5b49f9195bf4ab475e1d132dd7f1e63600260000154600260010160009054906101000a900460ff16600280015460405161243993929190614726565b60405180910390a16001600260010160009054906101000a900460ff1660ff1614156128d1577f28382a7cabca04d64465d80343fef5f9aa47f162cc9bad43c5c8ddd2db89ea234760405161248e919061470b565b60405180910390a17fef4f526af5a28bf7196270c7e8fd679574029e4f58ff2bd2f75cf9b7893c5066600760009054906101000a900473ffffffffffffffffffffffffffffffffffffffff16600760009054906101000a900473ffffffffffffffffffffffffffffffffffffffff1673ffffffffffffffffffffffffffffffffffffffff163160405161252292919061431c565b60405180910390a160005b60118054905081101561284d577fdde93ab87fc63630cb2edd79b57c019ec349bc541407bc5c89b9bc700c0dc82d60118281548110612595577f4e487b7100000000000000000000000000000000000000000000000000000000600052603260045260246000fd5b906000526020600020906007020160000160009054906101000a900473ffffffffffffffffffffffffffffffffffffffff1660118381548110612601577f4e487b7100000000000000000000000000000000000000000000000000000000600052603260045260246000fd5b906000526020600020906007020160000160009054906101000a900473ffffffffffffffffffffffffffffffffffffffff1673ffffffffffffffffffffffffffffffffffffffff163160405161265892919061431c565b60405180910390a16011818154811061269a577f4e487b7100000000000000000000000000000000000000000000000000000000600052603260045260246000fd5b906000526020600020906007020160000160009054906101000a900473ffffffffffffffffffffffffffffffffffffffff1673ffffffffffffffffffffffffffffffffffffffff166108fc6001549081150290604051600060405180830381858888f19350505050158015612713573d6000803e3d6000fd5b507f3350bae9e4194d05ab0c575d951f34efac5437f59d7b031502451a2bb12352786011828154811061276f577f4e487b7100000000000000000000000000000000000000000000000000000000600052603260045260246000fd5b906000526020600020906007020160000160009054906101000a900473ffffffffffffffffffffffffffffffffffffffff16601183815481106127db577f4e487b7100000000000000000000000000000000000000000000000000000000600052603260045260246000fd5b906000526020600020906007020160000160009054906101000a900473ffffffffffffffffffffffffffffffffffffffff1673ffffffffffffffffffffffffffffffffffffffff163160405161283292919061431c565b60405180910390a18080612845906149e4565b91505061252d565b506128566138b4565b6003600260010160006101000a81548160ff021916908360ff1602179055507f652cbaf7d5247f2b8b1602dcf4624da7b603fca5b536016ba1b7ec8a866381ec600260000154600260010160009054906101000a900460ff1660028001546040516128c393929190614726565b60405180910390a150612e40565b60028060010160009054906101000a900460ff1660ff161415612b8e576128f661045d565b5060118054905060015461290a9190614880565b90507f28382a7cabca04d64465d80343fef5f9aa47f162cc9bad43c5c8ddd2db89ea234760405161293b919061470b565b60405180910390a17fef4f526af5a28bf7196270c7e8fd679574029e4f58ff2bd2f75cf9b7893c5066600760009054906101000a900473ffffffffffffffffffffffffffffffffffffffff16600760009054906101000a900473ffffffffffffffffffffffffffffffffffffffff1673ffffffffffffffffffffffffffffffffffffffff16316040516129cf92919061431c565b60405180910390a1600760009054906101000a900473ffffffffffffffffffffffffffffffffffffffff1673ffffffffffffffffffffffffffffffffffffffff166108fc829081150290604051600060405180830381858888f19350505050158015612a3f573d6000803e3d6000fd5b507f6883c54c7c75e23fcb8795839fc456fae154d99dfd2516999afaef86dffc300947604051612a6f919061470b565b60405180910390a17f5bbcc44e3087d119ba2a6e6fb5600c90f149a787dce36e41415680a26fadf1ab600760009054906101000a900473ffffffffffffffffffffffffffffffffffffffff16600760009054906101000a900473ffffffffffffffffffffffffffffffffffffffff1673ffffffffffffffffffffffffffffffffffffffff1631604051612b0392919061431c565b60405180910390a1612b136138b4565b6003600260010160006101000a81548160ff021916908360ff1602179055507f652cbaf7d5247f2b8b1602dcf4624da7b603fca5b536016ba1b7ec8a866381ec600260000154600260010160009054906101000a900460ff166002800154604051612b8093929190614726565b60405180910390a150612e40565b6003600260010160009054906101000a900460ff1660ff161415612e3e577f28382a7cabca04d64465d80343fef5f9aa47f162cc9bad43c5c8ddd2db89ea2347604051612bdb919061470b565b60405180910390a17fef4f526af5a28bf7196270c7e8fd679574029e4f58ff2bd2f75cf9b7893c5066600760009054906101000a900473ffffffffffffffffffffffffffffffffffffffff16600760009054906101000a900473ffffffffffffffffffffffffffffffffffffffff1673ffffffffffffffffffffffffffffffffffffffff1631604051612c6f92919061431c565b60405180910390a1601180549050600154612c8a9190614880565b9050600760009054906101000a900473ffffffffffffffffffffffffffffffffffffffff1673ffffffffffffffffffffffffffffffffffffffff166108fc829081150290604051600060405180830381858888f19350505050158015612cf4573d6000803e3d6000fd5b507f6883c54c7c75e23fcb8795839fc456fae154d99dfd2516999afaef86dffc300947604051612d24919061470b565b60405180910390a17f5bbcc44e3087d119ba2a6e6fb5600c90f149a787dce36e41415680a26fadf1ab600760009054906101000a900473ffffffffffffffffffffffffffffffffffffffff16600760009054906101000a900473ffffffffffffffffffffffffffffffffffffffff1673ffffffffffffffffffffffffffffffffffffffff1631604051612db892919061431c565b60405180910390a1612dc86138b4565b6003600260010160006101000a81548160ff021916908360ff1602179055507f652cbaf7d5247f2b8b1602dcf4624da7b603fca5b536016ba1b7ec8a866381ec600260000154600260010160009054906101000a900460ff166002800154604051612e3593929190614726565b60405180910390a15b505b565b60008060009050600584148015612e565750825b15612e6057600190505b600584148015612e6e575082155b15612e7857600290505b600484148015612e855750825b15612e8f57600390505b600484148015612e9d575082155b80612eb15750600384148015612eb05750825b5b15612ebb57600490505b600384148015612ec9575082155b80612edd5750600284148015612edc5750825b5b15612ee757600590505b600284148015612ef5575082155b80612f095750600184148015612f085750825b5b15612f1357600690505b600184148015612f21575082155b15612f2b57600790505b600084148015612f385750825b15612f4257600890505b8091505092915050565b3373ffffffffffffffffffffffffffffffffffffffff16600760009054906101000a900473ffffffffffffffffffffffffffffffffffffffff1673ffffffffffffffffffffffffffffffffffffffff1614612fdc576040517f08c379a0000000000000000000000000000000000000000000000000000000008152600401612fd390614422565b60405180910390fd5b6000821161301f576040517f08c379a000000000000000000000000000000000000000000000000000000000815260040161301690614402565b60405180910390fd5b60018110158015613031575060088111155b613070576040517f08c379a0000000000000000000000000000000000000000000000000000000008152600401613067906146d0565b60405180910390fd5b60005b8281101561326c57613083613aeb565b61308d6000613337565b613097600061334d565b8160000181815250508281602001818152505060006130be6130b9600061334d565b61335b565b6130cb836020015161335b565b6040516020016130dc929190614259565b6040516020818303038152906040529050808260400181905250600f82908060018154018082558091505060019003906000526020600020906003020160009091909190915060008201518160000155602082015181600101556040820151816002019080519060200190613152929190613b0c565b5050507fd9ce4229b2eea6ac3330e233aaa8f28667617e6473ff7b01c64e7934d1f3ebbe826000015183602001518460400151604051613194939291906144b6565b60405180910390a1600e60009054906101000a900473ffffffffffffffffffffffffffffffffffffffff1673ffffffffffffffffffffffffffffffffffffffff1663d3fc9864600760009054906101000a900473ffffffffffffffffffffffffffffffffffffffff16846000015185604001516040518463ffffffff1660e01b815260040161322593929190614345565b600060405180830381600087803b15801561323f57600080fd5b505af1158015613253573d6000803e3d6000fd5b5050505050508080613264906149e4565b915050613073565b505050565b600080600654600554600280015461328991906147f9565b61329391906147f9565b905060008140846040516020016132ab9291906143b9565b60405160208183030381529060405280519060200120905060008160001c9050809350505050919050565b600080600090508215613303576001601a856132f29190614a2d565b6132fc91906147f9565b905061331f565b60016045856133129190614a2d565b61331c91906147f9565b90505b600081141561332d57600190505b8091505092915050565b6001816000016000828254019250508190555050565b600081600001549050919050565b606060008214156133a3576040518060400160405280600181526020017f30000000000000000000000000000000000000000000000000000000000000008152509050613503565b600082905060005b600082146133d55780806133be906149e4565b915050600a826133ce919061484f565b91506133ab565b60008167ffffffffffffffff811115613417577f4e487b7100000000000000000000000000000000000000000000000000000000600052604160045260246000fd5b6040519080825280601f01601f1916602001820160405280156134495781602001600182028036833780820191505090505b5090505b600085146134fc5760018261346291906148da565b9150600a856134719190614a2d565b603061347d91906147f9565b60f81b8183815181106134b9577f4e487b7100000000000000000000000000000000000000000000000000000000600052603260045260246000fd5b60200101907effffffffffffffffffffffffffffffffffffffffffffffffffffffffffffff1916908160001a905350600a856134f5919061484f565b945061344d565b8093505050505b919050565b60005b600581101561356857600060088260058110613550577f4e487b7100000000000000000000000000000000000000000000000000000000600052603260045260246000fd5b01819055508080613560906149e4565b91505061350b565b506000600d81905550565b61357b613ac9565b60006040518060a0016040528060086000600581106135c3577f4e487b7100000000000000000000000000000000000000000000000000000000600052603260045260246000fd5b015481526020016008600160058110613605577f4e487b7100000000000000000000000000000000000000000000000000000000600052603260045260246000fd5b015481526020016008600260058110613647577f4e487b7100000000000000000000000000000000000000000000000000000000600052603260045260246000fd5b015481526020016008600360058110613689577f4e487b7100000000000000000000000000000000000000000000000000000000600052603260045260246000fd5b0154815260200160086004600581106136cb577f4e487b7100000000000000000000000000000000000000000000000000000000600052603260045260246000fd5b01548152509050600080600090505b60058110156138ab5760006001826136f291906147f9565b90505b600581101561389757838160058110613737577f4e487b7100000000000000000000000000000000000000000000000000000000600052603260045260246000fd5b6020020151848360058110613775577f4e487b7100000000000000000000000000000000000000000000000000000000600052603260045260246000fd5b60200201511115613884578382600581106137b9577f4e487b7100000000000000000000000000000000000000000000000000000000600052603260045260246000fd5b602002015192508381600581106137f9577f4e487b7100000000000000000000000000000000000000000000000000000000600052603260045260246000fd5b6020020151848360058110613837577f4e487b7100000000000000000000000000000000000000000000000000000000600052603260045260246000fd5b6020020181815250508284826005811061387a577f4e487b7100000000000000000000000000000000000000000000000000000000600052603260045260246000fd5b6020020181815250505b808061388f906149e4565b9150506136f5565b5080806138a3906149e4565b9150506136da565b50819250505090565b60005b6005811015613914576000600882600581106138fc577f4e487b7100000000000000000000000000000000000000000000000000000000600052603260045260246000fd5b0181905550808061390c906149e4565b9150506138b7565b506000600d819055506010600061392b9190613a2b565b601160006139399190613c0f565b565b604051806101000160405280600890602082028036833780820191505090505090565b82805461396a906149b2565b90600052602060002090601f01602090048101928261398c57600085556139da565b82601f1061399d57805485556139da565b828001600101855582156139da57600052602060002091601f016020900482015b828111156139d95782548255916001019190600101906139be565b5b5090506139e79190613c33565b5090565b5080546139f7906149b2565b6000825580601f10613a095750613a28565b601f016020900490600052602060002090810190613a279190613c33565b5b50565b5080546000825590600052602060002090810190613a499190613c33565b50565b6040518060600160405280600073ffffffffffffffffffffffffffffffffffffffff168152602001613a7c613ac9565b8152602001600081525090565b8260058101928215613ab8579160200282015b82811115613ab7578251825591602001919060010190613a9c565b5b509050613ac59190613c33565b5090565b6040518060a00160405280600590602082028036833780820191505090505090565b60405180606001604052806000815260200160008152602001606081525090565b828054613b18906149b2565b90600052602060002090601f016020900481019282613b3a5760008555613b81565b82601f10613b5357805160ff1916838001178555613b81565b82800160010185558215613b81579182015b82811115613b80578251825591602001919060010190613b65565b5b509050613b8e9190613c33565b5090565b6040518060600160405280600073ffffffffffffffffffffffffffffffffffffffff16815260200160008152602001600081525090565b5080546000825560030290600052602060002090810190613bea9190613c50565b50565b6040518060c00160405280600690602082028036833780820191505090505090565b5080546000825560070290600052602060002090810190613c309190613c9e565b50565b5b80821115613c4c576000816000905550600101613c34565b5090565b5b80821115613c9a57600080820160006101000a81549073ffffffffffffffffffffffffffffffffffffffff02191690556001820160009055600282016000905550600301613c51565b5090565b5b80821115613cf057600080820160006101000a81549073ffffffffffffffffffffffffffffffffffffffff0219169055600182016000613cdf9190613cf4565b600682016000905550600701613c9f565b5090565b506000815560010160008155600101600081556001016000815560010160009055565b600081359050613d2681614f0b565b92915050565b600081359050613d3b81614f22565b92915050565b600060208284031215613d5357600080fd5b6000613d6184828501613d17565b91505092915050565b600060208284031215613d7c57600080fd5b6000613d8a84828501613d2c565b91505092915050565b60008060008060008060c08789031215613dac57600080fd5b6000613dba89828a01613d2c565b9650506020613dcb89828a01613d2c565b9550506040613ddc89828a01613d2c565b9450506060613ded89828a01613d2c565b9350506080613dfe89828a01613d2c565b92505060a0613e0f89828a01613d2c565b9150509295509295509295565b6000613e28838361421d565b60208301905092915050565b613e3d8161490e565b82525050565b613e4c8161490e565b82525050565b613e5b8161478c565b613e6581846147c7565b9250613e7082614778565b8060005b83811015613ea1578151613e888782613e1c565b9650613e93836147ad565b925050600181019050613e74565b505050505050565b613eb281614797565b613ebc81846147d2565b9250613ec782614782565b8060005b83811015613ef8578151613edf8782613e1c565b9650613eea836147ba565b925050600181019050613ecb565b505050505050565b613f0981614920565b82525050565b613f188161492c565b82525050565b6000613f29826147a2565b613f3381856147dd565b9350613f4381856020860161497f565b613f4c81614aeb565b840191505092915050565b6000613f62826147a2565b613f6c81856147ee565b9350613f7c81856020860161497f565b80840191505092915050565b6000613f95603e836147dd565b9150613fa082614afc565b604082019050919050565b6000613fb86011836147ee565b9150613fc382614b4b565b601182019050919050565b6000613fdb601a836147dd565b9150613fe682614b74565b602082019050919050565b6000613ffe6015836147dd565b915061400982614b9d565b602082019050919050565b6000614021600e836147dd565b915061402c82614bc6565b602082019050919050565b6000614044600a836147dd565b915061404f82614bef565b602082019050919050565b60006140676039836147dd565b915061407282614c18565b604082019050919050565b600061408a600e836147dd565b915061409582614c67565b602082019050919050565b60006140ad6036836147dd565b91506140b882614c90565b604082019050919050565b60006140d0607d836147dd565b91506140db82614cdf565b608082019050919050565b60006140f36009836147dd565b91506140fe82614d7a565b602082019050919050565b60006141166009836147ee565b915061412182614da3565b600982019050919050565b6000614139600d836147dd565b915061414482614dcc565b602082019050919050565b600061415c601a836147dd565b915061416782614df5565b602082019050919050565b600061417f6031836147dd565b915061418a82614e1e565b604082019050919050565b60006141a2602f836147dd565b91506141ad82614e6d565b604082019050919050565b60006141c56024836147dd565b91506141d082614ebc565b604082019050919050565b6060820160008201516141f16000850182613e34565b506020820151614204602085018261421d565b506040820151614217604085018261421d565b50505050565b61422681614956565b82525050565b61423581614956565b82525050565b6142448161496d565b82525050565b61425381614960565b82525050565b600061426482613fab565b91506142708285613f57565b915061427b82614109565b91506142878284613f57565b91508190509392505050565b60006020820190506142a86000830184613e43565b92915050565b60006060820190506142c36000830186613e43565b6142d06020830185613e43565b6142dd604083018461422c565b949350505050565b600060e0820190506142fa6000830186613e43565b6143076020830185613e52565b61431460c083018461422c565b949350505050565b60006040820190506143316000830185613e43565b61433e602083018461422c565b9392505050565b600060608201905061435a6000830186613e43565b614367602083018561422c565b81810360408301526143798184613f1e565b9050949350505050565b600060c0820190506143986000830184613ea9565b92915050565b60006020820190506143b36000830184613f00565b92915050565b60006040820190506143ce6000830185613f0f565b6143db602083018461422c565b9392505050565b600060208201905081810360008301526143fb81613f88565b9050919050565b6000602082019050818103600083015261441b81613fce565b9050919050565b6000602082019050818103600083015261443b81613ff1565b9050919050565b600060e082019050818103600083015261445b81614014565b905061446a602083018961422c565b614477604083018861422c565b614484606083018761422c565b614491608083018661422c565b61449e60a083018561422c565b6144ab60c083018461422c565b979650505050505050565b600060808201905081810360008301526144cf81614037565b90506144de602083018661422c565b6144eb604083018561422c565b81810360608301526144fd8184613f1e565b9050949350505050565b600060208201905081810360008301526145208161405a565b9050919050565b600060608201905081810360008301526145408161407d565b905061454f6020830185613e43565b61455c604083018461422c565b9392505050565b6000602082019050818103600083015261457c816140a0565b9050919050565b6000602082019050818103600083015261459c816140c3565b9050919050565b600060808201905081810360008301526145bc816140e6565b90506145cb602083018661422c565b6145d8604083018561423b565b6145e5606083018461422c565b949350505050565b60006101008201905081810360008301526146078161412c565b9050614616602083018a613e43565b614623604083018961422c565b614630606083018861422c565b61463d608083018761422c565b61464a60a083018661422c565b61465760c083018561422c565b61466460e083018461422c565b98975050505050505050565b600060208201905081810360008301526146898161414f565b9050919050565b600060208201905081810360008301526146a981614172565b9050919050565b600060208201905081810360008301526146c981614195565b9050919050565b600060208201905081810360008301526146e9816141b8565b9050919050565b600060608201905061470560008301846141db565b92915050565b6000602082019050614720600083018461422c565b92915050565b600060608201905061473b600083018661422c565b614748602083018561423b565b614755604083018461422c565b949350505050565b6000602082019050614772600083018461424a565b92915050565b6000819050919050565b6000819050919050565b600060059050919050565b600060069050919050565b600081519050919050565b6000602082019050919050565b6000602082019050919050565b600081905092915050565b600081905092915050565b600082825260208201905092915050565b600081905092915050565b600061480482614956565b915061480f83614956565b9250827fffffffffffffffffffffffffffffffffffffffffffffffffffffffffffffffff0382111561484457614843614a5e565b5b828201905092915050565b600061485a82614956565b915061486583614956565b92508261487557614874614a8d565b5b828204905092915050565b600061488b82614956565b915061489683614956565b9250817fffffffffffffffffffffffffffffffffffffffffffffffffffffffffffffffff04831182151516156148cf576148ce614a5e565b5b828202905092915050565b60006148e582614956565b91506148f083614956565b92508282101561490357614902614a5e565b5b828203905092915050565b600061491982614936565b9050919050565b60008115159050919050565b6000819050919050565b600073ffffffffffffffffffffffffffffffffffffffff82169050919050565b6000819050919050565b600060ff82169050919050565b600061497882614960565b9050919050565b60005b8381101561499d578082015181840152602081019050614982565b838111156149ac576000848401525b50505050565b600060028204905060018216806149ca57607f821691505b602082108114156149de576149dd614abc565b5b50919050565b60006149ef82614956565b91507fffffffffffffffffffffffffffffffffffffffffffffffffffffffffffffffff821415614a2257614a21614a5e565b5b600182019050919050565b6000614a3882614956565b9150614a4383614956565b925082614a5357614a52614a8d565b5b828206905092915050565b7f4e487b7100000000000000000000000000000000000000000000000000000000600052601160045260246000fd5b7f4e487b7100000000000000000000000000000000000000000000000000000000600052601260045260246000fd5b7f4e487b7100000000000000000000000000000000000000000000000000000000600052602260045260246000fd5b6000601f19601f8301169050919050565b7f4572726f723a206c6f747465727920726f756e64206973206e6f74206163746960008201527f76652c20696d706f737369626c6520746f20627579207469636b657473210000602082015250565b7f436f6e74656e74206f6620546f6b656e20000000000000000000000000000000600082015250565b7f4572726f723a206e206d75737420626520706f73697469766521000000000000600082015250565b7f4572726f723a206e6f7420617574686f72697a65640000000000000000000000600082015250565b7f57696e6e696e67207469636b6574000000000000000000000000000000000000600082015250565b7f4d696e746564204e465400000000000000000000000000000000000000000000600082015250565b7f4572726f723a20696e76616c6964206c6f74746572792073746174652c20696d60008201527f706f737369626c6520746f2064726177206e756d626572732100000000000000602082015250565b7f41737369676e6564207072697a65000000000000000000000000000000000000600082015250565b7f4572726f723a2077726f6e6720726f756e642073746174652c20696d706f737360008201527f69626c6520746f2061737369676e207072697a65732100000000000000000000602082015250565b7f4572726f723a20696e76616c6964206c6f7474657279206e756d626572732e2060008201527f5468652066697273742066697665206e756d62657273206d757374206265206260208201527f65747765656e203120616e64203639207768696c652074686520706f7765726260408201527f616c6c206d757374206265206265747765656e203120616e6420323621000000606082015250565b7f4e657720526f756e640000000000000000000000000000000000000000000000600082015250565b7f206f662072616e6b200000000000000000000000000000000000000000000000600082015250565b7f5469636b657420626f7567687400000000000000000000000000000000000000600082015250565b7f4572726f723a20696e73756666696369656e742066756e647321000000000000600082015250565b7f4572726f723a206e756d62657273206d75737420626520646966666572656e7460008201527f2066726f6d2065616368206f7468657221000000000000000000000000000000602082015250565b7f4572726f723a20696d706f737369626c6520746f2073746172742061206e657760008201527f206c6f747465727920726f756e64210000000000000000000000000000000000602082015250565b7f4572726f723a2072616e6b206d757374206265206265747765656e203120616e60008201527f6420382100000000000000000000000000000000000000000000000000000000602082015250565b614f148161490e565b8114614f1f57600080fd5b50565b614f2b81614956565b8114614f3657600080fd5b5056fea2646970667358221220d2baa7df3ba590b8aa622eaea28557e01e277118aa613c502f4ec78e131298bf64736f6c63430008030033",
  "immutableReferences": {},
  "source": "// SPDX-License-Identifier: MIT\r\n// OpenZeppelin Contracts (last updated v4.6.0) (token/ERC721/ERC721.sol)\r\n\r\npragma solidity ^0.8.0;\r\n\r\nimport \"./LotteryGame.sol\";\r\nimport \"@openzeppelin/contracts/utils/Counters.sol\";\r\nimport \"@openzeppelin/contracts/utils/Strings.sol\";\r\n\r\ncontract Lottery {\r\n    using Counters for Counters.Counter;\r\n    Counters.Counter private tids;\r\n\r\n    uint256 price; //ticket price in wei\r\n\r\n    //Struct that represent a round of the lottery\r\n    struct lotteryRound {\r\n        uint256 number;\r\n        uint8 state; // 1 = active, 2 = disactive, 3 = finished\r\n        uint256 start_block; //block number from which the lottery starts\r\n    }\r\n    lotteryRound round;\r\n\r\n    uint256 M; // duration of a round (n blocks)\r\n    uint256 K; //paramater for random number generator\r\n    address lottery_operator;\r\n    uint256[5] standard_numbers; //from 1 to 69\r\n    uint256 special_number; //Powerball, from 1 to 26\r\n\r\n    LotteryGame item; //Lottery collection which contains NFTs\r\n\r\n    //Struct that represent a NFT\r\n    struct lotteryCollectible {\r\n        uint256 tokenId;\r\n        uint256 rank;\r\n        string content;\r\n    }\r\n    lotteryCollectible[] collection;\r\n\r\n    uint256[] prizes; //temporary pool of prizes of a given rank\r\n\r\n    modifier lotteryOperator() {\r\n        require(lottery_operator == msg.sender, \"Error: not authorized\");\r\n        _;\r\n    }\r\n\r\n    //Struct to mantain players of a round\r\n    struct Player {\r\n        address player_address;\r\n        uint256[5] numbers;\r\n        uint256 powerball;\r\n    }\r\n    Player[] lottery_players;\r\n\r\n    //Struct to mantain winners of a round\r\n    struct Winner {\r\n        address winner;\r\n        uint256 rank;\r\n        uint256 prize;\r\n    }\r\n    Winner[] lottery_winners;\r\n\r\n    /* --- Getter functions --- */\r\n\r\n    function getLotteryBalance() public view returns (uint256) {\r\n        return address(this).balance;\r\n    }\r\n\r\n    function getLotteryState() public view returns (bool) {\r\n        if (round.number == 0) {\r\n            return false;\r\n        } else {\r\n            return true;\r\n        }\r\n    }\r\n\r\n    function getLotteryRound() public view returns (uint256) {\r\n        return round.number;\r\n    }\r\n\r\n    function getLotteryRoundState() public view returns (uint8) {\r\n        return round.state;\r\n    }\r\n\r\n    function getLotteryOperator() public view returns (address) {\r\n        return lottery_operator;\r\n    }\r\n\r\n    function getNumNFT() public view returns (uint256) {\r\n        return collection.length;\r\n    }\r\n\r\n    function getNumTickets() public view returns (uint256) {\r\n        return lottery_players.length;\r\n    }\r\n\r\n    function getNumBoughtTickets(address addr) public view returns (uint256) {\r\n        uint256 res = 0;\r\n        for (uint256 i = 0; i < lottery_players.length; i++) {\r\n            if (lottery_players[i].player_address == addr) {\r\n                res++;\r\n            }\r\n        }\r\n\r\n        return res;\r\n    }\r\n\r\n    function getTicket(uint256 id)\r\n        public\r\n        view\r\n        returns (\r\n            address,\r\n            uint256[5] memory,\r\n            uint256\r\n        )\r\n    {\r\n        uint256[5] memory error_res;\r\n\r\n        if (id < 0 || id > lottery_players.length) {\r\n            return (address(0), error_res, uint256(0));\r\n        }\r\n\r\n        return (\r\n            lottery_players[id].player_address,\r\n            lottery_players[id].numbers,\r\n            lottery_players[id].powerball\r\n        );\r\n    }\r\n\r\n    function getDrawnNumbers() public view returns (uint256[6] memory) {\r\n        uint256[6] memory res;\r\n        uint256[5] memory standard_num;\r\n\r\n        standard_num = sortDrawnNumbers();\r\n        res = [\r\n            standard_num[0],\r\n            standard_num[1],\r\n            standard_num[2],\r\n            standard_num[3],\r\n            standard_num[4],\r\n            special_number\r\n        ];\r\n\r\n        return res;\r\n    }\r\n\r\n    function getNumAssignedPrizes() public view returns (uint256) {\r\n        return lottery_winners.length;\r\n    }\r\n\r\n    function getAssignedPrize(uint256 id) public view returns (Winner memory) {\r\n        if (id < 0 || id > lottery_winners.length) {\r\n            return Winner(address(0), uint256(0), uint256(0));\r\n        }\r\n\r\n        return lottery_winners[id];\r\n    }\r\n\r\n    /* -------------------------- */\r\n\r\n    //Function that reset a lottery round\r\n    function resetLotteryRound() public {\r\n        round.number = 0;\r\n        round.state = 0;\r\n        round.start_block = 0;\r\n    }\r\n\r\n    //Function that reset the drawn numbers\r\n    function resetDraw() internal {\r\n        for (uint256 i = 0; i < 5; i++) {\r\n            standard_numbers[i] = 0;\r\n        }\r\n\r\n        special_number = 0;\r\n    }\r\n\r\n    //Function that check the range of the drawn numbers\r\n    function convertDraws(uint256 n, bool isSpecial)\r\n        internal\r\n        pure\r\n        returns (uint256)\r\n    {\r\n        uint256 num = 0;\r\n\r\n        if (isSpecial) {\r\n            num = (n % 26) + 1;\r\n        } else {\r\n            num = (n % 69) + 1;\r\n        }\r\n\r\n        if (num == 0) {\r\n            num = 1;\r\n        }\r\n\r\n        return num;\r\n    }\r\n\r\n    //Function that assign the rank basing on the standard numbers and the powerball\r\n    function assignRanks(uint256 numbers, bool is_powerball)\r\n        internal\r\n        pure\r\n        returns (uint256)\r\n    {\r\n        uint256 rank = 0;\r\n\r\n        if (numbers == 5 && is_powerball) rank = 1;\r\n\r\n        if (numbers == 5 && !is_powerball) rank = 2;\r\n\r\n        if (numbers == 4 && is_powerball) rank = 3;\r\n\r\n        if ((numbers == 4 && !is_powerball) || (numbers == 3 && is_powerball))\r\n            rank = 4;\r\n\r\n        if ((numbers == 3 && !is_powerball) || (numbers == 2 && is_powerball))\r\n            rank = 5;\r\n\r\n        if ((numbers == 2 && !is_powerball) || (numbers == 1 && is_powerball))\r\n            rank = 6;\r\n\r\n        if (numbers == 1 && !is_powerball) rank = 7;\r\n\r\n        if (numbers == 0 && is_powerball) rank = 8;\r\n\r\n        return rank;\r\n    }\r\n\r\n    //Function that takes a seed and generates a random number leveraging on a source of randomness from the blockchain\r\n    function generateRandomNumber(uint256 seed)\r\n        internal\r\n        view\r\n        returns (uint256)\r\n    {\r\n        uint256 end_lottery_block = round.start_block + M + K;\r\n\r\n        bytes32 rand = keccak256(\r\n            abi.encode(blockhash(end_lottery_block), seed)\r\n        );\r\n        uint256 random_number = uint256(rand);\r\n\r\n        return random_number;\r\n    }\r\n\r\n    //Function that clean up the data structures\r\n    function delete_() internal {\r\n        for (uint256 i = 0; i < 5; i++) {\r\n            standard_numbers[i] = 0;\r\n        }\r\n\r\n        special_number = 0;\r\n\r\n        delete prizes;\r\n        delete lottery_players;\r\n        //delete lottery_winners;\r\n    }\r\n\r\n    //Function that sort the winning numbers in ascendent order\r\n    function sortDrawnNumbers() internal view returns (uint256[5] memory) {\r\n        uint256[5] memory drawn_numbers = [\r\n            standard_numbers[0],\r\n            standard_numbers[1],\r\n            standard_numbers[2],\r\n            standard_numbers[3],\r\n            standard_numbers[4]\r\n        ];\r\n        uint256 temp;\r\n\r\n        for (uint256 i = 0; i < drawn_numbers.length; i++) {\r\n            for (uint256 j = i + 1; j < drawn_numbers.length; j++) {\r\n                if (drawn_numbers[i] > drawn_numbers[j]) {\r\n                    temp = drawn_numbers[i];\r\n                    drawn_numbers[i] = drawn_numbers[j];\r\n                    drawn_numbers[j] = temp;\r\n                }\r\n            }\r\n        }\r\n\r\n        return drawn_numbers;\r\n    }\r\n\r\n    event Collectible(string str, uint256 id, uint256 rank, string content);\r\n\r\n    //Function that mint n NFTs of rank r, if necessary\r\n    function mintOnDemand(uint256 n, uint256 r) internal lotteryOperator {\r\n        require(n > 0, \"Error: n must be positive!\");\r\n        require(r >= 1 && r <= 8, \"Error: rank must be between 1 and 8!\");\r\n\r\n        for (uint256 j = 0; j < n; j++) {\r\n            lotteryCollectible memory new_item;\r\n            tids.increment();\r\n            new_item.tokenId = tids.current();\r\n            new_item.rank = r;\r\n            string memory str = string(\r\n                abi.encodePacked(\r\n                    \"Content of Token \",\r\n                    Strings.toString(tids.current()),\r\n                    \" of rank \",\r\n                    Strings.toString(new_item.rank)\r\n                )\r\n            );\r\n            new_item.content = str;\r\n            collection.push(new_item);\r\n            emit Collectible(\r\n                \"Minted NFT\",\r\n                new_item.tokenId,\r\n                new_item.rank,\r\n                new_item.content\r\n            );\r\n            item.mint(lottery_operator, new_item.tokenId, new_item.content);\r\n        }\r\n    }\r\n\r\n    /* ----------------------------------------------------------------------- */\r\n\r\n    constructor(\r\n        uint256 price_,\r\n        uint256 M_,\r\n        uint256 K_,\r\n        address lottery_address\r\n    ) {\r\n        if (price_ <= 0) {\r\n            price = 10;\r\n        } else {\r\n            price = price_;\r\n        }\r\n\r\n        if (M_ <= 0) {\r\n            M = 10;\r\n        } else {\r\n            M = M_;\r\n        }\r\n\r\n        if (K_ <= 0) {\r\n            K = 123;\r\n        } else {\r\n            K = K_;\r\n        }\r\n\r\n        round = lotteryRound(0, 0, 0);\r\n        lottery_operator = msg.sender;\r\n\r\n        resetDraw();\r\n\r\n        item = LotteryGame(lottery_address);\r\n    }\r\n\r\n    event Round(\r\n        string str,\r\n        uint256 round_number,\r\n        uint256 round_state,\r\n        uint256 round_start\r\n    );\r\n\r\n    //Function that start a new lottery round\r\n    function startNewRound() public lotteryOperator returns (bool) {\r\n        require(\r\n            ((round.number == 0) ||\r\n                ((block.number - round.start_block) >= M && round.state == 3)),\r\n            \"Error: impossible to start a new lottery round!\"\r\n        );\r\n\r\n        delete lottery_winners;\r\n        round.number = round.number + 1;\r\n        round.state = 1;\r\n        round.start_block = block.number;\r\n        emit Round(\"New Round\", round.number, round.state, round.start_block);\r\n\r\n        resetDraw();\r\n\r\n        return true;\r\n    }\r\n\r\n    event Ticket(\r\n        string str,\r\n        address player,\r\n        uint256 number1,\r\n        uint256 number2,\r\n        uint256 number3,\r\n        uint256 number4,\r\n        uint256 number5,\r\n        uint256 powerball\r\n    );\r\n\r\n    //Function used by a player to select the numbers and buy a ticket\r\n    function buy(\r\n        uint256 n1,\r\n        uint256 n2,\r\n        uint256 n3,\r\n        uint256 n4,\r\n        uint256 n5,\r\n        uint256 n6\r\n    ) public payable returns (bool) {\r\n        require(\r\n            (n1 >= 1 && n1 <= 69) &&\r\n                (n2 >= 1 && n2 <= 69) &&\r\n                (n3 >= 1 && n3 <= 69) &&\r\n                (n4 >= 1 && n4 <= 69) &&\r\n                (n5 >= 1 && n5 <= 69) &&\r\n                (n6 >= 1 && n6 <= 26),\r\n            \"Error: invalid lottery numbers. The first five numbers must be between 1 and 69 while the powerball must be between 1 and 26!\"\r\n        );\r\n        require(\r\n            n1 != n2 &&\r\n                n1 != n3 &&\r\n                n1 != n4 &&\r\n                n1 != n5 &&\r\n                n2 != n3 &&\r\n                n2 != n4 &&\r\n                n2 != n5 &&\r\n                n3 != n4 &&\r\n                n3 != n5 &&\r\n                n4 != n5,\r\n            \"Error: numbers must be different from each other!\"\r\n        );\r\n        require(\r\n            round.state == 1,\r\n            \"Error: lottery round is not active, impossible to buy tickets!\"\r\n        );\r\n        require(msg.value >= price, \"Error: insufficient funds!\");\r\n\r\n        Player memory player;\r\n        player.player_address = msg.sender;\r\n        player.numbers[0] = n1;\r\n        player.numbers[1] = n2;\r\n        player.numbers[2] = n3;\r\n        player.numbers[3] = n4;\r\n        player.numbers[4] = n5;\r\n        player.powerball = n6;\r\n\r\n        emit Ticket(\"Ticket bought\", msg.sender, n1, n2, n3, n4, n5, n6);\r\n\r\n        lottery_players.push(player);\r\n\r\n        if (msg.value > price) {\r\n            uint256 change = msg.value - price;\r\n            payable(msg.sender).transfer(change);\r\n        }\r\n\r\n        return true;\r\n    }\r\n\r\n    event WinningTicket(\r\n        string str,\r\n        uint256 n1,\r\n        uint256 n2,\r\n        uint256 n3,\r\n        uint256 n4,\r\n        uint256 n5,\r\n        uint256 n6\r\n    );\r\n\r\n    //Function that draw the winning ticket using a RNG\r\n    function drawNumbers() public lotteryOperator returns (bool) {\r\n        require(\r\n            round.state == 1 && (block.number - round.start_block) >= M + K,\r\n            \"Error: invalid lottery state, impossible to draw numbers!\"\r\n        );\r\n\r\n        uint256 seed = 0;\r\n        uint256 num = 0;\r\n\r\n        for (uint256 i = 0; i < 6; i++) {\r\n            seed = block.number + i;\r\n            uint256 rand = generateRandomNumber(seed);\r\n            if (i == 5) {\r\n                num = convertDraws(rand, true);\r\n                special_number = num;\r\n            } else {\r\n                num = convertDraws(rand, false);\r\n                standard_numbers[i] = num;\r\n            }\r\n        }\r\n\r\n        emit WinningTicket(\r\n            \"Winning ticket\",\r\n            standard_numbers[0],\r\n            standard_numbers[1],\r\n            standard_numbers[2],\r\n            standard_numbers[3],\r\n            standard_numbers[4],\r\n            special_number\r\n        );\r\n\r\n        round.state = 2; //disactive round (draw has been performed)\r\n\r\n        return true;\r\n    }\r\n\r\n    event Prize(string str, address dst, uint256 id_);\r\n\r\n    event AssignedPrizes(bool assigned);\r\n\r\n    //Function that check if there are winners and assign appropriate prizes to them\r\n    function givePrizes() public lotteryOperator returns (bool) {\r\n        require(\r\n            round.state == 2,\r\n            \"Error: wrong round state, impossible to assign prizes!\"\r\n        );\r\n\r\n        //Loop that compare the numbers picked by the users with the numbers drawn by the lottery\r\n        for (uint256 i = 0; i < lottery_players.length; i++) {\r\n            uint256 winner_numbers = 0;\r\n            bool winner_powerball = false;\r\n\r\n            for (uint256 j = 0; j < 5; j++) {\r\n                for (uint256 m = 0; m < 5; m++) {\r\n                    if (lottery_players[i].numbers[j] == standard_numbers[m]) {\r\n                        winner_numbers = winner_numbers + 1;\r\n                        break;\r\n                    }\r\n                }\r\n            }\r\n\r\n            if (lottery_players[i].powerball == special_number) {\r\n                winner_powerball = true;\r\n            }\r\n\r\n            //Pick the winners of the lottery round and add them in a winners' list\r\n            if (winner_numbers > 0 || winner_powerball == true) {\r\n                uint256 prize_rank = assignRanks(\r\n                    winner_numbers,\r\n                    winner_powerball\r\n                );\r\n                Winner memory winner = Winner(\r\n                    lottery_players[i].player_address,\r\n                    prize_rank,\r\n                    0\r\n                );\r\n                lottery_winners.push(winner);\r\n            }\r\n        }\r\n\r\n        //Check if there is a number of winners of a certain class which is greater than the number of prizes of that class\r\n        uint256[8] memory num_winners_rank; //array which mantain the number of winners for each rank\r\n\r\n        for (uint256 j = 0; j < 8; j++) {\r\n            num_winners_rank[j] = 0;\r\n        }\r\n\r\n        for (uint256 i = 0; i < lottery_winners.length; i++) {\r\n            uint256 winner_rank = lottery_winners[i].rank;\r\n            num_winners_rank[winner_rank - 1]++;\r\n        }\r\n\r\n        //Mint an amount of prizes of a certain rank (only if the number of winners of a certain class is greater than the prizes of that class)\r\n        for (uint256 j = 0; j < 8; j++) {\r\n            uint256 rank_ = j + 1;\r\n            uint256 prizes_to_mint = num_winners_rank[j];\r\n\r\n            if (prizes_to_mint > 0) {\r\n                mintOnDemand(prizes_to_mint, rank_);\r\n            }\r\n        }\r\n\r\n        //Select appropriate prizes and assign to the winners according to their ranks\r\n        for (uint256 k = 0; k < lottery_winners.length; k++) {\r\n            uint256 winner_rank = lottery_winners[k].rank;\r\n\r\n            //Get all prizes of a given rank\r\n            for (uint256 n = 0; n < collection.length; n++) {\r\n                if (collection[n].rank == winner_rank) {\r\n                    prizes.push(collection[n].tokenId);\r\n                }\r\n            }\r\n\r\n            //Select a random prize of a certain rank\r\n            uint256 seed = block.number + k;\r\n            uint256 random = generateRandomNumber(seed);\r\n            uint256 prize_id = random % (prizes.length);\r\n            uint256 prize = prizes[prize_id];\r\n\r\n            lottery_winners[k].prize = prize;\r\n\r\n            item.safeTransferFrom(\r\n                lottery_operator,\r\n                lottery_winners[k].winner,\r\n                prize\r\n            ); //send the prize to the winner\r\n\r\n            //Remove the prize from the collection of all available prizes\r\n            for (uint256 t = 0; t < collection.length; t++) {\r\n                if (collection[t].tokenId == prize) {\r\n                    collection[t] = collection[collection.length - 1];\r\n                    collection.pop();\r\n                }\r\n            }\r\n\r\n            emit Prize(\"Assigned prize\", lottery_winners[k].winner, prize);\r\n\r\n            delete prizes; //clean the temporary pool of prizes of a given rank\r\n        }\r\n\r\n        emit AssignedPrizes(true);\r\n\r\n        round.state = 3; //round finished\r\n\r\n        return true;\r\n    }\r\n\r\n    //Function that mint n NFTs for each class\r\n    function mint(uint256 n) public lotteryOperator {\r\n        require(n > 0, \"Error: n must be positive!\");\r\n\r\n        for (uint256 i = 0; i < 8; i++) {\r\n            for (uint256 j = 0; j < n; j++) {\r\n                lotteryCollectible memory new_item;\r\n                tids.increment();\r\n                new_item.tokenId = tids.current();\r\n                new_item.rank = i + 1;\r\n                string memory str = string(\r\n                    abi.encodePacked(\r\n                        \"Content of Token \",\r\n                        Strings.toString(tids.current()),\r\n                        \" of rank \",\r\n                        Strings.toString(new_item.rank)\r\n                    )\r\n                );\r\n                new_item.content = str;\r\n\r\n                collection.push(new_item);\r\n\r\n                emit Collectible(\r\n                    \"Minted NFT\",\r\n                    new_item.tokenId,\r\n                    new_item.rank,\r\n                    new_item.content\r\n                );\r\n\r\n                item.mint(lottery_operator, new_item.tokenId, new_item.content);\r\n            }\r\n        }\r\n    }\r\n\r\n    event RoundBeforeClosing(\r\n        uint256 round_num,\r\n        uint256 round_st,\r\n        uint256 round_sb\r\n    );\r\n    event RoundAfterClosing(\r\n        uint256 round_num,\r\n        uint256 round_st,\r\n        uint256 round_sb\r\n    );\r\n\r\n    event BalanceContractBeforeClosing(uint256 tot);\r\n    event BalanceContractAfterClosing(uint256 tot);\r\n\r\n    event BalanceOpBeforeClosing(address op, uint256 tot);\r\n    event BalanceOpAfterClosing(address op, uint256 tot);\r\n\r\n    event BalancePlayerBeforeRefund(address player, uint256 tot);\r\n    event BalancePlayerAfterRefund(address player, uint256 tot);\r\n\r\n    //Function that close the lottery round and manage all the following operations\r\n    function closeRound() public lotteryOperator {\r\n        uint256 total_balance = 0;\r\n\r\n        emit RoundBeforeClosing(round.number, round.state, round.start_block);\r\n\r\n        if (round.state == 1) {\r\n            emit BalanceContractBeforeClosing(address(this).balance);\r\n\r\n            emit BalanceOpBeforeClosing(\r\n                lottery_operator,\r\n                lottery_operator.balance\r\n            );\r\n\r\n            for (uint256 i = 0; i < lottery_players.length; i++) {\r\n                emit BalancePlayerBeforeRefund(\r\n                    lottery_players[i].player_address,\r\n                    lottery_players[i].player_address.balance\r\n                );\r\n\r\n                payable(lottery_players[i].player_address).transfer(price);\r\n\r\n                emit BalancePlayerAfterRefund(\r\n                    lottery_players[i].player_address,\r\n                    lottery_players[i].player_address.balance\r\n                );\r\n            }\r\n\r\n            delete_();\r\n            round.state = 3;\r\n\r\n            emit RoundAfterClosing(\r\n                round.number,\r\n                round.state,\r\n                round.start_block\r\n            );\r\n\r\n            return;\r\n        }\r\n\r\n        if (round.state == 2) {\r\n            givePrizes();\r\n            total_balance = price * lottery_players.length;\r\n\r\n            emit BalanceContractBeforeClosing(address(this).balance);\r\n\r\n            emit BalanceOpBeforeClosing(\r\n                lottery_operator,\r\n                lottery_operator.balance\r\n            );\r\n\r\n            payable(lottery_operator).transfer(total_balance);\r\n\r\n            emit BalanceContractAfterClosing(address(this).balance);\r\n\r\n            emit BalanceOpAfterClosing(\r\n                lottery_operator,\r\n                lottery_operator.balance\r\n            );\r\n\r\n            delete_();\r\n            round.state = 3;\r\n\r\n            emit RoundAfterClosing(\r\n                round.number,\r\n                round.state,\r\n                round.start_block\r\n            );\r\n\r\n            return;\r\n        }\r\n\r\n        if (round.state == 3) {\r\n            emit BalanceContractBeforeClosing(address(this).balance);\r\n\r\n            emit BalanceOpBeforeClosing(\r\n                lottery_operator,\r\n                lottery_operator.balance\r\n            );\r\n\r\n            total_balance = price * lottery_players.length;\r\n            payable(lottery_operator).transfer(total_balance);\r\n\r\n            emit BalanceContractAfterClosing(address(this).balance);\r\n\r\n            emit BalanceOpAfterClosing(\r\n                lottery_operator,\r\n                lottery_operator.balance\r\n            );\r\n\r\n            delete_();\r\n            round.state = 3; //lottery finished\r\n\r\n            emit RoundAfterClosing(\r\n                round.number,\r\n                round.state,\r\n                round.start_block\r\n            );\r\n        }\r\n    }\r\n}\r\n",
  "sourcePath": "/home/fcarli/Scrivania/lottery/contracts/Lottery.sol",
  "compiler": {
    "name": "solc",
    "version": "0.8.3+commit.8d00100c.Emscripten.clang"
  },
  "schemaVersion": "3.4.7",
  "updatedAt": "2022-07-01T13:28:46.493Z",
  "networkType": "ethereum",
  "devdoc": {
    "kind": "dev",
    "methods": {},
    "version": 1
  },
  "userdoc": {
    "kind": "user",
    "methods": {},
    "version": 1
  }
}