{
  "contractName": "LotteryGame",
  "abi": [
    {
      "inputs": [],
      "stateMutability": "nonpayable",
      "type": "constructor"
    },
    {
      "anonymous": false,
      "inputs": [
        {
          "indexed": true,
          "internalType": "address",
          "name": "owner",
          "type": "address"
        },
        {
          "indexed": true,
          "internalType": "address",
          "name": "approved",
          "type": "address"
        },
        {
          "indexed": true,
          "internalType": "uint256",
          "name": "tokenId",
          "type": "uint256"
        }
      ],
      "name": "Approval",
      "type": "event"
    },
    {
      "anonymous": false,
      "inputs": [
        {
          "indexed": true,
          "internalType": "address",
          "name": "owner",
          "type": "address"
        },
        {
          "indexed": true,
          "internalType": "address",
          "name": "operator",
          "type": "address"
        },
        {
          "indexed": false,
          "internalType": "bool",
          "name": "approved",
          "type": "bool"
        }
      ],
      "name": "ApprovalForAll",
      "type": "event"
    },
    {
      "anonymous": false,
      "inputs": [
        {
          "indexed": false,
          "internalType": "string",
          "name": "content",
          "type": "string"
        }
      ],
      "name": "TokenContent",
      "type": "event"
    },
    {
      "anonymous": false,
      "inputs": [
        {
          "indexed": true,
          "internalType": "address",
          "name": "from",
          "type": "address"
        },
        {
          "indexed": true,
          "internalType": "address",
          "name": "to",
          "type": "address"
        },
        {
          "indexed": true,
          "internalType": "uint256",
          "name": "tokenId",
          "type": "uint256"
        }
      ],
      "name": "Transfer",
      "type": "event"
    },
    {
      "inputs": [
        {
          "internalType": "address",
          "name": "to",
          "type": "address"
        },
        {
          "internalType": "uint256",
          "name": "tokenId",
          "type": "uint256"
        }
      ],
      "name": "approve",
      "outputs": [],
      "stateMutability": "nonpayable",
      "type": "function"
    },
    {
      "inputs": [
        {
          "internalType": "address",
          "name": "owner",
          "type": "address"
        }
      ],
      "name": "balanceOf",
      "outputs": [
        {
          "internalType": "uint256",
          "name": "",
          "type": "uint256"
        }
      ],
      "stateMutability": "view",
      "type": "function",
      "constant": true
    },
    {
      "inputs": [
        {
          "internalType": "uint256",
          "name": "tokenId",
          "type": "uint256"
        }
      ],
      "name": "getApproved",
      "outputs": [
        {
          "internalType": "address",
          "name": "",
          "type": "address"
        }
      ],
      "stateMutability": "view",
      "type": "function",
      "constant": true
    },
    {
      "inputs": [
        {
          "internalType": "address",
          "name": "owner",
          "type": "address"
        },
        {
          "internalType": "address",
          "name": "operator",
          "type": "address"
        }
      ],
      "name": "isApprovedForAll",
      "outputs": [
        {
          "internalType": "bool",
          "name": "",
          "type": "bool"
        }
      ],
      "stateMutability": "view",
      "type": "function",
      "constant": true
    },
    {
      "inputs": [],
      "name": "name",
      "outputs": [
        {
          "internalType": "string",
          "name": "",
          "type": "string"
        }
      ],
      "stateMutability": "view",
      "type": "function",
      "constant": true
    },
    {
      "inputs": [
        {
          "internalType": "uint256",
          "name": "tokenId",
          "type": "uint256"
        }
      ],
      "name": "ownerOf",
      "outputs": [
        {
          "internalType": "address",
          "name": "",
          "type": "address"
        }
      ],
      "stateMutability": "view",
      "type": "function",
      "constant": true
    },
    {
      "inputs": [
        {
          "internalType": "address",
          "name": "operator",
          "type": "address"
        },
        {
          "internalType": "bool",
          "name": "approved",
          "type": "bool"
        }
      ],
      "name": "setApprovalForAll",
      "outputs": [],
      "stateMutability": "nonpayable",
      "type": "function"
    },
    {
      "inputs": [
        {
          "internalType": "bytes4",
          "name": "interfaceId",
          "type": "bytes4"
        }
      ],
      "name": "supportsInterface",
      "outputs": [
        {
          "internalType": "bool",
          "name": "",
          "type": "bool"
        }
      ],
      "stateMutability": "view",
      "type": "function",
      "constant": true
    },
    {
      "inputs": [],
      "name": "symbol",
      "outputs": [
        {
          "internalType": "string",
          "name": "",
          "type": "string"
        }
      ],
      "stateMutability": "view",
      "type": "function",
      "constant": true
    },
    {
      "inputs": [
        {
          "internalType": "uint256",
          "name": "tokenId",
          "type": "uint256"
        }
      ],
      "name": "tokenURI",
      "outputs": [
        {
          "internalType": "string",
          "name": "",
          "type": "string"
        }
      ],
      "stateMutability": "view",
      "type": "function",
      "constant": true
    },
    {
      "inputs": [
        {
          "internalType": "address",
          "name": "from",
          "type": "address"
        },
        {
          "internalType": "address",
          "name": "to",
          "type": "address"
        },
        {
          "internalType": "uint256",
          "name": "tokenId",
          "type": "uint256"
        }
      ],
      "name": "transferFrom",
      "outputs": [],
      "stateMutability": "nonpayable",
      "type": "function"
    },
    {
      "inputs": [
        {
          "internalType": "address",
          "name": "to",
          "type": "address"
        },
        {
          "internalType": "uint256",
          "name": "tokenId",
          "type": "uint256"
        },
        {
          "internalType": "string",
          "name": "content",
          "type": "string"
        }
      ],
      "name": "mint",
      "outputs": [],
      "stateMutability": "nonpayable",
      "type": "function"
    },
    {
      "inputs": [
        {
          "internalType": "address",
          "name": "from",
          "type": "address"
        },
        {
          "internalType": "address",
          "name": "to",
          "type": "address"
        },
        {
          "internalType": "uint256",
          "name": "tokenId",
          "type": "uint256"
        }
      ],
      "name": "safeTransferFrom",
      "outputs": [],
      "stateMutability": "nonpayable",
      "type": "function"
    },
    {
      "inputs": [
        {
          "internalType": "address",
          "name": "from",
          "type": "address"
        },
        {
          "internalType": "address",
          "name": "to",
          "type": "address"
        },
        {
          "internalType": "uint256",
          "name": "tokenId",
          "type": "uint256"
        },
        {
          "internalType": "bytes",
          "name": "data",
          "type": "bytes"
        }
      ],
      "name": "safeTransferFrom",
      "outputs": [],
      "stateMutability": "nonpayable",
      "type": "function"
    },
    {
      "inputs": [
        {
          "internalType": "uint256",
          "name": "tokenId",
          "type": "uint256"
        }
      ],
      "name": "getTokenContent",
      "outputs": [
        {
          "internalType": "string",
          "name": "",
          "type": "string"
        }
      ],
      "stateMutability": "view",
      "type": "function",
      "constant": true
    }
  ],
  "bytecode": "0x60806040523480156200001157600080fd5b506040518060400160405280600b81526020017f4c6f747465727947616d650000000000000000000000000000000000000000008152506040518060400160405280600c81526020017f4c4f54544552595f47414d450000000000000000000000000000000000000000815250816000908051906020019062000096929190620000f9565b508060019080519060200190620000af929190620000f9565b50505033600660006101000a81548173ffffffffffffffffffffffffffffffffffffffff021916908373ffffffffffffffffffffffffffffffffffffffff1602179055506200020e565b8280546200010790620001a9565b90600052602060002090601f0160209004810192826200012b576000855562000177565b82601f106200014657805160ff191683800117855562000177565b8280016001018555821562000177579182015b828111156200017657825182559160200191906001019062000159565b5b5090506200018691906200018a565b5090565b5b80821115620001a55760008160009055506001016200018b565b5090565b60006002820490506001821680620001c257607f821691505b60208210811415620001d957620001d8620001df565b5b50919050565b7f4e487b7100000000000000000000000000000000000000000000000000000000600052602260045260246000fd5b612cf3806200021e6000396000f3fe608060405234801561001057600080fd5b50600436106100f55760003560e01c806369e11de611610097578063b88d4fde11610066578063b88d4fde14610296578063c87b56dd146102b2578063d3fc9864146102e2578063e985e9c5146102fe576100f5565b806369e11de6146101fc57806370a082311461022c57806395d89b411461025c578063a22cb4651461027a576100f5565b8063095ea7b3116100d3578063095ea7b31461017857806323b872dd1461019457806342842e0e146101b05780636352211e146101cc576100f5565b806301ffc9a7146100fa57806306fdde031461012a578063081812fc14610148575b600080fd5b610114600480360381019061010f9190611cc6565b61032e565b6040516101219190612134565b60405180910390f35b610132610410565b60405161013f919061214f565b60405180910390f35b610162600480360381019061015d9190611d18565b6104a2565b60405161016f91906120cd565b60405180910390f35b610192600480360381019061018d9190611c23565b610527565b005b6101ae60048036038101906101a99190611b1d565b61063f565b005b6101ca60048036038101906101c59190611b1d565b61069f565b005b6101e660048036038101906101e19190611d18565b6106bf565b6040516101f391906120cd565b60405180910390f35b61021660048036038101906102119190611d18565b610771565b604051610223919061214f565b60405180910390f35b61024660048036038101906102419190611ab8565b61085e565b6040516102539190612391565b60405180910390f35b610264610916565b604051610271919061214f565b60405180910390f35b610294600480360381019061028f9190611be7565b6109a8565b005b6102b060048036038101906102ab9190611b6c565b6109be565b005b6102cc60048036038101906102c79190611d18565b610a19565b6040516102d9919061214f565b60405180910390f35b6102fc60048036038101906102f79190611c5f565b610ac0565b005b61031860048036038101906103139190611ae1565b610b69565b6040516103259190612134565b60405180910390f35b60007f80ac58cd000000000000000000000000000000000000000000000000000000007bffffffffffffffffffffffffffffffffffffffffffffffffffffffff1916827bffffffffffffffffffffffffffffffffffffffffffffffffffffffff191614806103f957507f5b5e139f000000000000000000000000000000000000000000000000000000007bffffffffffffffffffffffffffffffffffffffffffffffffffffffff1916827bffffffffffffffffffffffffffffffffffffffffffffffffffffffff1916145b80610409575061040882610bfd565b5b9050919050565b60606000805461041f906125e7565b80601f016020809104026020016040519081016040528092919081815260200182805461044b906125e7565b80156104985780601f1061046d57610100808354040283529160200191610498565b820191906000526020600020905b81548152906001019060200180831161047b57829003601f168201915b5050505050905090565b60006104ad82610c67565b6104ec576040517f08c379a00000000000000000000000000000000000000000000000000000000081526004016104e3906122d1565b60405180910390fd5b6004600083815260200190815260200160002060009054906101000a900473ffffffffffffffffffffffffffffffffffffffff169050919050565b6000610532826106bf565b90508073ffffffffffffffffffffffffffffffffffffffff168373ffffffffffffffffffffffffffffffffffffffff1614156105a3576040517f08c379a000000000000000000000000000000000000000000000000000000000815260040161059a90612311565b60405180910390fd5b8073ffffffffffffffffffffffffffffffffffffffff166105c2610cd3565b73ffffffffffffffffffffffffffffffffffffffff1614806105f157506105f0816105eb610cd3565b610b69565b5b610630576040517f08c379a000000000000000000000000000000000000000000000000000000000815260040161062790612251565b60405180910390fd5b61063a8383610cdb565b505050565b61065061064a610cd3565b82610d94565b61068f576040517f08c379a000000000000000000000000000000000000000000000000000000000815260040161068690612331565b60405180910390fd5b61069a838383610e72565b505050565b6106ba838383604051806020016040528060008152506109be565b505050565b6000806002600084815260200190815260200160002060009054906101000a900473ffffffffffffffffffffffffffffffffffffffff169050600073ffffffffffffffffffffffffffffffffffffffff168173ffffffffffffffffffffffffffffffffffffffff161415610768576040517f08c379a000000000000000000000000000000000000000000000000000000000815260040161075f90612291565b60405180910390fd5b80915050919050565b606061077c82610c67565b6107bb576040517f08c379a00000000000000000000000000000000000000000000000000000000081526004016107b290612211565b60405180910390fd5b6007600083815260200190815260200160002080546107d9906125e7565b80601f0160208091040260200160405190810160405280929190818152602001828054610805906125e7565b80156108525780601f1061082757610100808354040283529160200191610852565b820191906000526020600020905b81548152906001019060200180831161083557829003601f168201915b50505050509050919050565b60008073ffffffffffffffffffffffffffffffffffffffff168273ffffffffffffffffffffffffffffffffffffffff1614156108cf576040517f08c379a00000000000000000000000000000000000000000000000000000000081526004016108c690612271565b60405180910390fd5b600360008373ffffffffffffffffffffffffffffffffffffffff1673ffffffffffffffffffffffffffffffffffffffff168152602001908152602001600020549050919050565b606060018054610925906125e7565b80601f0160208091040260200160405190810160405280929190818152602001828054610951906125e7565b801561099e5780601f106109735761010080835404028352916020019161099e565b820191906000526020600020905b81548152906001019060200180831161098157829003601f168201915b5050505050905090565b6109ba6109b3610cd3565b83836110d9565b5050565b6109c88483610d94565b610a07576040517f08c379a00000000000000000000000000000000000000000000000000000000081526004016109fe90612351565b60405180910390fd5b610a1384848484611246565b50505050565b6060610a2482610c67565b610a63576040517f08c379a0000000000000000000000000000000000000000000000000000000008152600401610a5a906122f1565b60405180910390fd5b6000610a6d6112a2565b90506000815111610a8d5760405180602001604052806000815250610ab8565b80610a97846112b9565b604051602001610aa8929190612087565b6040516020818303038152906040525b915050919050565b600660009054906101000a900473ffffffffffffffffffffffffffffffffffffffff1673ffffffffffffffffffffffffffffffffffffffff168373ffffffffffffffffffffffffffffffffffffffff1614610b50576040517f08c379a0000000000000000000000000000000000000000000000000000000008152600401610b4790612371565b60405180910390fd5b610b5a8383611466565b610b648282611640565b505050565b6000600560008473ffffffffffffffffffffffffffffffffffffffff1673ffffffffffffffffffffffffffffffffffffffff16815260200190815260200160002060008373ffffffffffffffffffffffffffffffffffffffff1673ffffffffffffffffffffffffffffffffffffffff16815260200190815260200160002060009054906101000a900460ff16905092915050565b60007f01ffc9a7000000000000000000000000000000000000000000000000000000007bffffffffffffffffffffffffffffffffffffffffffffffffffffffff1916827bffffffffffffffffffffffffffffffffffffffffffffffffffffffff1916149050919050565b60008073ffffffffffffffffffffffffffffffffffffffff166002600084815260200190815260200160002060009054906101000a900473ffffffffffffffffffffffffffffffffffffffff1673ffffffffffffffffffffffffffffffffffffffff1614159050919050565b600033905090565b816004600083815260200190815260200160002060006101000a81548173ffffffffffffffffffffffffffffffffffffffff021916908373ffffffffffffffffffffffffffffffffffffffff160217905550808273ffffffffffffffffffffffffffffffffffffffff16610d4e836106bf565b73ffffffffffffffffffffffffffffffffffffffff167f8c5be1e5ebec7d5bd14f71427d1e84f3dd0314c0f7b2291e5b200ac8c7c3b92560405160405180910390a45050565b6000610d9f82610c67565b610dde576040517f08c379a0000000000000000000000000000000000000000000000000000000008152600401610dd590612231565b60405180910390fd5b6000610de9836106bf565b90508073ffffffffffffffffffffffffffffffffffffffff168473ffffffffffffffffffffffffffffffffffffffff161480610e2b5750610e2a8185610b69565b5b80610e6957508373ffffffffffffffffffffffffffffffffffffffff16610e51846104a2565b73ffffffffffffffffffffffffffffffffffffffff16145b91505092915050565b8273ffffffffffffffffffffffffffffffffffffffff16610e92826106bf565b73ffffffffffffffffffffffffffffffffffffffff1614610ee8576040517f08c379a0000000000000000000000000000000000000000000000000000000008152600401610edf90612191565b60405180910390fd5b600073ffffffffffffffffffffffffffffffffffffffff168273ffffffffffffffffffffffffffffffffffffffff161415610f58576040517f08c379a0000000000000000000000000000000000000000000000000000000008152600401610f4f906121d1565b60405180910390fd5b610f63838383611718565b610f6e600082610cdb565b6001600360008573ffffffffffffffffffffffffffffffffffffffff1673ffffffffffffffffffffffffffffffffffffffff1681526020019081526020016000206000828254610fbe91906124fd565b925050819055506001600360008473ffffffffffffffffffffffffffffffffffffffff1673ffffffffffffffffffffffffffffffffffffffff16815260200190815260200160002060008282546110159190612476565b92505081905550816002600083815260200190815260200160002060006101000a81548173ffffffffffffffffffffffffffffffffffffffff021916908373ffffffffffffffffffffffffffffffffffffffff160217905550808273ffffffffffffffffffffffffffffffffffffffff168473ffffffffffffffffffffffffffffffffffffffff167fddf252ad1be2c89b69c2b068fc378daa952ba7f163c4a11628f55a4df523b3ef60405160405180910390a46110d483838361171d565b505050565b8173ffffffffffffffffffffffffffffffffffffffff168373ffffffffffffffffffffffffffffffffffffffff161415611148576040517f08c379a000000000000000000000000000000000000000000000000000000000815260040161113f906121f1565b60405180910390fd5b80600560008573ffffffffffffffffffffffffffffffffffffffff1673ffffffffffffffffffffffffffffffffffffffff16815260200190815260200160002060008473ffffffffffffffffffffffffffffffffffffffff1673ffffffffffffffffffffffffffffffffffffffff16815260200190815260200160002060006101000a81548160ff0219169083151502179055508173ffffffffffffffffffffffffffffffffffffffff168373ffffffffffffffffffffffffffffffffffffffff167f17307eab39ab6107e8899845ad3d59bd9653f200f220920489ca2b5937696c31836040516112399190612134565b60405180910390a3505050565b611251848484610e72565b61125d84848484611722565b61129c576040517f08c379a000000000000000000000000000000000000000000000000000000000815260040161129390612171565b60405180910390fd5b50505050565b606060405180602001604052806000815250905090565b60606000821415611301576040518060400160405280600181526020017f30000000000000000000000000000000000000000000000000000000000000008152509050611461565b600082905060005b6000821461133357808061131c9061264a565b915050600a8261132c91906124cc565b9150611309565b60008167ffffffffffffffff811115611375577f4e487b7100000000000000000000000000000000000000000000000000000000600052604160045260246000fd5b6040519080825280601f01601f1916602001820160405280156113a75781602001600182028036833780820191505090505b5090505b6000851461145a576001826113c091906124fd565b9150600a856113cf9190612693565b60306113db9190612476565b60f81b818381518110611417577f4e487b7100000000000000000000000000000000000000000000000000000000600052603260045260246000fd5b60200101907effffffffffffffffffffffffffffffffffffffffffffffffffffffffffffff1916908160001a905350600a8561145391906124cc565b94506113ab565b8093505050505b919050565b600073ffffffffffffffffffffffffffffffffffffffff168273ffffffffffffffffffffffffffffffffffffffff1614156114d6576040517f08c379a00000000000000000000000000000000000000000000000000000000081526004016114cd906122b1565b60405180910390fd5b6114df81610c67565b1561151f576040517f08c379a0000000000000000000000000000000000000000000000000000000008152600401611516906121b1565b60405180910390fd5b61152b60008383611718565b6001600360008473ffffffffffffffffffffffffffffffffffffffff1673ffffffffffffffffffffffffffffffffffffffff168152602001908152602001600020600082825461157b9190612476565b92505081905550816002600083815260200190815260200160002060006101000a81548173ffffffffffffffffffffffffffffffffffffffff021916908373ffffffffffffffffffffffffffffffffffffffff160217905550808273ffffffffffffffffffffffffffffffffffffffff16600073ffffffffffffffffffffffffffffffffffffffff167fddf252ad1be2c89b69c2b068fc378daa952ba7f163c4a11628f55a4df523b3ef60405160405180910390a461163c6000838361171d565b5050565b61164982610c67565b611688576040517f08c379a000000000000000000000000000000000000000000000000000000000815260040161167f90612211565b60405180910390fd5b806007600084815260200190815260200160002090805190602001906116af9291906118dc565b5060006116bb836112b9565b6040516020016116cb91906120ab565b60405160208183030381529060405290507f74ea927ed1e15e3bf12ca807da9dab19c2b61ddd1e6de4bd9e33aa0e7811a3fc8160405161170b919061214f565b60405180910390a1505050565b505050565b505050565b60006117438473ffffffffffffffffffffffffffffffffffffffff166118b9565b156118ac578373ffffffffffffffffffffffffffffffffffffffff1663150b7a0261176c610cd3565b8786866040518563ffffffff1660e01b815260040161178e94939291906120e8565b602060405180830381600087803b1580156117a857600080fd5b505af19250505080156117d957506040513d601f19601f820116820180604052508101906117d69190611cef565b60015b61185c573d8060008114611809576040519150601f19603f3d011682016040523d82523d6000602084013e61180e565b606091505b50600081511415611854576040517f08c379a000000000000000000000000000000000000000000000000000000000815260040161184b90612171565b60405180910390fd5b805181602001fd5b63150b7a0260e01b7bffffffffffffffffffffffffffffffffffffffffffffffffffffffff1916817bffffffffffffffffffffffffffffffffffffffffffffffffffffffff1916149150506118b1565b600190505b949350505050565b6000808273ffffffffffffffffffffffffffffffffffffffff163b119050919050565b8280546118e8906125e7565b90600052602060002090601f01602090048101928261190a5760008555611951565b82601f1061192357805160ff1916838001178555611951565b82800160010185558215611951579182015b82811115611950578251825591602001919060010190611935565b5b50905061195e9190611962565b5090565b5b8082111561197b576000816000905550600101611963565b5090565b600061199261198d846123d1565b6123ac565b9050828152602081018484840111156119aa57600080fd5b6119b58482856125a5565b509392505050565b60006119d06119cb84612402565b6123ac565b9050828152602081018484840111156119e857600080fd5b6119f38482856125a5565b509392505050565b600081359050611a0a81612c61565b92915050565b600081359050611a1f81612c78565b92915050565b600081359050611a3481612c8f565b92915050565b600081519050611a4981612c8f565b92915050565b600082601f830112611a6057600080fd5b8135611a7084826020860161197f565b91505092915050565b600082601f830112611a8a57600080fd5b8135611a9a8482602086016119bd565b91505092915050565b600081359050611ab281612ca6565b92915050565b600060208284031215611aca57600080fd5b6000611ad8848285016119fb565b91505092915050565b60008060408385031215611af457600080fd5b6000611b02858286016119fb565b9250506020611b13858286016119fb565b9150509250929050565b600080600060608486031215611b3257600080fd5b6000611b40868287016119fb565b9350506020611b51868287016119fb565b9250506040611b6286828701611aa3565b9150509250925092565b60008060008060808587031215611b8257600080fd5b6000611b90878288016119fb565b9450506020611ba1878288016119fb565b9350506040611bb287828801611aa3565b925050606085013567ffffffffffffffff811115611bcf57600080fd5b611bdb87828801611a4f565b91505092959194509250565b60008060408385031215611bfa57600080fd5b6000611c08858286016119fb565b9250506020611c1985828601611a10565b9150509250929050565b60008060408385031215611c3657600080fd5b6000611c44858286016119fb565b9250506020611c5585828601611aa3565b9150509250929050565b600080600060608486031215611c7457600080fd5b6000611c82868287016119fb565b9350506020611c9386828701611aa3565b925050604084013567ffffffffffffffff811115611cb057600080fd5b611cbc86828701611a79565b9150509250925092565b600060208284031215611cd857600080fd5b6000611ce684828501611a25565b91505092915050565b600060208284031215611d0157600080fd5b6000611d0f84828501611a3a565b91505092915050565b600060208284031215611d2a57600080fd5b6000611d3884828501611aa3565b91505092915050565b611d4a81612531565b82525050565b611d5981612543565b82525050565b6000611d6a82612433565b611d748185612449565b9350611d848185602086016125b4565b611d8d81612780565b840191505092915050565b6000611da38261243e565b611dad818561245a565b9350611dbd8185602086016125b4565b611dc681612780565b840191505092915050565b6000611ddc8261243e565b611de6818561246b565b9350611df68185602086016125b4565b80840191505092915050565b6000611e0f60328361245a565b9150611e1a82612791565b604082019050919050565b6000611e3260258361245a565b9150611e3d826127e0565b604082019050919050565b6000611e55601c8361245a565b9150611e608261282f565b602082019050919050565b6000611e7860248361245a565b9150611e8382612858565b604082019050919050565b6000611e9b60198361245a565b9150611ea6826128a7565b602082019050919050565b6000611ebe601d8361245a565b9150611ec9826128d0565b602082019050919050565b6000611ee1602c8361245a565b9150611eec826128f9565b604082019050919050565b6000611f0460388361245a565b9150611f0f82612948565b604082019050919050565b6000611f27602a8361245a565b9150611f3282612997565b604082019050919050565b6000611f4a60298361245a565b9150611f55826129e6565b604082019050919050565b6000611f6d60208361245a565b9150611f7882612a35565b602082019050919050565b6000611f90602c8361245a565b9150611f9b82612a5e565b604082019050919050565b6000611fb3602f8361245a565b9150611fbe82612aad565b604082019050919050565b6000611fd660218361245a565b9150611fe182612afc565b604082019050919050565b6000611ff960318361245a565b915061200482612b4b565b604082019050919050565b600061201c60158361246b565b915061202782612b9a565b601582019050919050565b600061203f602e8361245a565b915061204a82612bc3565b604082019050919050565b600061206260258361245a565b915061206d82612c12565b604082019050919050565b6120818161259b565b82525050565b60006120938285611dd1565b915061209f8284611dd1565b91508190509392505050565b60006120b68261200f565b91506120c28284611dd1565b915081905092915050565b60006020820190506120e26000830184611d41565b92915050565b60006080820190506120fd6000830187611d41565b61210a6020830186611d41565b6121176040830185612078565b81810360608301526121298184611d5f565b905095945050505050565b60006020820190506121496000830184611d50565b92915050565b600060208201905081810360008301526121698184611d98565b905092915050565b6000602082019050818103600083015261218a81611e02565b9050919050565b600060208201905081810360008301526121aa81611e25565b9050919050565b600060208201905081810360008301526121ca81611e48565b9050919050565b600060208201905081810360008301526121ea81611e6b565b9050919050565b6000602082019050818103600083015261220a81611e8e565b9050919050565b6000602082019050818103600083015261222a81611eb1565b9050919050565b6000602082019050818103600083015261224a81611ed4565b9050919050565b6000602082019050818103600083015261226a81611ef7565b9050919050565b6000602082019050818103600083015261228a81611f1a565b9050919050565b600060208201905081810360008301526122aa81611f3d565b9050919050565b600060208201905081810360008301526122ca81611f60565b9050919050565b600060208201905081810360008301526122ea81611f83565b9050919050565b6000602082019050818103600083015261230a81611fa6565b9050919050565b6000602082019050818103600083015261232a81611fc9565b9050919050565b6000602082019050818103600083015261234a81611fec565b9050919050565b6000602082019050818103600083015261236a81612032565b9050919050565b6000602082019050818103600083015261238a81612055565b9050919050565b60006020820190506123a66000830184612078565b92915050565b60006123b66123c7565b90506123c28282612619565b919050565b6000604051905090565b600067ffffffffffffffff8211156123ec576123eb612751565b5b6123f582612780565b9050602081019050919050565b600067ffffffffffffffff82111561241d5761241c612751565b5b61242682612780565b9050602081019050919050565b600081519050919050565b600081519050919050565b600082825260208201905092915050565b600082825260208201905092915050565b600081905092915050565b60006124818261259b565b915061248c8361259b565b9250827fffffffffffffffffffffffffffffffffffffffffffffffffffffffffffffffff038211156124c1576124c06126c4565b5b828201905092915050565b60006124d78261259b565b91506124e28361259b565b9250826124f2576124f16126f3565b5b828204905092915050565b60006125088261259b565b91506125138361259b565b925082821015612526576125256126c4565b5b828203905092915050565b600061253c8261257b565b9050919050565b60008115159050919050565b60007fffffffff0000000000000000000000000000000000000000000000000000000082169050919050565b600073ffffffffffffffffffffffffffffffffffffffff82169050919050565b6000819050919050565b82818337600083830152505050565b60005b838110156125d25780820151818401526020810190506125b7565b838111156125e1576000848401525b50505050565b600060028204905060018216806125ff57607f821691505b6020821081141561261357612612612722565b5b50919050565b61262282612780565b810181811067ffffffffffffffff8211171561264157612640612751565b5b80604052505050565b60006126558261259b565b91507fffffffffffffffffffffffffffffffffffffffffffffffffffffffffffffffff821415612688576126876126c4565b5b600182019050919050565b600061269e8261259b565b91506126a98361259b565b9250826126b9576126b86126f3565b5b828206905092915050565b7f4e487b7100000000000000000000000000000000000000000000000000000000600052601160045260246000fd5b7f4e487b7100000000000000000000000000000000000000000000000000000000600052601260045260246000fd5b7f4e487b7100000000000000000000000000000000000000000000000000000000600052602260045260246000fd5b7f4e487b7100000000000000000000000000000000000000000000000000000000600052604160045260246000fd5b6000601f19601f8301169050919050565b7f4552433732313a207472616e7366657220746f206e6f6e20455243373231526560008201527f63656976657220696d706c656d656e7465720000000000000000000000000000602082015250565b7f4552433732313a207472616e736665722066726f6d20696e636f72726563742060008201527f6f776e6572000000000000000000000000000000000000000000000000000000602082015250565b7f4552433732313a20746f6b656e20616c7265616479206d696e74656400000000600082015250565b7f4552433732313a207472616e7366657220746f20746865207a65726f2061646460008201527f7265737300000000000000000000000000000000000000000000000000000000602082015250565b7f4552433732313a20617070726f766520746f2063616c6c657200000000000000600082015250565b7f4552433732313a20746f6b656e20646f6573206e6f7420657869737421000000600082015250565b7f4552433732313a206f70657261746f7220717565727920666f72206e6f6e657860008201527f697374656e7420746f6b656e0000000000000000000000000000000000000000602082015250565b7f4552433732313a20617070726f76652063616c6c6572206973206e6f74206f7760008201527f6e6572206e6f7220617070726f76656420666f7220616c6c0000000000000000602082015250565b7f4552433732313a2062616c616e636520717565727920666f7220746865207a6560008201527f726f206164647265737300000000000000000000000000000000000000000000602082015250565b7f4552433732313a206f776e657220717565727920666f72206e6f6e657869737460008201527f656e7420746f6b656e0000000000000000000000000000000000000000000000602082015250565b7f4552433732313a206d696e7420746f20746865207a65726f2061646472657373600082015250565b7f4552433732313a20617070726f76656420717565727920666f72206e6f6e657860008201527f697374656e7420746f6b656e0000000000000000000000000000000000000000602082015250565b7f4552433732314d657461646174613a2055524920717565727920666f72206e6f60008201527f6e6578697374656e7420746f6b656e0000000000000000000000000000000000602082015250565b7f4552433732313a20617070726f76616c20746f2063757272656e74206f776e6560008201527f7200000000000000000000000000000000000000000000000000000000000000602082015250565b7f4552433732313a207472616e736665722063616c6c6572206973206e6f74206f60008201527f776e6572206e6f7220617070726f766564000000000000000000000000000000602082015250565b7f53657420436f6e74656e74206f6620546f6b656e200000000000000000000000600082015250565b7f4552433732313a2063616c6c6572206973206e6f7420746f6b656e206f776e6560008201527f72206e6f7220617070726f766564000000000000000000000000000000000000602082015250565b7f4552433732313a206d7573742068617665206d696e74657220726f6c6520746f60008201527f206d696e74000000000000000000000000000000000000000000000000000000602082015250565b612c6a81612531565b8114612c7557600080fd5b50565b612c8181612543565b8114612c8c57600080fd5b50565b612c988161254f565b8114612ca357600080fd5b50565b612caf8161259b565b8114612cba57600080fd5b5056fea264697066735822122009151b68f4a105af274478fa947428a61b7103f572402225f3c937ac897c217664736f6c63430008030033",
  "immutableReferences": {},
  "source": "// SPDX-License-Identifier: MIT\r\n// OpenZeppelin Contracts (last updated v4.6.0) (token/ERC721/ERC721.sol)\r\n\r\npragma solidity ^0.8.0;\r\n\r\nimport \"@openzeppelin/contracts/token/ERC721/ERC721.sol\";\r\n\r\ncontract LotteryGame is ERC721 {\r\n    address minter;\r\n\r\n    mapping(uint256 => string) private token_contents; //mapping between a tokenId and its content\r\n\r\n    constructor() ERC721(\"LotteryGame\", \"LOTTERY_GAME\") {\r\n        minter = msg.sender;\r\n    }\r\n\r\n    //Function that mint a new NFT with a given id and a content and assign it to a given address (lottery operator)\r\n    function mint(\r\n        address to,\r\n        uint256 tokenId,\r\n        string memory content\r\n    ) public virtual {\r\n        require(to == minter, \"ERC721: must have minter role to mint\");\r\n        _mint(to, tokenId);\r\n        setTokenContent(tokenId, content);\r\n    }\r\n\r\n    //Function that transfer a token from an owner to an other user (e.g. if a user wins the lottery receives a prize)\r\n    function safeTransferFrom(\r\n        address from,\r\n        address to,\r\n        uint256 tokenId,\r\n        bytes memory data\r\n    ) public virtual override {\r\n        require(\r\n            _isApprovedOrOwner(from, tokenId),\r\n            \"ERC721: caller is not token owner nor approved\"\r\n        );\r\n        _safeTransfer(from, to, tokenId, data);\r\n    }\r\n\r\n    //Function that return the content of a given token\r\n    function getTokenContent(uint256 tokenId)\r\n        public\r\n        view\r\n        returns (string memory)\r\n    {\r\n        require(_exists(tokenId), \"ERC721: token does not exist!\");\r\n\r\n        return token_contents[tokenId];\r\n    }\r\n\r\n    event TokenContent(string content);\r\n\r\n    //Function that set the content for a given token\r\n    function setTokenContent(uint256 tokenId, string memory content) internal {\r\n        require(_exists(tokenId), \"ERC721: token does not exist!\");\r\n        token_contents[tokenId] = content;\r\n        string memory str = string(\r\n            abi.encodePacked(\"Set Content of Token \", Strings.toString(tokenId))\r\n        );\r\n        emit TokenContent(str);\r\n    }\r\n}\r\n",
  "sourcePath": "/home/fcarli/Scrivania/lottery/contracts/LotteryGame.sol",
  "compiler": {
    "name": "solc",
    "version": "0.8.3+commit.8d00100c.Emscripten.clang"
  },
  "schemaVersion": "3.4.7",
  "updatedAt": "2022-07-01T13:28:46.371Z",
  "networkType": "ethereum",
  "devdoc": {
    "kind": "dev",
    "methods": {
      "approve(address,uint256)": {
        "details": "See {IERC721-approve}."
      },
      "balanceOf(address)": {
        "details": "See {IERC721-balanceOf}."
      },
      "getApproved(uint256)": {
        "details": "See {IERC721-getApproved}."
      },
      "isApprovedForAll(address,address)": {
        "details": "See {IERC721-isApprovedForAll}."
      },
      "name()": {
        "details": "See {IERC721Metadata-name}."
      },
      "ownerOf(uint256)": {
        "details": "See {IERC721-ownerOf}."
      },
      "safeTransferFrom(address,address,uint256)": {
        "details": "See {IERC721-safeTransferFrom}."
      },
      "setApprovalForAll(address,bool)": {
        "details": "See {IERC721-setApprovalForAll}."
      },
      "supportsInterface(bytes4)": {
        "details": "See {IERC165-supportsInterface}."
      },
      "symbol()": {
        "details": "See {IERC721Metadata-symbol}."
      },
      "tokenURI(uint256)": {
        "details": "See {IERC721Metadata-tokenURI}."
      },
      "transferFrom(address,address,uint256)": {
        "details": "See {IERC721-transferFrom}."
      }
    },
    "version": 1
  },
  "userdoc": {
    "kind": "user",
    "methods": {},
    "version": 1
  }
}